:100000000C94B0030C94E7120C94C0120C94991247
:100010000C9472120C94D8030C94D8030C944B12C9
:100020000C94D8030C94D8030C940E130C947D13E9
:100030000C94D8030C94D8030C94D8030C94D803D4
:100040000C94D8030C94D8030C94D8030C94D803C4
:100050000C94D8030C94D8030C94D8030C9401127C
:100060000C94D8030C94D8030C94D8030C94D803A4
:100070000C94D8030C94D8030C94D8030C94D80394
:100080000C94C8160C94D8030C94D8030C94D80381
:100090000C94A9150C94D8030C94D8030C94D80391
:1000A0000C94D8030C94D8030C94D80300407A1015
:1000B000F35A00A0724E18090010A5D4E80000E819
:1000C0007648170000E40B54020000CA9A3B000077
:1000D00000E1F505000080969800000040420F0006
:1000E0000000A08601000000102700000000E803C7
:1000F000000000006400000000000A000000000092
:100100000100000000002C76D888DC674F0823DF50
:10011000C1DFAE59E1B1B796E5E3E453C63AE65123
:10012000997696E8E6C28426EB898C9B62ED407C4A
:100130006FFCEFBC9C9F40F2BAA56FA5F490055AE6
:100140002AF75C936B6CF9676DC11BFCE0E40D470B
:10015000FEF520E6B500D0ED902E0300943577052E
:100160000080841E080000204E0A000000C80C33E6
:100170003333330F986E12831141EF8D2114893B75
:10018000E65516CFFEE6DB18D1844B381BF77C1DF5
:10019000901DA4BBE424203284725E228100C9F148
:1001A00024ECA1E53D27080B00020202000009042F
:1001B00000000102020000052400100105240101D5
:1001C000010424020605240600010705810310002E
:1001D0004009040100020A00000007050202400075
:1001E0000007058302400000040309041201000215
:1001F000EF020140412337800001010203014172F7
:100200006475696E6F204C4C430041726475696E71
:100210006F204D6963726F00000000002500280008
:100220002B002E00310000000000230026002900D2
:100230002C002F000404040404030405020202023B
:10024000040302020202060606060606040402026F
:100250000204040408020110408040102040804045
:10026000800802040180402010020110801020400C
:1002700040200000000200090F0000030401000CF0
:10028000000000000000000000000000000000006E
:1002900000050F0992A1028502099F09A009A4097E
:1002A000A509A615002501350045017501950581B3
:1002B0000295038103099415002501350045017558
:1002C000019501810209221501252835014528756E
:1002D0000795018102C00921A102850109221501AA
:1002E0002528350145287508950191020925A102A7
:1002F000092609270930093109320933093409402F
:10030000094109420943092809281501250C35012D
:10031000450C750895019100C00950095409511503
:100320000026FF7F350046FF7F66031055FD7510E0
:100330009503910255006600000952150026FF0042
:1003400035004610277508950191020953150125BE
:1003500008350145087508950191020955A1020566
:10036000010930093115002501750195029102C07E
:10037000050F095695019102950591030957A102B0
:100380000B01000A000B02000A0066140055FE155E
:100390000026FF00350047A08C00006600007508AD
:1003A000950291025500660000C0050F0958A10290
:1003B0000B01000A000B02000A0026FD7F75109554
:1003C000029102C0C0095AA1028502092215012525
:1003D0002835014528750895019102095B095D16CC
:1003E0000000261027360000461027751095029150
:1003F00002095C095E66031055FD27FF7F00004778
:10040000FF7F0000752095029102450066000055AF
:1004100000C0095FA10285030922150125283501C5
:10042000452875089501910209231500250335001B
:1004300045037504950191020958A1020B01000AB8
:10044000000B02000A00750295029102C016F0D856
:1004500026102736F0D846102709607510950191AF
:100460000236F0D8461027096109629502910216FA
:10047000000026102736000046102709630964751E
:100480001095029102096546102795019102C00955
:100490006EA102850409221501252835014528751C
:1004A00008950191020970160000261027360000F9
:1004B000461027751095019102096F16F0D8261085
:1004C0002736F0D8461027950175109102097166FC
:1004D000140055FE1500279F8C00003500479F8CA7
:1004E00000007510950191020972150027FF7F0029
:1004F00000350047FF7F000066031055FD7520950D
:100500000191026600005500C00973A1028505092A
:100510002215012528350145287508950191020904
:100520007016F0D826102736F0D84610277510958B
:10053000019102C00974A10285060922150125282E
:10054000350145287508950191020975097616F05F
:10055000D826102736F0D84610277510950291023C
:10056000C00968A102850709221501252835014522
:1005700028750895019102096C1500261027350091
:1005800046102775109501910209691581257F355F
:100590000046FF007508950C920201C00966A10291
:1005A00085080501093009311581257F350046FF91
:1005B00000750895019102C0050F0977A102850A0F
:1005C0000922150125283501452875089501910254
:1005D0000978A1020979097A097B150125037508B3
:1005E00095019100C0097C150026FF00350046FFEB
:1005F000009102C00990A102850B0922150125284E
:1006000035014528750895019102C00996A102851A
:100610000C099709980999099A099B099C150125C4
:1006200006750895019100C0097DA102850D097E1E
:10063000150026FF00350046102775089501910228
:10064000C0096BA102850E09221501252835014537
:1006500028750895019102096D150026FF003500E7
:1006600046FF00750895019102095166031055FD7A
:10067000150026FF7F350046FF7F7510950191021A
:100680005500660000C009ABA10285050925A1023D
:10069000092609270930093109320933093409408B
:1006A0000941094209430928250C15013501450C6A
:1006B00075089501B100C00501093B150026FF0131
:1006C000350046FF01750A9501B1027506B101C0FA
:1006D000050F0989A1028506092225281501350182
:1006E000452875089501B102098BA102098C098D75
:1006F000098E250315013501450375089501B100E3
:10070000C009AC150027FFFF0000350047FFFF00C0
:100710000075109501B100C0097FA102850709800D
:10072000751095011500350027FFFF000047FFFFFA
:100730000000B102098326FF0046FF0075089501FD
:10074000B10209A909AA7501950215002501350014
:100750004501B10275069501B103C0C0C018A926B4
:1007600011241FBECFEFDAE0DEBFCDBF12E0A0E064
:10077000B1E0E8E9FCE502C005900D92AA36B107A8
:10078000D9F729E0AAE6B2E001C01D92A035B20770
:10079000E1F713E0CFEAD3E004C02197FE010E9405
:1007A0002D2BCE3AD107C9F70E945B1B0C943F2E2C
:1007B0000C940000CF92DF92EF92FF920F931F9361
:1007C000CF93DF93D901E8016A01F901421753077A
:1007D00014F06901FA01882309F440C0CB016C15BB
:1007E0007D050CF4C6019F018E179F070CF49C0138
:1007F000A417B50734F4CF01821B930B9C012C0D79
:100800003D1D0D2C000CEE08FF08032E000C440BC0
:10081000550B2C193D094E095F09AEEFBFEF0E9441
:10082000922A9F01FF0F440B550B2C193D094E09CD
:100830005F090E94732ADA01C9018F5F9F47A109EE
:10084000B1098883998382E090E0DF91CF911F9175
:100850000F91FF90EF90DF90CF90089590E080E0AF
:10086000F4CFE82FF0E0EE0FFF1FE35FFE4F27EF1E
:100870003EE0318320838230D9F028F4882341F090
:10088000813071F008958330D9F0843009F10895F2
:10089000809169008C7F816080936900E89A089557
:1008A00080916900837F846080936900E99A08954C
:1008B000809169008F7C806180936900EA9A089535
:1008C000809169008F73806480936900EB9A08952A
:1008D00080916A008F7C806180936A00EE9A08950F
:1008E000CF93DF931F92CDB7DEB76983DC01ED9123
:1008F000FC910280F381E02D41E050E0BE016F5F8A
:100900007F4F09950F90DF91CF91089583E08093F9
:10091000E9008091F200882319F08AE38093E800CF
:10092000089581508F3008F047C0E82FF0E0E55679
:10093000FB4F0C942D2BB804BC04AA04B004B404DF
:10094000DC04DC04DC04BF04C504C904CD04D30406
:10095000DC04D704809180008F7780938000089515
:10096000809180008F7DF9CF80918000877FF5CFC7
:1009700084B58F7784BD089584B58F7DFBCF80913A
:1009800090008F77809390000895809190008F7DE4
:10099000F9CF80919000877FF5CF8091C0008F774D
:1009A0008093C00008958091C0008F7DF9CF809121
:1009B000C200877F8093C2000895CF93DF93282FD2
:1009C00030E0F901EE58FD4F8491F901ED5AFD4FE9
:1009D000D491F901EC5CFD4FC491CC23A1F08111BD
:1009E0000E949104EC2FF0E0EE0FFF1FEA5DFD4F37
:1009F000A591B491EC91ED2381E090E009F480E0C1
:100A0000DF91CF91089580E090E0FACF1F93CF93CC
:100A1000DF93282F30E0F901EE58FD4F8491F90162
:100A2000ED5AFD4FD491F901EC5CFD4FC491CC23FC
:100A3000A9F0162F81110E949104EC2FF0E0EE0F27
:100A4000FF1FE85EFD4FA591B4918FB7F894EC912C
:100A5000111108C0D095DE23DC938FBFDF91CF91B9
:100A60001F910895DE2BF8CF3FB7F8948091F502DF
:100A70009091F602A091F702B091F80226B5A89BDA
:100A800005C02F3F19F00196A11DB11D3FBFBA2F20
:100A9000A92F982F8827BC01CD01620F711D811DE0
:100AA000911D42E0660F771F881F991F4A95D1F765
:100AB00008958F929F92AF92BF92CF92DF92EF9262
:100AC000FF924B015C010E9434056B017C010E9486
:100AD00034056C197D098E099F09683E73408105B4
:100AE0009105A8F321E0821A9108A108B10888EEC7
:100AF000C80E83E0D81EE11CF11C81149104A104EE
:100B0000B10429F7FF90EF90DF90CF90BF90AF90A6
:100B10009F908F90089508950895089508954091A5
:100B2000DE025091DF022091DC023091DD0242179B
:100B30005307B4F49091E8009570E1F39091E800C8
:100B400092FD19C08093F1008091DE029091DF0246
:100B500001968F739927892B19F48EEF8093E80003
:100B60008091DE029091DF0201969093DF028093E4
:100B7000DE0281E0089580E00895EF92FF920F93E6
:100B80001F93CF93DF93F82E192FE62E042F81E0C9
:100B9000860F880F0E948F0583E00E948F05CF2D5E
:100BA000D12FEC0EFD2EF11CCE15DF05B9F007FF9D
:100BB00013C0FE0184910E948F05182F80E00E94CF
:100BC0008F05812321968111EFCFDF91CF911F9166
:100BD0000F91FF90EF9008958881EDCF81E0F5CFE0
:100BE000DF92EF92FF920F931F93CF93DF93D82E54
:100BF0008A01EB017B01E40EF51ECE15DF0559F0ED
:100C0000D7FE12C0FE0184910E948F0521968111AA
:100C1000F4CF0FEF1FEFC801DF91CF911F910F911C
:100C2000FF90EF90DF9008958881EECF2FB7F89472
:100C300087708093E9009091E800892F807295FF7A
:100C400004C09091F20080E4891B2FBF089583E0D7
:100C50000E94160690E008957F928F929F92AF9225
:100C6000BF92CF92DF92EF92FF920F931F93CF9399
:100C7000DF93C82E8B017A018091E502811110C0AB
:100C80008FEF9FEFDF91CF911F910F91FF90EF902A
:100C9000DF90CF90BF90AF909F908F907F900895FE
:100CA0008091E30280FF05C08091E0008260809324
:100CB000E000CE2DDF2DD12C8AEFB82E8C2D877041
:100CC000982E8C2D8072882E8C2D8074782E9AE32D
:100CD000A92E209719F4DD2009F452C08C2D0E9412
:100CE000160681110AC0BA94BB2051F261E070E08F
:100CF00080E090E00E945905ECCF8C171D0611F0A2
:100D00000CF08C2F9FB7F8949092E9002091E800A6
:100D100025FD02C09FBFDDCF282F30E0C21BD30BC3
:100D2000882029F08150A0F01092F100FBCFF8014B
:100D3000C7FC0AC0815050F041914093F100FACFB6
:100D400044914093F10031968150D0F7020F131F68
:100D5000DD2021F0A092E800D12CDCCF8091E800CA
:100D600085FD07C0A092E800DD24D394209791F27E
:100D7000F3CF209779F6772069F2A092E800CACFE6
:100D80005D9A84E68093E202C7017CCFCF93DF9324
:100D9000EC0180910C01882331F083E00E942C0645
:100DA0001816190634F081E090E09B838A8380E076
:100DB00090E0DF91CF9108959091E502992319F188
:100DC0003FB7F89487708093E9008091F20090E03B
:100DD000481759070CF4CA01282FFB0154E621508B
:100DE00038F0289A5093E1024091F1004193F7CFF7
:100DF000009739F02091F200211103C02BE62093D7
:100E0000E8003FBF08958FEF9FEF08950F931F9362
:100E1000CF93DF931F92CDB7DEB78C01FC018485A1
:100E2000958597FF0FC041E050E0BE016F5F7F4F97
:100E300082E00E94DC06019771F4898190E0F8015C
:100E400095878487F801848595850F90DF91CF91F0
:100E50001F910F9108958FEF9FEFF1CFCF93DF9305
:100E60001F92CDB7DEB7FC018485958597FD08C03C
:100E70002FEF3FEF358724870F90DF91CF910895B3
:100E800041E050E0BE016F5F7F4F82E00E94DC06D0
:100E9000019719F4898190E0EFCF8FEF9FEFECCFAE
:100EA0009FB7F89487708093E9008091F2009FBF0C
:100EB0000895FC018485958597FD06C082E00E9417
:100EC000500790E00196089582E00E94500790E05C
:100ED0000895615030F02091F100FC0120830196CB
:100EE000F8CF289A84E68093E1020895AF92BF92EA
:100EF000DF92EF92FF920F931F93CF93DF935C01EA
:100F00008B01EB019BEFD92E2097C1F07E01C134FC
:100F1000D1051CF080E4E82EF12C8091E80082FFDE
:100F2000FCCFC8018C1B9D0B6E2D8A0D9B1D0E9452
:100F30006907D092E800CE19DF09E6CFC801DF913A
:100F4000CF911F910F91FF90EF90DF90BF90AF90E6
:100F50000895AF92BF92CF92DF92EF92FF920F93DC
:100F60001F93CF93DF936C017B018B01040F151F3F
:100F7000EB015E01AE18BF08C017D10759F06991A7
:100F8000D601ED91FC910190F081E02DC60109950B
:100F9000892B79F7C501DF91CF911F910F91FF90B8
:100FA000EF90DF90CF90BF90AF9008958091D402E2
:100FB00081110DC082E08093D00284E08093D10241
:100FC0001092D3021092D20281E08093D40280ED7D
:100FD00092E00895CF93DF9382E08093990381E0BC
:100FE00080939A0329E637E030939C0320939B0378
:100FF00010929E0310929D032FE431E030939603EC
:1010000020939503109252071092530710925407A1
:1010100010925507109257071092560710925907D1
:10102000109258072091240130912501409126010A
:1010300020935A0730935B0740935C0780939F038C
:10104000109251071092AC071092AB071092AE07A6
:101050001092AD078093AF078093B00781EC809327
:10106000690780EC80936A070E94D607FC018181A2
:1010700090919903482F490F5527551F4830510526
:101080009CF5A281B381109709F525E933E03383FC
:1010900022832081209397038093980380919A0361
:1010A000820F808320919B03A22FB0919C038A2FF3
:1010B000821B8917C8F481813D91C82FD0E0C95E99
:1010C000DE4F38838F5F8183F2CFD90118962D913F
:1010D0003C91199721153105C1F725E933E019969F
:1010E0003C932E931897D5CFDF91CF9108950F930E
:1010F0001F93CF93DF931F92CDB7DEB782E0898332
:1011000042E450E066EA71E080E80E94F0050E9447
:10111000D607DC0112960D911C910115110589F07D
:10112000D801ED91FC910280F381E02DBE016F5F4B
:101130007F4FC801099597FD04C0F801008511850E
:10114000ECCF89810F90DF91CF911F910F9108957E
:10115000BC0130E020E08FE3DB01AF53BC4F829F46
:10116000F001839FF00D1124E60FF71F91819D7F01
:1011700091834D915C911197415C5F4F11965C9307
:101180004E932F5F3F4F2F30310549F70895FB01F4
:1011900028E4208329E4218324E42283DC01A85E5F
:1011A000BB4F9C919F709F5B93838D919C9124E09A
:1011B000969587952A95E1F78F708F5B848385E0FC
:1011C0000895EF92FF920F931F93CF93DF93DB016C
:1011D0002C91213809F046C013962C911397223296
:1011E00009F040C0FC01428114962D913C914217B8
:1011F0001306C1F58C01EA5EFB4FE080F180D0E080
:10120000C0E0E114F10441F1F701468157816281A8
:10121000738180E00E94F0058F3F980751F4CFEF73
:10122000DFEFCE01DF91CF911F910F91FF90EF90F3
:101230000895C80FD91FF7014085518564817581D4
:1012400080E80E94F0058F3F980749F3C80FD91F27
:10125000F701E080F180D5CFF801E65EFB4F81E039
:101260008083DFCFD0E0C0E0DCCFCF93DF93CDB77A
:10127000DEB7A0970FB6F894DEBF0FBECDBFFC015E
:10128000DB018C918F5F8C939E012D5F3F4F8CE033
:10129000D9011D928A95E9F799E0998384E08A83C0
:1012A00082E08D8383E08E839A8791E29B8791E130
:1012B0009C8791E09D879F8722E2288B57E05B8B7C
:1012C00045E04C8B8E8B20E430E0388F2F8B998F4C
:1012D0005A8F4B8F8D8F3F8F2E8F98A382818B8358
:1012E000DF01A85EBB4F9C9111968C91998B8A8BE4
:1012F0008381982F90689D8B8F5F8C8F40E250E0A8
:10130000BE016F5F7F4F80E00E94F005A0960FB690
:10131000F894DEBF0FBECDBFDF91CF910895089541
:1013200020918B02260F3327331F21323105ECF435
:1013300020913F03FC0190E080E0243069F082E0DE
:101340000895A0918B022191AC0145595D4FA40FE6
:10135000B52FB11D2C930196861798F380918B02BF
:10136000680F60938B0280E0089581E008951092E9
:101370003F0381E080931E031092190361E082E035
:101380000E94060561E083E00E940605E9EBF0E0BB
:1013900080818E7F808380818D7F808388E48093AD
:1013A000B80085E48093BC000895CF93DF9391E06B
:1013B00090936A028823B9F0C091B800D091BA0026
:1013C0008091BC008A7B8093BC0060E082E00E9438
:1013D000060560E083E00E9406050E94B709D093ED
:1013E000BA00C093B800DF91CF910895CF92DF92F9
:1013F000EF92FF920F931F93CF93DF93D82FC62FB7
:10140000613208F098C00E9434056B017C01809124
:101410003F0381116BC081E080933F0380931E03E3
:101420009FEF90931D0310921C039C0F90931B033E
:1014300080931A0380911A03DD0FD82BD0931A03DF
:1014400080911903813009F078C0109219030E942D
:1014500034056B017C0180911A038093BB0080915D
:10146000410390914203A0914303B0914403892B1F
:101470008A2B8B2BA1F00E9434050091410310911F
:10148000420320914303309144036C197D098E0976
:101490009F09061717072807390708F448C08091E5
:1014A000BC0083FDD8CF85EC8093BC000E9434053E
:1014B0006B017C0180913F03813009F440C0809131
:1014C0001C038C1710F4C0911C03E9EFF2E0AFE1AC
:1014D000B3E080E08C1355C08C2FDF91CF911F912A
:1014E0000F91FF90EF90DF90CF900895809141038E
:1014F00090914203A0914303B0914403892B8A2B1E
:101500008B2B09F484CF0E94340500914103109184
:10151000420320914303309144036C197D098E09E5
:101520009F09061717072807390708F070CF809121
:1015300040030E94D509C0E0CFCF85EEB5CF8091A2
:10154000410390914203A0914303B0914403892B3E
:101550008A2B8B2B09F4AECF0E94340500914103F6
:101560001091420320914303309144036C197D098B
:101570008E099F09061717072807390708F09ACF21
:10158000D6CF91919D938F5FA5CFE091ED02809191
:10159000EC02E81730F4F0E0E15EFC4F808190E06F
:1015A00008958FEF9FEF08959091ED028091EC02E6
:1015B0002FEF3FEF981748F4E92FF0E0E15EFC4F82
:1015C000208130E09F5F9093ED02C90108958091E2
:1015D000EC029091ED02891B990B0895CF92DF9256
:1015E000EF92FF920F931F93CF93DF937C01CB0178
:1015F0008A012091AE02222389F0EB016B01C40E17
:10160000D51ECC15DD0569F06991D701ED91FC91EE
:101610000190F081E02DC7010995F3CF642F0E945E
:101620009009C801DF91CF911F910F91FF90EF902A
:10163000DF90CF900895CF93DF931F92CDB7DEB7A1
:1016400069832091AE022223F9F02091EA02203230
:1016500058F021E030E0FC013383228390E080E009
:101660000F90DF91CF9108958091EB02E82FF0E089
:10167000E155FD4F998190838F5F8093EB028093BA
:10168000EA0281E090E0ECCF61E0CE0101960E9499
:101690009009F7CFCF92DF92EF92FF920F931F93B3
:1016A000CF93DF93FC01C48121E02093AE02C0936D
:1016B000CF021092EB021092EA028485682B8EE131
:1016C00099E00E941B0BD091EA02D13208F092C03F
:1016D0000E9434056B017C0180913F03811165C03C
:1016E00082E080933F0381E080931E038FEF80931D
:1016F0001D0310921C03D0931B03AFEAB2E0E9EF85
:10170000F2E080E0D81385C010921A0380911A038A
:10171000CC0FC82BC0931A0380911903813009F0B4
:101720007CC0109219030E9434056B017C018091EA
:101730001A038093BB008091410390914203A091D2
:101740004303B0914403892B8A2B8B2B99F00E9481
:1017500034050091410310914203209143033091DD
:1017600044036C197D098E099F090617170728077E
:101770003907E0F18091BC0083FDD9CF85EC8093DF
:10178000BC000E9434056B017C0180913F038230D4
:1017900009F445C080911D038F3F61F180911D03C5
:1017A000803241F180911D0325C0809141039091C9
:1017B0004203A0914303B0914403892B8A2B8B2BC6
:1017C00009F48ACF0E94340500914103109142032D
:1017D00020914303309144036C197D098E099F09C0
:1017E000061717072807390708F076CF80914003BE
:1017F0000E94D5091092EB021092EA021092AE02FA
:10180000DF91CF911F910F91FF90EF90DF90CF90DC
:1018100008959D9191938F5F75CF85EEB0CF8091A4
:10182000410390914203A0914303B0914403892B5B
:101830008A2B8B2B09F4A9CF0E9434050091410318
:101840001091420320914303309144036C197D09A8
:101850008E099F09061717072807390708F095CF43
:10186000C5CF90E080E0089523B12095221F222764
:10187000221FFC0126A3822F08958091AF0890912A
:10188000B0080E94340C8111F8CF08954F925F92F6
:101890006F927F92AF92BF92CF92DF92EF92FF92C0
:1018A0000F931F93CF93DF938C01EB01CB84DC84E8
:1018B000ED84FE84A980BA806D817E816A197B09DE
:1018C000072E000C880B990B0E9440292B013C012C
:1018D0006B817C816A197B09072E000C880B990BA0
:1018E0000E9440299B01AC01C301B2010E94A02BC0
:1018F0002B013C01A70196016F85788989899A8916
:101900000E94332B9B01AC01C301B2010E949F29AD
:10191000A70196010E94342B6F83788789879A8765
:101920008CE0FE013796D80101900D928A95E1F77F
:10193000C801DF91CF911F910F91FF90EF90DF9041
:10194000CF90BF90AF907F906F905F904F90089531
:10195000FC0120917C0090819F70207F922B9093BE
:101960007C0090917A00906490937A0080917A0044
:1019700086FDFCCF809178009091790096838583D5
:1019800008950F931F93CF938C01C62F0E944A0B8B
:101990006C2F6460C8010E944A0B6C2F6B7FC801DA
:1019A0000E944A0B83EC90E00197F1F7CF911F91D1
:1019B0000F9108950F931F93CF93DF938C01D62F30
:1019C000C42F607F642B0E94C10C80E1D89FB001BE
:1019D00011246C2BC801DF91CF911F910F910C94B2
:1019E000C10CCF93DF93CDB7DEB728970FB6F8942D
:1019F000DEBF0FBECDBF28E0E7E2F1E0DE011196C9
:101A000001900D922A95E1F7FC012085261708F434
:101A10006FEF70E0660F771F21E030E02C0F3D1F65
:101A2000620F731FFB016081606840E028960FB66B
:101A3000F894DEBF0FBECDBFDF91CF910C94DA0CCE
:101A4000CF93DF93EC0140E061E00E94DA0C8BE37E
:101A50009FE10197F1F78985882331F060E0CE019D
:101A6000DF91CF910C94F10CDF91CF91089541E07B
:101A70000E94DA0C81E090E00895AF92BF92CF927D
:101A8000DF92EF92FF920F931F93CF93DF93CDB727
:101A9000DEB7ADB6BEB68091A6082DB73EB7281BFF
:101AA00031090FB6F8943EBF0FBE2DBF8DB79EB75C
:101AB00001966C01E0907508F12C8091710890916D
:101AC0007208D601FC019F01281B390B2E153F051A
:101AD0001CF421912D93F7CF80917608882359F13A
:101AE00080916D0890916E0828E097FD09C068E626
:101AF00071E00E94192B6DE270E00E94192B262FD5
:101B000080916F089091700868E097FD08C068E6C2
:101B100071E00E94192B6DE270E00E94192BF60112
:101B2000EE0DFF1D90E1699FB0011124262B20834B
:101B3000F70131967F0186010E0D1F1D20917B0854
:101B400030917C084091790850917A08609157084B
:101B5000709158088091770881700E94DA03E80E2E
:101B6000F91E86010E0D1F1D20917F0830918008FF
:101B700040917D0850917E086091590870915A08F3
:101B800080917708869581700E94DA03E80EF91E2D
:101B900086010E0D1F1D209183083091840840910D
:101BA00081085091820860915B0870915C08809177
:101BB000770882FB882780F90E94DA03E80EF91E75
:101BC00086010E0D1F1D20918708309188084091D5
:101BD00085085091860860915D0870915E0880913B
:101BE000770883FB882780F90E94DA03E80EF91E44
:101BF00086010E0D1F1D20918B0830918C0840919D
:101C0000890850918A0860915F08709160088091FE
:101C10007708829581700E94DA03E80EF91E86012A
:101C20000E0D1F1D20918F083091900840918D0856
:101C300050918E08609161087091620880917708D8
:101C400085FB882780F90E94DA03E80EF91E8601D9
:101C50000E0D1F1D2091930830919408409191081A
:101C6000509192086091650870916608809178089B
:101C700081700E94DA03E80EF91E86010E0D1F1D09
:101C800020919708309198084091950850919608B6
:101C900060916308709164088091780886958170DE
:101CA0000E94DA03E80EF91E86010E0D1F1D209119
:101CB0009B0830919C084091990850919A08609136
:101CC0006708709168088091780882FB882780F9FE
:101CD0000E94DA03E80EF91E86010E0D1F1D2091E9
:101CE0009F083091A00840919D0850919E086091F6
:101CF000690870916A088091780883FB882780F9C9
:101D00000E94DA038E0D9F1D8601080F191F209176
:101D1000A3083091A4084091A1085091A2086091B5
:101D20006B0870916C0880917808829581700E9490
:101D3000DA038091B107811105C00E94EA0781E0B2
:101D40008093B1074091A6088091A50850E07A01E0
:101D5000FFEFEF1AFF0A2DB73EB72E193F090FB656
:101D6000F8943EBF0FBE2DBF0DB71EB70F5F1F4FBC
:101D7000EDB7FEB78183B601C80101960E942F2EF0
:101D800080919803A701B80180640E942C060FB6C9
:101D9000F894BEBE0FBEADBEDF91CF911F910F91E3
:101DA000FF90EF90DF90CF90BF90AF900895FB0130
:101DB00001900020E9F73197AF01461B570BDC017A
:101DC000ED91FC910280F381E02D0994CF93DF9394
:101DD000CDEAD8E0682F888199810E94F10C6BE7E9
:101DE00071E088819981DF91CF910C94D70E0F9388
:101DF0001F93809105090E94DD04182F8091060928
:101E00000E94DD04880F991F812B90910B09981770
:101E100051F1E0910B0900910709109108092091F7
:101E2000090930910A0994E0E902F0011124482FD0
:101E3000082E000C550BE42BF52BE15DFE4F908135
:101E4000492F990F550B660B770B400F511F621FDF
:101E5000731F409307095093080960930909709311
:101E60000A0980930B091F910F91089585ED8093C6
:101E7000BC008091410390914203A0914303B09133
:101E800044030796A11DB11D23E0B695A79597952C
:101E900087952A95D1F72091BC0024FD03C01092AC
:101EA0003F030895409141035091420360914303E1
:101EB00070914403452B462B472B69F30097A105EE
:101EC000B10541F02AE22A95F1F700C00197A10976
:101ED000B109E1CF809140030C94D509FF920F9393
:101EE0001F93CF93DF93EC018B01FB01F0800E94E5
:101EF0005D2AF81621F06F2DCE010E94652AF801A7
:101F0000F1802196CE010E945D2AF81621F06F2DF6
:101F1000CE010E94652AC801DF91CF911F910F91D8
:101F2000FF9008950F931F93CF93DF938C01EB01E4
:101F30000E945D2A8883C80101960E945D2A8983D8
:101F4000CE01DF91CF911F910F9108950F931F93B1
:101F5000CF93DF93EC0188819981009759F02A8112
:101F60003B812617370730F081E0DF91CF911F9139
:101F70000F9108958B016F5F7F4F0E94722D009724
:101F800059F0998388831B830A832C813D81232BFD
:101F900059F7FC011082E8CF80E0E7CFCF93DF93C1
:101FA000EC0188819981009711F00E94E92C198237
:101FB00018821D821C821B821A82DF91CF910895A4
:101FC000EF92FF920F931F93CF93DF938C017B01CE
:101FD000EB0109900020E9F72197C61BD70BBE0142
:101FE0000E94A60F811109C0C801DF91CF911F91F6
:101FF0000F91FF90EF900C94CE0FF801D583C4831E
:10200000B70180819181DF91CF911F910F91FF9056
:10201000EF900C94382E0F931F93CF93DF93CDB78F
:10202000DEB762970FB6F894DEBF0FBECDBF8C014E
:10203000CB01F80111821082138212821582148260
:102040004AE0BE016F5F7F4F0E94CD26BE016F5FE9
:102050007F4FC8010E94E00F62960FB6F894DEBF72
:102060000FBECDBFDF91CF911F910F910895EF92D9
:10207000FF920F931F93CF93DF93CDB7DEB7A19756
:102080000FB6F894DEBF0FBECDBF7C01CB01BA0105
:10209000F7011182108213821282158214828E013E
:1020A0000F5F1F4F22E044E00E94AF26009789F0A7
:1020B000BC01C7010E94E00FA1960FB6F894DEBFE5
:1020C0000FBECDBFDF91CF911F910F91FF90EF9089
:1020D0000895C7010E94CE0FEFCFEF92FF920F93AA
:1020E0001F93CF93DF93EC017B01198218821B822F
:1020F0001A821D821C82FB0101900020E9F73197B2
:102100008F01061B170BB8010E94A60F811109C091
:10211000CE01DF91CF911F910F91FF90EF900C9422
:10212000CE0F1D830C83B70188819981DF91CF91F8
:102130001F910F91FF90EF900C94382EFC0180813D
:102140009181009711F00C94E92C0895DF92EF92A1
:10215000FF920F931F93CF93DF9300D000D000D056
:10216000CDB7DEB77B01682F8091AD089091AE08A6
:102170000E94F10C6BE871E0CE0101960E946D1097
:10218000D70114960D911C9101151105D9F000315C
:10219000110510F000E110E0F70160817181FB0191
:1021A000E00FF11FD0801082CE01019661157105FC
:1021B00029F10E94E00FD7018D919C91080F191F02
:1021C000F801D0824D815E8140315105D0F48A0101
:1021D0000F5F1F4FB801CE0101960E94A60F882302
:1021E00089F329813A818D819E816AE871E0820FAD
:1021F000931F0E94382E1E830D83E4CF0E94CE0FC2
:10220000DACF8091AD089091AE0869817A81DC01C6
:10221000ED91FC910280F381E02D0995CE010196AC
:102220000E949E1026960FB6F894DEBF0FBECDBF5B
:10223000DF91CF911F910F91FF90EF90DF90089564
:102240000F931F93CF93DF93CDB7DEB72A970FB6C7
:10225000F894DEBF0FBECDBFDC0112964C911297F1
:10226000FB01248135814217130609F03FC08C0120
:1022700091818081813AE1F59130A9F59381933084
:1022800099F482818630E1F48FEC97E00197F1F7C1
:1022900000C0000008531C4F45E050E0B80180E446
:1022A0000E94F005D8011C9281E02A960FB6F8949E
:1022B000DEBF0FBECDBFDF91CF911F910F9108956B
:1022C000873091F789832FEF3FEF3B832A838EE09E
:1022D0008C839D8345E050E0BE016F5F7F4F80E4BB
:1022E0000E94F005E1CF81E09330F9F280E0DDCF8C
:1022F0008132E1F79B3031F48281FD01E65EFB4FD4
:102300008083D2CF9A3029F48281FD01E55EFB4FB4
:10231000F7CF993059F78381833031F686819781E1
:10232000892B39F470E060E0CE0101960E947607B7
:10233000BBCF8281853009F0B7CF64E070E0CE0179
:1023400001960E94760786E0F801E853FC4F8083EF
:10235000F80182858E3069F1828591E0980F92872D
:102360002FE3D8011A969C91F801299FE00DF11DE9
:1023700011249385992341F0F80192859E3020F431
:1023800092859F5F9287EDCF91E0F8012FE3829FC6
:10239000E00DF11D11249387F801E753FC4F808372
:1023A0008081D801A653BC4F811105C082E08C9377
:1023B0007BCF80E0F1CF21E02C9380813FE3839FAE
:1023C000C0011124F801E80FF91F3B96DF011D92AF
:1023D0003A95E9F7800F911FFC012387F801E55337
:1023E000FC4F80819181CF97918380835DCF81E085
:1023F00080939F0382E793E0909361078093600747
:1024000008951F920F920FB60F9211242F933F93AE
:102410008F939F93AF93BF938091F1029091F202BB
:10242000A091F302B091F4023091F00223E0230F67
:102430002D3758F50196A11DB11D2093F002809310
:10244000F1029093F202A093F302B093F402809110
:10245000F5029091F602A091F702B091F802019670
:10246000A11DB11D8093F5029093F602A093F7028F
:10247000B093F802BF91AF919F918F913F912F91AF
:102480000F900FBE0F901F90189526E8230F02960D
:10249000A11DB11DD2CF1F920F920FB60F92112422
:1024A0002F933F934F935F936F937F938F939F935C
:1024B000AF93BF93EF93FF93E0911501F091160155
:1024C0000995FF91EF91BF91AF919F918F917F916E
:1024D0006F915F914F913F912F910F900FBE0F9091
:1024E0001F9018951F920F920FB60F9211242F93E1
:1024F0003F934F935F936F937F938F939F93AF938C
:10250000BF93EF93FF93E0911301F09114010995AC
:10251000FF91EF91BF91AF919F918F917F916F91BB
:102520005F914F913F912F910F900FBE0F901F9091
:1025300018951F920F920FB60F9211242F933F936D
:102540004F935F936F937F938F939F93AF93BF93BB
:10255000EF93FF93E0911101F09112010995FF9122
:10256000EF91BF91AF919F918F917F916F915F910B
:102570004F913F912F910F900FBE0F901F90189584
:102580001F920F920FB60F9211242F933F934F93E8
:102590005F936F937F938F939F93AF93BF93EF93CB
:1025A000FF93E0910F01F09110010995FF91EF91D8
:1025B000BF91AF919F918F917F916F915F914F915B
:1025C0003F912F910F900FBE0F901F9018951F9263
:1025D0000F920FB60F9211242F933F934F935F9357
:1025E0006F937F938F939F93AF93BF93EF93FF93DB
:1025F000E0910D01F0910E010995FF91EF91BF91CE
:10260000AF919F918F917F916F915F914F913F918A
:102610002F910F900FBE0F901F9018951F920F9241
:102620000FB60F9211248F939F938091E1009091A8
:10263000E100937F9093E10083FF0FC01092E900C7
:1026400091E09093EB001092EC0092E39093ED00F8
:102650001092E50298E09093F00082FF22C093E090
:102660009093E9009091F200992319F09AE39093E6
:10267000E8009091E202992341F09091E20291509A
:102680009093E202911101C05D989091E10299232B
:1026900041F09091E10291509093E102911101C0BB
:1026A000289884FF18C08091E2008E7E816080931C
:1026B000E2008091E1008F7E8093E1008091E3024F
:1026C0008E7E80618093E3029F918F910F900FBE69
:1026D0000F901F90189580FFF7CF8091E2008E7EBB
:1026E00080618093E2008091E1008E7E8093E10022
:1026F0008091E3028E7E8160E5CF1F920F920FB62C
:102700000F921124CF92DF92EF92FF920F931F93BB
:102710002F933F934F935F936F937F938F939F93E9
:10272000AF93BF93EF93FF93CF93DF93CDB7DEB714
:102730006C97DEBFCDBF1092E9008091E80083FF67
:1027400025C068E0CE0145960E94690782EF80931C
:10275000E8008D8987FF39C09091E80090FFFCCF99
:10276000982F907609F034C19E894F89588D2F8912
:10277000F88C911131C0803861F58091E40280932A
:10278000F1001092F1008EEF8093E8006C960FB686
:10279000F894DEBF0FBECDBFDF91CF91FF91EF91D7
:1027A000BF91AF919F918F917F916F915F914F9169
:1027B0003F912F911F910F91FF90EF90DF90CF905D
:1027C0000F900FBE0F901F9018959EEF9093E8000A
:1027D000C7CF1092F100D5CF913059F48111D3CFEA
:1027E0004130510581F68091E4028D7F8093E402AF
:1027F000CACF933049F48111C6CF4130510519F643
:102800008091E4028260F2CF953041F48091E8003B
:1028100080FFFCCF20682093E300B5CF963009F00D
:10282000A9C00B8D1C8D22E01092E9001092DF02EE
:102830001092DE02F2122EC01092DD021092DC0223
:102840000E9477081F8299E09983FA8291E09E8323
:1028500090EA98879AEF99872091DE023091DF0203
:10286000275F3F4F3C832B838D831092E9001092AA
:10287000DF021092DE021093DD020093DC0249E0D9
:1028800050E0BE016F5F7F4F80E00E94F0050E9424
:10289000770879CF1093DD020093DC020E94D607FF
:1028A000DC0112960D911C910115110509F44BC123
:1028B000D801ED91FC910480F581E02DBE016B5EA5
:1028C0007F4FC8010995009709F038C1F8010085CC
:1028D0001185EACFF3E0FF120EC08F89882309F437
:1028E00040C0823061F440E86DE08AE092E00E94EE
:1028F000BD05811148CF81E28093EB0047CF813045
:1029000029F440E86BE08EEF91E0F1CF833099F746
:102910000E94D607DC011296ED90FC908E010F5FAD
:102920001F4F6801E114F10479F0D701ED91FC919A
:102930000680F781E02DB801C7010995080F111D28
:10294000F701E084F184EECFD8011C92F6010190EA
:102950000020E9F73197BF016C197D0940E0C601FD
:10296000C6CF68EE71E0FB01449150E080E80E9420
:10297000F00509CF973009F4BECF983021F481E0FB
:102980008093F10000CF993009F0FDCE837009F0FB
:10299000B2CFE8E1F1E081E031E096E3219122233A
:1029A00071F08093E9003093EB00DF0111972C91D7
:1029B0002093EC009093ED008F5F873079F78EE7DE
:1029C0008093EA001092EA008F898093E502DBCEC3
:1029D0008B8D9C8D1092E9001092DF021092DE0226
:1029E0009093DD028093DC02898D81118CC08E89E9
:1029F0009D89913A49F4813209F07DCF47E050E05A
:102A000065E071E080E0B3CF913209F074CF83329A
:102A100069F48F89988DB0E0A0E0809300019093D5
:102A20000101A0930201B0930301ADCE803239F4CD
:102A300067E070E085E091E00E947607A4CE8232E4
:102A400009F0A1CE8F8980930C01EEEFFFE785910D
:102A500094918B3F9C4D51F1E0E0F8E080910501AD
:102A600090910601A0910701B0910801803B94402C
:102A7000A105B105F1F480910C0180FD1AC0EE3F73
:102A80008AE0F80789F587E797E79183808380914B
:102A900060008093E00288E19BE00FB6F894A8956F
:102AA000809360000FBE909360006DCEEEEFFAE071
:102AB000D5CF808191818737974709F064CEA8955B
:102AC000809160008861809360008091E002809333
:102AD0006000EE3F2AE0F20789F08091FE0A9091B3
:102AE000FF0A918380834FCE808191818737980739
:102AF00051F29093FF0A8093FE0AC5CF1092FF0A0D
:102B00001092FE0A40CE0E94D607DC0112960D916B
:102B10001C910115110509F4EECED801ED91FC913F
:102B20000190F081E02DBE016B5E7F4FC8010995D9
:102B3000811129CEF80100851185EBCF18161906F1
:102B40000CF421CED8CEF1E0FF12C4CE6CEE71E0D1
:102B50000ACF1F920F920FB60F9211242F933F931B
:102B60004F935F936F937F938F939F93AF93BF9395
:102B7000EF93FF938091B900887F803609F44AC0B3
:102B8000F0F5883209F4A7C018F5803109F49BC02C
:102B9000B8F4882309F4F9C0883009F494C0FF918F
:102BA000EF91BF91AF919F918F917F916F915F91C5
:102BB0004F913F912F910F900FBE0F901F9018953E
:102BC000883109F488C0803251F780931D0314C006
:102BD000803409F49DC040F48033B9F38833F9F6AA
:102BE00080931D0385ECB0C0803509F485C088351D
:102BF00009F496C0883499F60E94360FD0CF8839F0
:102C000009F48CC038F5883729F050F4883611F073
:102C1000803729F683E080933F031092AD0257C0BE
:102C2000883809F47BC0803919F0803809F0B7CFB3
:102C30008091AD02803208F071C0E091AD0281E078
:102C40008E0F8093AD028091BB00F0E0E357FD4F03
:102C500080833DC0803B39F0E0F4803A09F479C0CC
:102C6000883A09F09CCF84E080933F0310928C0255
:102C700010928B02E091E602F091E70209958091B3
:102C80008B0281110FC081E080938B0210926B0246
:102C900009C0803C09F4A6CF883C09F4A3CF883B47
:102CA00009F07DCFE0918C0281E08E0F80938C0241
:102CB000F0E0E559FD4F80818093BB0090918C023C
:102CC00080918B0229C080911A038093BB0085EC10
:102CD0008093BC0064CF90911C0380911B039817D4
:102CE00058F5E0911C0381E08E0F80931C03F0E007
:102CF000E750FD4F8081E9CFE0911C0381E08E0F0A
:102D000080931C038091BB00F0E0E750FD4F80836F
:102D100090911C0380911B039817C8F285E8D8CFC7
:102D2000E0911C0381E08E0F80931C038091BB0017
:102D3000F0E0E750FD4F808380911E0381115CCF4E
:102D400081E08093190384EA8093BC0010923F03D2
:102D500026CF85EC8093BC0010923F038091AD029A
:102D6000803230F4E091AD02F0E0E357FD4F108285
:102D70006091AD0270E0E091E802F091E9028DE827
:102D800092E009951092AD020ACF10921D0334CF44
:102D90001F920F920FB60F9211240F931F932F9330
:102DA0003F934F935F936F937F938F939F93AF93D3
:102DB000BF93EF93FF938091B107811105C00E94EB
:102DC000EA0781E08093B107809198038F5F0E94AA
:102DD0005007882309F43DC08091980340E450E0F7
:102DE0006BE677E08F5F0E94DC0690916C07E091C4
:102DF0006B07E150ED3068F5F0E0EF5FF84E0C94B2
:102E00002D2B0E173C175B179F17BE17CB172917D3
:102E100029172917DE17541879189C1820916E0766
:102E200030916F074FE3949FF0011124EB56FC4F54
:102E300037AF26AF80917707838F80917807848F93
:102E400080916D07848780917407878780917607CA
:102E5000828FFF91EF91BF91AF919F918F917F9161
:102E60006F915F914F913F912F911F910F910F9013
:102E70000FBE0F901F90189520916D0730916E072F
:102E80008FE3989FF0011124EB56FC4F318B208B80
:102E900080916F0790917007938B828B809171075F
:102EA00090917207978B868B80917507909176072A
:102EB000958B848BCECF80916D0720916E073091DA
:102EC0006F07AFE39A9FF0011124DF014CE0849F6C
:102ED000A00DB11D1124AB56BC4F5F963C932E93B1
:102EE0005E97809170079091710791969C938E9355
:102EF0009097809172079091730793969C938E930D
:102F00009297809174079091750795969C938E93F4
:102F10009497809176079091770797969C938E93DC
:102F20009697809178079091790799969C938E93C4
:102F30009897EB56FC4F858D8F5F858F8ACF2091B8
:102F40006D0730916E078FE3989FF0011124EB56C7
:102F5000FC4F318F208F80916F079091700796877B
:102F60008587809171079091720797AB86AB8091AE
:102F700073079091740795AF84AF6BCF20916D0765
:102F800030916E07AFE39A9FF0011124EB56FC4F8E
:102F9000318F208F5ECF20916D0730916E07BFE398
:102FA0009B9FF0011124EB56FC4F31AF20AF809175
:102FB0006F079091700793AF82AF4BCF10916D0761
:102FC000113009F045C080916E078823D9F02FE3B6
:102FD000929FD0011124AB56BC4FDE964D915C916F
:102FE000DF97849F9001859F300D1124DF963C93DD
:102FF0002E93DE978F3F31F42FEF3FE7DF963C9320
:103000002E93DE979F3008F024CF3FE3939FF0018B
:103010001124EB56FC4F82E08387DF01A05CBF4F99
:1030200011961C921E928FB7F8940091F1021091A4
:10303000F2022091F3023091F4028FBFF8960287DA
:1030400013872487358716861786108A118A01CF41
:10305000123089F48FE993E00E94A808E0916C0790
:10306000EF3008F0F6CE4FE3E49FF0011124EB5669
:10307000FC4F1387D2CF133009F0EBCE9F3008F00E
:10308000E8CE8FE3989FF0011124EB56FC4F838527
:103090008D7F83878091600790916107CF96909391
:1030A000610780936007D5CE9F3F81F481E08093D4
:1030B0009F03E0EAF3E081EB93E0DF019C011D92C6
:1030C00021503040E1F782E793E0E9CF9F3008F0EC
:1030D000C0CE3FE3939FD0011124AB56BC4F1B964B
:1030E0001C9280919F03981708F0B3CE90939F0392
:1030F000B0CE913031F480915B07826080935B07A2
:10310000A8CE923021F480915B078D7FF7CF93306A
:1031100029F48FE993E00E94A8089BCE943031F205
:10312000953021F481E08093510793CE963009F0D9
:1031300090CE109251078DCE909368078ACEFC01F5
:103140006083128211828FEF93E0948383831682CF
:1031500015821782108611861286138614861586AC
:10316000168680E090E0A8ECB2E48787908BA18B74
:10317000B28B80E480937C0087E880937A00089586
:10318000EF92FF920F931F93CF93109248031092E8
:10319000470388EE93E0A0E0B0E08093490390936A
:1031A0004A03A0934B03B0934C032BE531E03093DB
:1031B0004603209345032FEF3FEF309352032093B4
:1031C00051031092210910922009809322099093B3
:1031D0002309A0932409B09325098DE691E09093EB
:1031E0001F0980931E098EE199E090934B0980930B
:1031F0004A0905E019E010920509C1E0C0930609EB
:1032000010920709109208091092090910920A09F0
:1032100010920B09109219091092180980E090E0A1
:10322000A0E8BFE380931A0990931B09A0931C099F
:10323000B0931D0980E090E0A7E0B4E48093140906
:1032400090931509A0931609B093170980E090E0B8
:10325000A7E0B4EC8093100990931109A093120990
:10326000B093130961E08EED98E00E949F1860E032
:1032700081EF98E00E949F1867E088EB98E00E9439
:103280009F1866E08BEC98E00E949F182EED38E0C6
:103290003093B0082093AF0888EB98E09093B20881
:1032A0008093B1081093B4080093B3084CEA58E037
:1032B0005093B6084093B5081092B7084AE259E017
:1032C0005093500840934F08309352082093510870
:1032D0009093540880935308109356080093550810
:1032E00010927208109271081092750810927A0864
:1032F000109279088FEF93E090937C0880937B087D
:1033000010927E0810927D089093800880937F0829
:103310001092820810928108909384088093830809
:1033200010928608109285089093880880938708E9
:1033300010928A081092890890938C0880938B08C9
:1033400010928E0810928D089093900880938F08A9
:103350001092920810929108909394088093930889
:103360001092960810929508909398088093970869
:1033700010929A081092990890939C0880939B0849
:1033800010929E0810929D089093A00880939F0829
:103390001092A2081092A1089093A4088093A30809
:1033A000C093AB08C093A50890E290937408109264
:1033B000760888E1809377088CE18093780835E07F
:1033C0003093B907C093BA0789E08093BB0728E020
:1033D0002093BC0721EA2093BD07C093BE078093CA
:1033E000BF07C093C00745E84093C107C093C20719
:1033F0002093C3071092C4073093C5078093C60774
:1034000049E14093C707C093C80749E24093C90701
:103410009093CA0745E14093CB071092CC0745E251
:103420004093CD07C093CE0775E77093CF07C09345
:10343000D00765E96093D1079093D20795E5909303
:10344000D3071092D40795E69093D5071092D6072C
:1034500051E85093D70792E09093D8073093D9075B
:10346000C093DA078093DB07C093DC0706E1009383
:10347000DD07C093DE0710E81093DF07B6E2B093D4
:10348000E007AFEFA093E107FFE7F093E207709347
:10349000E307E0E1E093E4076093E5079093E60734
:1034A0002093E7071092E8078093E90743E34093EE
:1034B000EA078093EB0744E34093EC075093ED0752
:1034C0009093EE0740EC4093EF073093F007909312
:1034D000F1070093F207C093F3071093F407B0933A
:1034E000F507A093F607F093F7077093F807E093BA
:1034F000F9076093FA0733E03093FB072093FC074A
:103500001092FD078093FE0724EC2093FF07809321
:10351000000825EC209301088093020888EC809332
:1035200003085093040890930508409306084093BD
:1035300007088FE490E00E944D2C7C018FE4E9EBBA
:10354000F7E0D70101900D928A95E1F78BE090E0CA
:103550000E944D2C8C01FC0111821082F382E282C8
:1035600081E992E0958384838FE490E0978386835A
:103570008BEC94E09187808712868091B10781114E
:1035800004C00E94EA07C093B107E091AB07F09135
:10359000AC07309709F080C01093AC070093AB07DD
:1035A000F8018681978120853185820F931F2091B4
:1035B000AD073091AE07820F931F9093AE078093B3
:1035C000AD0790917408892F86958695869597709A
:1035D00009F069C080937508C09175088C2F90E040
:1035E000009711F481E090E00E944D2C90937208B6
:1035F0008093710881E090917608911101C080E07C
:10360000C65F8C0F8093A608109258081092570836
:1036100010925A081092590810925C0810925B0898
:1036200010925E0810925D081092600810925F0878
:103630001092620810926108109264081092630858
:103640001092660810926508109268081092670838
:1036500010926A081092690810926C0810926B0818
:103660008FEF9FEF90936E0880936D089093700892
:1036700080936F0890E080E0209175082817190664
:10368000A1F09CF0E0917108F0917208E80FF91F29
:1036900010820196F1CFFC01808191810097D9F7CA
:1036A000118300837DCF8F5F95CFCF911F910F91B5
:1036B000FF90EF900895CF93DF93CDB7DEB7C45559
:1036C000D1090FB6F894DEBF0FBECDBF789484B594
:1036D000826084BD84B5816084BD85B5826085BD0E
:1036E00085B5816085BD80916E00816080936E009C
:1036F000109281008091810082608093810080918E
:10370000810081608093810080918000816080933E
:10371000800080919100826080939100809191005F
:1037200081608093910080919000816080939000EF
:103730008091C10084608093C1008091C10082604B
:103740008093C1008091C10081608093C10080910D
:10375000C30081608093C3008091C0008260809329
:10376000C0008091C20081608093C20080917A0085
:10377000846080937A0080917A00826080937A00DE
:1037800080917A00816080937A0080917A008068CD
:1037900080937A001092E5021092E4021092E30204
:1037A0008091D70081608093D70080EA8093D80011
:1037B00089B5806189BD89B5826089BD09B400FE83
:1037C000FDCF61E070E080E090E00E9459058091BB
:1037D000D8008F7C80618093D8008091E000807F4A
:1037E0008093E0008091E1008E7E8093E1008DE087
:1037F0008093E200559A209A5D9828988091050957
:10380000882309F47CC5813009F47BC5823009F432
:103810007AC5833009F479C5873019F484E00E94B1
:10382000310480910609882309F471C5813009F4B7
:1038300070C5823009F46FC5833009F46EC58730D6
:1038400019F484E00E943104BE01675E7F4F90E06E
:1038500080E00E94920FE091AF08F091B008898D4E
:103860009A8D94838383C12CD12C28ECE22E22E400
:10387000F22EC786D08AE18AF28ABE01675E7F4F48
:1038800080E190E00E94920FE091AF08F091B008C3
:10389000898D9A8D92838183138614861586168668
:1038A000BE01675E7F4F80E290E00E94920FE09140
:1038B000AF08F091B008898D9A8D978B868BC2A244
:1038C000D3A2E4A2F5A2BE01675E7F4F80E390E041
:1038D0000E94920FE091AF08F091B008898D9A8D07
:1038E000958B848B168E178E10A211A2BE01675E77
:1038F0007F4F80E690E00E94920FE091B108F09136
:10390000B208898D9A8D94838383C786D08AE18A91
:10391000F28ABE01675E7F4F80E790E00E94920FBF
:10392000E091B108F091B208898D9A8D92838183DC
:103930001386148615861686BE01675E7F4F80E863
:1039400090E00E94920FE091B108F091B208898D49
:103950009A8D978B868BC2A2D3A2E4A2F5A2BE0158
:10396000675E7F4F80E990E00E94920FE091B1087E
:10397000F091B208898D9A8D958B848B168E178E57
:1039800010A211A280E490E00E945D2A8D8781E45C
:1039900090E00E945D2A8E8782E490E00E945D2A7A
:1039A0008F8783E490E00E945D2A888BE091B308C2
:1039B000F091B4088D859E85AF85B889858B968BEF
:1039C000A78BB08F8DE090E00E944D2C8C01DC0124
:1039D00013961C921E92129783E491E011969C9389
:1039E0008E9319961C92199787E214968C931497CC
:1039F00080E11A968C931A9782E01B968C931B9702
:103A00001C961C921093AE080093AD081092ED0224
:103A10001092EC021092EB021092EA020E94B70997
:103A20008CE895E09093E7028093E6028DE895E0BC
:103A30009093E9028093E802F80115828385823031
:103A400010F098E09583D80118968C9362E370E0AB
:103A500080E090E00E945905F8016485C8010E9449
:103A60004A0B68EE73E080E090E00E94590560E345
:103A7000C8010E94C10C8BE4E82E86E4F82EC70131
:103A80000197F1F760E3C8010E94C10CC7010197DB
:103A9000F1F760E3C8010E94C10C83E592E0019751
:103AA000F1F760E2C8010E94C10CD80115966C9133
:103AB000606240E0C8010E94DA0C84E0F80186836D
:103AC00040E06CE0C8010E94DA0CC8010E94200DA1
:103AD00082E0D80117968C9340E066E0C8010E940E
:103AE000DA0C40E062E0C8010E94DA0C8BE39FE14F
:103AF0000197F1F78091AD089091AE0828E0FC01A4
:103B0000248760E00E944A0B6CE871E0CE010196C8
:103B10000E946D10BE016F5F7F4F80E00E94A61073
:103B2000CE0101960E949E101092ED021092EC02BE
:103B30001092EB021092EA020E94B7098CE895E01D
:103B40009093E7028093E6028DE895E09093E90276
:103B50008093E80227982F9A20E030E8309382087B
:103B6000209381088FEF9FE79093840880938308C8
:103B7000309386082093850890938808809387085F
:103B800030938A082093890890938C0880938B083F
:103B900030939A082093990890939C0880939B08EF
:103BA00030939E0820939D089093A00880939F08CF
:103BB0003093A2082093A1089093A4088093A308AF
:103BC000F89410929000109291001092950010922B
:103BD00094008FE891E090939900809398008091F1
:103BE0009100886080939100809191008260809321
:103BF000910080917100826080937100789410929E
:103C000073080E943D0D412C512C98EC692E92E4D2
:103C1000792E8091EE029091EF029C012F5F3F4F31
:103C200065963FAF2EAF65973093EF022093EE027B
:103C300020FD8EC26091510870915208CE01CD9640
:103C40000E94460CEDACFEAC0FAD21961FAD219746
:103C50002296AFAC22972396BFAC23972496CFAC85
:103C600024972596DFAC259726962FAC2697279686
:103C70003FAC279728968FAC289729969FAC299719
:103C80009101A401B701C8010E94482C18160CF438
:103C900046C39701A801B501C6010E94482C181619
:103CA0000CF440C39501A601B101C4010E94332B5D
:103CB0009B01AC0160E07FEF8FE797E40E94A02BAF
:103CC00063966CAF7DAF8EAF9FAF63979501A601F2
:103CD000B701C8010E94332B9B01AC0163966CAD08
:103CE0007DAD8EAD9FAD63970E949F2920E030E0AF
:103CF00040E057E40E94332B0E94122C70935E0820
:103D000060935D088091730881110E943D0D609160
:103D10005108709152086D5E7F4FCE01C1960E948E
:103D2000460CE9A8FAA80BA91CA9ADA8BEA8CFA863
:103D3000D8AC29AC3AAC8BAC9CAC9101A401B701D6
:103D4000C8010E94482C18160CF4EFC29501A60178
:103D5000B701C8010E94392987FDEAC29501A60171
:103D6000B101C4010E94332B9B01AC0160E07FEFE5
:103D70008FE797E40E94A02B63966CAF7DAF8EAF68
:103D80009FAF63979501A601B701C8010E94332B2D
:103D90009B01AC0163966CAD7DAD8EAD9FAD63971D
:103DA0000E949F2920E030E040E057E40E94332B3E
:103DB0000E94122C7093600860935F0880917308D2
:103DC00081110E943D0D80915108909152080E94EE
:103DD000340C909174088111AEC2E0914F08F091BB
:103DE000500880818111A7C2992361F0E091710888
:103DF000F091720880818E7F808380917308811199
:103E00000E943D0D6091530870915408CE01859633
:103E10000E94460CEDA0FEA00FA118A5A9A4BAA46B
:103E2000CBA4DCA42DA43EA48FA498A82DEC3CEC3C
:103E30004CEC5DE3B501C6010E94342B9701A8014B
:103E40000E94482C87FD02C07501860120E030E009
:103E500040E05FE3B101C4010E94332B9701A80148
:103E60000E94392918160CF070C29701A801B101FF
:103E7000C4010E94392987FD6BC29701A801B501D1
:103E8000C6010E94482C18160CF465C29501A601C3
:103E9000B101C4010E94332B9B01AC0160E07FEFB4
:103EA0008FE797E40E94A02B63966CAF7DAF8EAF37
:103EB0009FAF63979501A601B701C8010E94332BFC
:103EC0009B01AC0163966CAD7DAD8EAD9FAD6397EC
:103ED0000E949F2920E030E040E057E40E94332B0D
:103EE0000E94122C70936808609367088091730891
:103EF00081110E943D0D60915308709154086D5ED0
:103F00007F4FCE0149960E94460CE98CFA8C0B8DAE
:103F10001C8DAD8CBE8CCF8CD8A029A03AA08BA0D4
:103F20009CA020E030E040E05FE3B501C6010E94C4
:103F3000342B9B01AC01B701C8010E943929181626
:103F400014F0750186012AE037ED43E25CE3B1012C
:103F5000C4010E94332B9701A8010E943929181629
:103F60000CF0FCC19701A801B101C4010E943929DC
:103F700087FDF7C19701A801B501C6010E94482C31
:103F800018160CF4F1C19501A601B101C4010E94FB
:103F9000332B9B01AC0160E07FEF8FE797E40E9439
:103FA000A02B63966CAF7DAF8EAF9FAF63979501EB
:103FB000A601B701C8010E94332B9B01AC01639697
:103FC0006CAD7DAD8EAD9FAD63970E949F2920E0C3
:103FD00030E040E057E40E94332B0E94122C709393
:103FE0006A08609369088091730881110E943D0DF1
:103FF00001E010E0802F90917408E0914F08F0915B
:104000005008E00FF11F20812111B1C1091708F5F7
:10401000E02FE695E695E6952091710830917208BB
:10402000E20FF32FF11D877021E030E040E050E017
:1040300004C0220F331F441F551F8A95D2F7922FB9
:1040400090958081892380838091730881110E94DB
:104050003D0D0F5F1F4F0032110561F600915508AD
:1040600010915608D80112966D917D918D919C9179
:1040700015970E9440299B01AC01F801658976895A
:104080008789908D0E949F29D80117966D937D9303
:104090008D939C931A978CE0F8013796DE011D965C
:1040A00001900D928A95E1F7ED84FE840F851889C1
:1040B000A988BA88CB88DC882D883E888F88988C20
:1040C0009701A801B101C4010E94392987FD6DC182
:1040D0009701A801B501C6010E94482C18160CF4DE
:1040E00067C19501A601B101C4010E94332B9B0158
:1040F000AC0160E07FEF8FE797E40E94A02B63960E
:104100006CAF7DAF8EAF9FAF63979501A601B701EE
:10411000C8010E94332B9B01AC0163966CAD7DAD51
:104120008EAD9FAD63970E949F2920E030E040E074
:1041300057E40E94332B0E94122C70936C086093FA
:104140006B088091730881110E943D0D0E943D0D06
:1041500065968EAD9FAD659764E170E00E94052B7A
:10416000892B81F48EED98E00E94A80C81EF98E0F5
:104170000E94A80C88EB98E00E94A80C8BEC98E0B9
:104180000E94A80C65968EAD9FAD659768EC70E0B7
:104190000E94052B892B09F0BAC162E088E00E94D9
:1041A000F6091092ED028093EC0280914A099091F9
:1041B0004B09DC01ED91FC910084F185E02D09951E
:1041C0000297E9F580914A0990914B09DC01ED9144
:1041D000FC910284F385E02D09958C0180914A09B8
:1041E00090914B09DC01ED91FC910284F385E02D67
:1041F0000995EAE2F9E030E020E01127A801022E5B
:1042000002C0559547950A94E2F7417041932F5F9C
:104210003F4F2830310591F7E2E3F9E030E020E04C
:104220009927AC01022E02C0559547950A94E2F7F2
:10423000417041932F5F3F4F2830310591F762E085
:1042400089E00E94F6091092ED028093EC028091C1
:104250004A0990914B09DC01ED91FC910084F185B4
:10426000E02D09950297E9F580914A0990914B0953
:10427000DC01ED91FC910284F385E02D09958C0120
:1042800080914A0990914B09DC01ED91FC910284E7
:10429000F385E02D0995EAE3F9E030E020E011270D
:1042A000A801022E02C0559547950A94E2F7417085
:1042B00041932F5F3F4F2830310591F7E2E4F9E059
:1042C00030E020E09927AC01022E02C055954795B9
:1042D0000A94E2F7417041932F5F3F4F2830310538
:1042E00091F780910401813009F465C008F426C576
:1042F000833009F40CC183E08093040108C182E09B
:104300008ECA83E08CCA81E08ACA80E088CA82E0D3
:1043100099CA83E097CA81E095CA80E093CA710187
:104320008401C0CC75018601BDCC7101840116CD1C
:104330007501860113CD992309F464CDE0917108CC
:10434000F09172088081816057CD7101840195CD13
:10435000710184019BCD7501860198CD71018401A5
:1043600009CE710184010FCE750186010CCE0917AB
:1043700008F06FCEE02FE695E695E695209171085E
:1043800030917208E20FF32FF11D877021E030E0C9
:1043900040E050E004C0220F331F441F551F8A9590
:1043A000D2F7C9012081822B4ECE7101840199CEB2
:1043B0007501860196CEE091B708EB3008F0ACC4E9
:1043C000F0E0EB51FE4D0C942D2BF0215622C7222C
:1043D0004723A52318247E24F4246325C7252F26EC
:1043E0008091AF089091B0080E94340C8823C1F1ED
:1043F0000E943D0CE091B308F091B4081282138240
:10440000148215826DE971E0CE0101960E946D1053
:10441000BE016F5F7F4F80E00E94A610CE01019623
:104420000E949E10E091B308F091B40862817381FC
:1044300084819581CE0101960E940B10BE016F5FB1
:104440007F4F81E00E94A610CE0101960E949E102F
:10445000BFEFE9E6F8E1B150E040F040E1F7EAC033
:1044600060E08091AD089091AE080E94F10C6EEA78
:1044700071E08091AD089091AE080E94D70EE09156
:10448000B308F091B4086281738184819581CE0173
:1044900001960E940B10BE016F5F7F4F81E00E946A
:1044A000A610CE0101960E949E102EC06AEB71E00C
:1044B000CE0101960E946D10BE016F5F7F4F80E0BC
:1044C0000E94A610CE0101960E949E1061E080918C
:1044D000AD089091AE080E94F10C00E18091AF0808
:1044E0009091B0080E94340C182F8823C1F00E94CC
:1044F0003D0C80E00E94E60E81E00E94E60E809175
:10450000B7088F5F8093B70811E010930401E0E0D3
:10451000F0E0EF2B09F47DCB0E9400007ACB6BEC2E
:1045200071E08091AD089091AE080E94D70E2FEFF8
:1045300033EC49E0215030404040E1F700C000003A
:10454000015061F68091AD089091AE080E94200D57
:1045500060E08091AD089091AE080E94F10C6DEC86
:1045600071E08091AD089091AE080E94D70E5FEF88
:1045700089E698E1515080409040E1F700C000008A
:104580008091AD089091AE080E94200DBECF809121
:10459000AF089091B0080E94340C882309F44DC0F4
:1045A0000E943D0C6DE971E0CE0101960E946D10F4
:1045B000BE016F5F7F4F80E00E94A610CE01019682
:1045C0000E949E106091AF087091B008CE010196D4
:1045D0000E94460C49815A816B817C81CE01875BA8
:1045E0009F4F0E943710BE01675B7F4F81E00E94A2
:1045F000A610CE01875B9F4F0E949E10E091AF08EE
:10460000F091B00885819681948383834786508A90
:10461000618A728A9A838983BE016F5F7F4F90E0BF
:1046200080E00E946E0FAFEFB9E6E8E1A150B04024
:10463000E040E1F700C000005CCF60E08091AD0891
:104640009091AE080E94F10C6EED71E08091AD0882
:104650009091AE080E94D70E6091AF087091B0089B
:10466000CE0101960E94460C49815A816B817C8162
:10467000CE01875B9F4F0E943710BE01675B7F4F63
:1046800081E00E94A610CE01875B9F4F0CCF8091E6
:10469000AF089091B0080E94340C882309F44BC0F5
:1046A0000E943D0C6DE971E0CE0101960E946D10F3
:1046B000BE016F5F7F4F80E00E94A610CE01019681
:1046C0000E949E106091AF087091B008CE010196D3
:1046D0000E94460C49815A816B817C81CE01875BA7
:1046E0009F4F0E943710BE01675B7F4F81E00E94A1
:1046F000A610CE01875B9F4F0E949E10E091AF08ED
:10470000F091B00885819681928381831386148607
:10471000158616869A838983BE016F5F7F4F80E17D
:1047200090E00E946E0FFFEF29E638E1F150204043
:104730003040E1F77FCF60E08091AD089091AE0806
:104740000E94F10C69EE71E081CF8091AF089091E9
:10475000B0080E94340C882309F44DC00E943D0C1F
:104760006DE971E0CE0101960E946D10BE016F5F90
:104770007F4F80E00E94A610CE0101960E949E10FD
:104780006091AF087091B0086D5E7F4FCE010196C9
:104790000E94460C49815A816B817C81CE01875BE6
:1047A0009F4F0E943710BE01675B7F4F81E00E94E0
:1047B000A610CE01875B9F4F0E949E10E091AF082C
:1047C000F091B008808D918D978B868B42A253A279
:1047D00064A275A29A838983BE016F5F7F4F80E2D6
:1047E00090E00E946E0F4FEF59E688E14150504033
:1047F0008040E1F71FCF60E08091AD089091AE0856
:104800000E94F10C64EF71E08091AD089091AE08C8
:104810000E94D70E61E08091AD089091AE080E9491
:10482000F10C6091AF087091B0086D5E7F4F18CFAA
:104830008091AF089091B0080E94340C882309F44D
:104840004DC00E943D0C6DE971E0CE0101960E94C1
:104850006D10BE016F5F7F4F80E00E94A610CE01F9
:1048600001960E949E106091AF087091B0086D5E35
:104870007F4FCE0101960E94460C49815A816B817F
:104880007C81CE01875B9F4F0E943710BE01675B22
:104890007F4F81E00E94A610CE01875B9F4F0E9450
:1048A0009E10E091AF08F091B008808D918D958BAE
:1048B000848B168E178E10A211A29A838983BE0153
:1048C0006F5F7F4F80E390E00E946E0F9FEFA9E63D
:1048D000B8E19150A040B040E1F7ACCE60E08091EB
:1048E000AD089091AE080E94F10C6FEF71E08091DD
:1048F000AD089091AE080E94D70E93CF8091AF087B
:104900009091B0080E94340C882309F463C00E947F
:104910003D0C6DE971E0CE0101960E946D10BE0163
:104920006F5F7F4F80E00E94A610CE0101960E942B
:104930009E10E091B308F091B40862817381848184
:104940009581CE0101960E940B10BE016F5F7F4FD3
:1049500081E00E94A610CE0101960E949E10009157
:10496000B3081091B408F80182819381A481B581C4
:10497000948B838BBC01990F880B990B0E94402963
:104980009B01AC0160E070E084EB93E40E94A02BFB
:10499000D80155966D937D938D939C935897698319
:1049A0007A838B839C83FE0131967F0100E410E0C3
:1049B000D701DD907D01C8010E945D2AD81621F043
:1049C0006D2DC8010E94652A0F5F1F4F0434110529
:1049D00079F73ECD60E08091AD089091AE080E94DD
:1049E000F10C6AE072E045CD8091AF089091B0087B
:1049F0000E94340C882309F44BC00E943D0C6DE9E1
:104A000071E0CE0101960E946D10BE016F5F7F4F75
:104A100080E00E94A610CE0101960E949E10609137
:104A2000B1087091B208CE0101960E94460C4981EE
:104A30005A816B817C81CE01875B9F4F0E9437102A
:104A4000BE01675B7F4F81E00E94A610CE01875BAD
:104A50009F4F0E949E10E091B108F091B2088581AD
:104A60009681948383834786508A618A728A9A8367
:104A70008983BE016F5F7F4F80E690E00E946E0FDA
:104A80002FEF39E648E1215030404040E1F7D2CDE8
:104A900060E08091AD089091AE080E94F10C6CE14D
:104AA00072E08091AD089091AE080E94D70E61E04F
:104AB0008091AD089091AE080E94F10C6091B10810
:104AC0007091B208CDCD8091AF089091B0080E944E
:104AD000340C882309F44BC00E943D0C6DE971E051
:104AE000CE0101960E946D10BE016F5F7F4F80E086
:104AF0000E94A610CE0101960E949E106091B108FE
:104B00007091B208CE0101960E94460C49815A81EB
:104B10006B817C81CE01875B9F4F0E943710BE0165
:104B2000675B7F4F81E00E94A610CE01875B9F4F9D
:104B30000E949E10E091B108F091B20885819681A3
:104B40009283818313861486158616869A838983B9
:104B5000BE016F5F7F4F80E790E00E946E0F5FEFB6
:104B600089E698E1515080409040E1F763CD60E0E4
:104B70008091AD089091AE080E94F10C6CE272E059
:104B80008091AD089091AE080E94D70E97CF80918A
:104B9000AF089091B0080E94340C882309F444C0F7
:104BA0000E943D0C6DE971E0CE0101960E946D10EE
:104BB000BE016F5F7F4F80E00E94A610CE0101967C
:104BC0000E949E106091B1087091B2086D5E7F4F97
:104BD000CE0101960E94460C49815A816B817C81ED
:104BE000CE01875B9F4F0E943710BE01675B7F4FEE
:104BF00081E00E94A610CE01875B9F4F0E949E100D
:104C0000E091B108F091B208808D918D978B868BE1
:104C100042A253A264A275A29A838983BE016F5FE8
:104C20007F4F80E890E0FDCC60E08091AD089091EE
:104C3000AE080E94F10C6DE372E08091AD08909196
:104C4000AE080E94D70E61E08091AD089091AE0849
:104C50000E94F10C6091B1087091B208E6CD80918C
:104C6000AF089091B0080E94340C882309F444C026
:104C70000E943D0C6DE971E0CE0101960E946D101D
:104C8000BE016F5F7F4F80E00E94A610CE010196AB
:104C90000E949E106091B1087091B2086D5E7F4FC6
:104CA000CE0101960E94460C49815A816B817C811C
:104CB000CE01875B9F4F0E943710BE01675B7F4F1D
:104CC00081E00E94A610CE01875B9F4F0E949E103C
:104CD000E091B108F091B208808D918D958B848B15
:104CE000168E178E10A211A29A838983BE016F5F60
:104CF0007F4F80E990E015CD60E08091AD08909104
:104D0000AE080E94F10C6BE472E08091AD089091C6
:104D1000AE080E94D70E9ECF69E572E0CE010196E3
:104D20000E946D10BE016F5F7F4F80E00E94A61051
:104D3000CE0101960E949E1012E0E7CB8091AD0853
:104D40009091AE08DC011C961C9260E00E944A0B18
:104D5000D2CA80914A0990914B090C94E92CEF92A8
:104D60000F931F93CF93DF93E80134E047FD34E1C5
:104D7000042E000C550B57FF03C051954195510966
:104D8000E32E022F242FAE010E94F226CE01DF91E6
:104D9000CF911F910F91EF900895BB274A3031F4C6
:104DA000992322F4BDE2909581959F4F0C94D926CA
:104DB000BB27FB015527AA27880F991FAA1FA417F5
:104DC00010F0A41B83955051B9F7A05DAA3308F0E9
:104DD000A95DA193009779F7B111B1931192CB011D
:104DE0000C942929A9E0B0E0E8EFF6E20C94A32A9C
:104DF0006A01F22EB02E102FFBE3AF2EA01608F49E
:104E00001BE31F5F012F27E0AE014F5F5F4F0E9442
:104E10005128BC018981982F9970913009F43FC0C5
:104E20009BE2E1FC04C09E2D9170E0FC3AC05E2D37
:104E30005071E82FE87083FF46C084E0911101C0F3
:104E400083E0EF2DE81B8F1508F0E0E0D6018E2FF0
:104E500020E2552351F1992329F0D6019C93C601F4
:104E600001966C0196012D5F3F4FE2FE24C08EE457
:104E7000D6018C9391E411969C93119712968C9382
:104E8000D9018E2F90E281111BC0E20FF32FF11D8B
:104E900010828EEF9FEF2996ECE00C94BF2A9DE2E2
:104EA000C6CF90E2C4CF2D9381508111FCCFCE0E9E
:104EB000D11CE0E0D0CF8EE6D6018C9391E6DBCF1B
:104EC0009D938150E0CF482F447082FF3DC084E025
:104ED000911101C083E08F1510F4EF2DE81BD6016E
:104EE0008E2F20E2552309F1992329F0D6019C93B6
:104EF000C60101966C0196012D5F3F4FE2FE1BC07B
:104F000089E4D6018C938EE411968C93119786E4F4
:104F100012968C93D9018E2F90E2882309F4B5CF95
:104F20009D938150FACF2D9381508111FCCFCE0EED
:104F3000D11CE0E0D9CF89E6D6018C938EE611969C
:104F40008C93119786E6E4CF9B0177FF02C030E097
:104F500020E0A1E0B0E0911102C0B0E0A0E0F901D2
:104F60003196AE0FBF1F8B2C912CBB2009F461C072
:104F70005401EFEFAE1ABE0AAA0DBB1DFA161B06AE
:104F800019F014F04F2D4A1B511188C0E3FC59C091
:104F90007601A42FB0E2A1114FC0C40ED11C9923F9
:104FA00009F45BC040E0D6011196F60190836D01D3
:104FB000552309F448C0012F060F9A81582F5071CC
:104FC00084FF03C0913309F4015010160CF047C060
:104FD000093008F008E0EEE2FE2E5B01A01AB108ED
:104FE00085019194819491082F3F320729F4D601CD
:104FF000FC92F60131966F016217730794F1021764
:1050000013077CF5DB01A21BB30BAA24A394B12CDC
:10501000AC0EBD1EAA0DBB1D11968C9121503109FD
:10502000D601119628153905F4F0F60180836D013B
:10503000DBCFB12CA12CA0CFF701B1937F01A15000
:10504000AACF9111B0CFD601942F50E302C05D9347
:1050500091509111FCCFC40ED11C40E0ACCF01E0C7
:10506000BACF80E3DBCF6217730731F4963388F44D
:10507000953311F4552369F0F6018083FD01842FE7
:1050800090E2811108C0A40FB11D1C9290E080E055
:1050900002CF81E3F1CF91938150F3CF911183CF70
:1050A0008ACF283008F027E03327DA01990F311D25
:1050B00087FD916000966105710539F432602E5FBD
:1050C0003D9330E32A95E1F708959F3F30F0803813
:1050D0007105610509F03C5F3C5F3D93913008F03C
:1050E0008068911DDF93CF931F930F93FF92EF92F0
:1050F000192F987F9695E92F96959695E90FFF279A
:10510000EA5FFE4F99273327EE24FF24A701E7012A
:1051100005900894079428F4360FE71EF81E491FDF
:10512000511D660F771F881F991F0694A1F70590E0
:10513000079428F4E70EF81E491F561FC11D770F6C
:10514000881F991F661F0694A1F70590079428F4FD
:10515000F80E491F561FC71FD11D880F991F661FC4
:10516000771F0694A1F70590079420F4490F561F66
:10517000C71FD81F990F661F771F881F0694A9F7AE
:1051800084911095177041F0D695C795579547951E
:10519000F794E7941A95C1F7ECEAF0E0689415905B
:1051A000159135916591959105907FE27395E11880
:1051B000F10A430B560BC90BD009C0F7E10CF11EE5
:1051C000431F561FC91FD01D7EF4703311F48A95FA
:1051D000E6CFE894015030F0080F0AF400270217D8
:1051E00008F4202F2395022F7A3328F079E37D935A
:1051F0002A95E9F710C07D932A9589F6069497952C
:105200006795379517951794E118F10A430B560BDC
:10521000C90BD00998F023957E9173957A3308F0E5
:1052200070E37C932013B8F77E9170617D9330F02A
:10523000839571E37D9370E32A95E1F71124EF9054
:10524000FF900F911F91CF91DF91992787FD909546
:105250000895DC01FC01672F71917723E1F7329704
:1052600004C07C916D9370836291AE17BF07C8F341
:1052700008950E947B2908F481E00895E89409C00C
:1052800097FB3EF490958095709561957F4F8F4F79
:105290009F4F9923A9F0F92F96E9BB279395F6958F
:1052A000879577956795B795F111F8CFFAF4BB0F0D
:1052B00011F460FF1BC06F5F7F4F8F4F9F4F16C071
:1052C000882311F096E911C0772321F09EE8872FFB
:1052D000762F05C0662371F096E8862F70E060E0B7
:1052E0002AF09A95660F771F881FDAF7880F969530
:1052F000879597F90895990F0008550FAA0BE0E8D4
:10530000FEEF16161706E807F907C0F01216130687
:10531000E407F50798F0621B730B840B950B39F4C7
:105320000A2661F0232B242B252B21F408950A262D
:1053300009F4A140A6958FEF811D811D08950E945B
:10534000B2290C94232A0E94152A38F00E941C2AA4
:1053500020F0952311F00C940C2A0C94122A11249D
:105360000C94572A0E94342A70F3959FC1F3950F2D
:1053700050E0551F629FF001729FBB27F00DB11DD9
:10538000639FAA27F00DB11DAA1F649F6627B00D69
:10539000A11D661F829F2227B00DA11D621F739F52
:1053A000B00DA11D621F839FA00D611D221F749F60
:1053B0003327A00D611D231F849F600D211D822FA7
:1053C000762F6A2F11249F5750409AF0F1F08823CE
:1053D0004AF0EE0FFF1FBB1F661F771F881F9150FB
:1053E0005040A9F79E3F510580F00C940C2A0C9474
:1053F000572A5F3FE4F3983ED4F3869577956795F7
:10540000B795F795E7959F5FC1F7FE2B880F911D24
:105410009695879597F9089597F99F6780E870E0CA
:1054200060E008959FEF80EC089500240A9416161A
:10543000170618060906089500240A941216130682
:10544000140605060895092E0394000C11F4882310
:1054500052F0BB0F40F4BF2B11F460FF04C06F5F2C
:105460007F4F8F4F9F4F089557FD9058440F551F02
:1054700059F05F3F71F04795880F97FB991F61F0D6
:105480009F3F79F087950895121613061406551F4D
:10549000F2CF4695F1DF08C0161617061806991FB9
:1054A000F1CF86957105610508940895E894BB27AE
:1054B00066277727CB0197F90895F999FECF92BD1A
:1054C00081BDF89A992780B50895262FF999FECFC6
:1054D0001FBA92BD81BD20BD0FB6F894FA9AF99A11
:1054E0000FBE01960895052E97FB1EF400940E94AE
:1054F0008A2A57FD07D00E94D42A07FC03D04EF415
:105500000C948A2A50954095309521953F4F4F4FE6
:105510005F4F089590958095709561957F4F8F4F5F
:105520009F4F08950E94F62AA59F900DB49F900D5D
:10553000A49F800D911D112408952F923F924F92A8
:105540005F926F927F928F929F92AF92BF92CF9213
:10555000DF92EF92FF920F931F93CF93DF93CDB71C
:10556000DEB7CA1BDB0B0FB6F894DEBF0FBECDBF94
:1055700009942A88398848885F846E847D848C8465
:105580009B84AA84B984C884DF80EE80FD800C816E
:105590001B81AA81B981CE0FD11D0FB6F894DEBF51
:1055A0000FBECDBFED010895A1E21A2EAA1BBB1BB1
:1055B000FD010DC0AA1FBB1FEE1FFF1FA217B307DF
:1055C000E407F50720F0A21BB30BE40BF50B661FF5
:1055D000771F881F991F1A9469F7609570958095B9
:1055E00090959B01AC01BD01CF010895A29FB00130
:1055F000B39FC001A39F700D811D1124911DB29F07
:10560000700D811D1124911D0895AA1BBB1B51E132
:1056100007C0AA1FBB1FA617B70710F0A61BB70B22
:10562000881F991F5A95A9F780959095BC01CD01C7
:10563000089597FB072E16F4009407D077FD09D044
:105640000E94052B07FC05D03EF4909581959F4F55
:105650000895709561957F4F0895EE0FFF1F059097
:10566000F491E02D09945058BB27AA270E944B2B98
:105670000C94232A0E94152A38F00E941C2A20F03C
:1056800039F49F3F19F426F40C94122A0EF4E09595
:10569000E7FB0C940C2AE92F0E94342A58F3BA171E
:1056A000620773078407950720F079F4A6F50C9438
:1056B000562A0EF4E0950B2EBA2FA02D0B01B9013E
:1056C00090010C01CA01A0011124FF27591B99F078
:1056D000593F50F4503E68F11A16F040A22F232F84
:1056E000342F4427585FF3CF469537952795A795D4
:1056F000F0405395C9F77EF41F16BA0B620B730B7B
:10570000840BBAF09150A1F0FF0FBB1F661F771FEB
:10571000881FC2F70EC0BA0F621F731F841F48F4A0
:10572000879577956795B795F7959E3F08F0B0CF29
:105730009395880F08F09927EE0F97958795089510
:105740000E94B42B0C94232A0E941C2A58F00E9419
:10575000152A40F029F45F3F29F00C940C2A5111CE
:105760000C94572A0C94122A0E94342A68F3992325
:10577000B1F3552391F3951B550BBB27AA2762174D
:105780007307840738F09F5F5F4F220F331F441F5A
:10579000AA1FA9F335D00E2E3AF0E0E832D091508E
:1057A0005040E695001CCAF72BD0FE2F29D0660F7B
:1057B000771F881FBB1F261737074807AB07B0E8BE
:1057C00009F0BB0B802DBF01FF2793585F4F3AF0C4
:1057D0009E3F510578F00C940C2A0C94572A5F3F99
:1057E000E4F3983ED4F3869577956795B795F7954A
:1057F0009F5FC9F7880F911D9695879597F9089532
:10580000E1E0660F771F881FBB1F621773078407CD
:10581000BA0720F0621B730B840BBA0BEE1F88F7DC
:10582000E09508950E94192C6894B1110C94572AA0
:1058300008950E943C2A88F09F5798F0B92F992725
:10584000B751B0F0E1F0660F771F881F991F1AF06B
:10585000BA95C9F714C0B13091F00E94562AB1E050
:1058600008950C94562A672F782F8827B85F39F04F
:10587000B93FCCF3869577956795B395D9F73EF404
:1058800090958095709561957F4F8F4F9F4F0895AC
:105890000E947B2908F48FEF08950F931F93CF93F5
:1058A000DF938230910510F482E090E0E0914E09A0
:1058B000F0914F0930E020E0B0E0A0E0309799F49B
:1058C0002115310509F44AC0281B390B2430310554
:1058D000D8F58A819B816115710589F1FB0193835C
:1058E0008283FE0111C040815181028113814817DA
:1058F0005907E0F04817590799F4109761F012968C
:105900000C93129713961C933296CF01DF91CF918F
:105910001F910F91089500934E0910934F09F4CFF2
:105920002115310551F04217530738F0A901DB0169
:105930009A01BD01DF01F801C1CFEF01F9CF9093CA
:105940004F0980934E09CDCFFE01E20FF31F8193E3
:1059500091932250310939832883D7CF20914C0964
:1059600030914D09232B41F42091200130912101E8
:1059700030934D0920934C0920911E0130911F0155
:105980002115310541F42DB73EB7409122015091C8
:105990002301241B350BE0914C09F0914D09E217CE
:1059A000F307A0F42E1B3F0B2817390778F0AC0142
:1059B0004E5F5F4F2417350748F04E0F5F1F50931F
:1059C0004D0940934C09819391939FCFF0E0E0E023
:1059D0009CCFCF93DF930097E9F0FC0132971382BD
:1059E0001282A0914E09B0914F09ED0130E020E004
:1059F0001097A1F420813181820F931F20914C09CF
:105A000030914D092817390709F061C0F0934D090D
:105A1000E0934C09DF91CF910895EA01CE17DF079B
:105A2000E8F54A815B819E0141155105B1F7E90115
:105A3000FB83EA8349915991C40FD51FEC17FD07E9
:105A400061F4808191810296840F951FE901998309
:105A50008883828193819B838A83F0E0E0E01296C1
:105A60008D919C9113970097B9F52D913C911197C9
:105A7000CD010296820F931F20914C0930914D0960
:105A80002817390739F6309751F510924F091092BF
:105A90004E09B0934D09A0934C09BCCFD383C28368
:105AA00040815181840F951FC817D90761F44E5F5B
:105AB0005F4F88819981480F591F518340838A81A4
:105AC0009B81938382832115310509F0B0CFF09338
:105AD0004F09E0934E099ECFFD01DC01C0CF138238
