:100000000C94B0030C94F8110C94D1110C94AA1117
:100010000C9483110C94D8030C94D8030C945C11A9
:100020000C94D8030C94D8030C941F120C948E12C9
:100030000C94D8030C94D8030C94D8030C94D803D4
:100040000C94D8030C94D8030C94D8030C94D803C4
:100050000C94D8030C94D8030C94D8030C9412116C
:100060000C94D8030C94D8030C94D8030C94D803A4
:100070000C94D8030C94D8030C94D8030C94D80394
:100080000C94D8030C94D8030C94D8030C94D80384
:100090000C94BA140C94D8030C94D8030C94D80381
:1000A0000C94D8030C94D8030C94D80300407A1015
:1000B000F35A00A0724E18090010A5D4E80000E819
:1000C0007648170000E40B54020000CA9A3B000077
:1000D00000E1F505000080969800000040420F0006
:1000E0000000A08601000000102700000000E803C7
:1000F000000000006400000000000A000000000092
:100100000100000000002C76D888DC674F0823DF50
:10011000C1DFAE59E1B1B796E5E3E453C63AE65123
:10012000997696E8E6C28426EB898C9B62ED407C4A
:100130006FFCEFBC9C9F40F2BAA56FA5F490055AE6
:100140002AF75C936B6CF9676DC11BFCE0E40D470B
:10015000FEF520E6B500D0ED902E0300943577052E
:100160000080841E080000204E0A000000C80C33E6
:100170003333330F986E12831141EF8D2114893B75
:10018000E65516CFFEE6DB18D1844B381BF77C1DF5
:10019000901DA4BBE424203284725E228100C9F148
:1001A00024ECA1E53D27080B00020202000009042F
:1001B00000000102020000052400100105240101D5
:1001C000010424020605240600010705810310002E
:1001D0004009040100020A00000007050202400075
:1001E0000007058302400000040309041201000215
:1001F000EF020140412337800001010203014172F7
:100200006475696E6F204C4C430041726475696E71
:100210006F204D6963726F00000000002500280008
:100220002B002E00310000000000230026002900D2
:100230002C002F000404040404030405020202023B
:10024000040302020202060606060606040402026F
:100250000204040408020110408040102040804045
:10026000800802040180402010020110801020400C
:1002700040200000000200090F0000030401000CF0
:10028000000000000000000000000000000000006E
:1002900000050F0992A1028502099F09A009A4097E
:1002A000A509A615002501350045017501950581B3
:1002B0000295038103099415002501350045017558
:1002C000019501810209221501252835014528756E
:1002D0000795018102C00921A102850109221501AA
:1002E0002528350145287508950191020925A102A7
:1002F000092609270930093109320933093409402F
:10030000094109420943092809281501250C35012D
:10031000450C750895019100C00950095409511503
:100320000026FF7F350046FF7F66031055FD7510E0
:100330009503910255006600000952150026FF0042
:1003400035004610277508950191020953150125BE
:1003500008350145087508950191020955A1020566
:10036000010930093115002501750195029102C07E
:10037000050F095695019102950591030957A102B0
:100380000B01000A000B02000A0066140055FE155E
:100390000026FF00350047A08C00006600007508AD
:1003A000950291025500660000C0050F0958A10290
:1003B0000B01000A000B02000A0026FD7F75109554
:1003C000029102C0C0095AA1028502092215012525
:1003D0002835014528750895019102095B095D16CC
:1003E0000000261027360000461027751095029150
:1003F00002095C095E66031055FD27FF7F00004778
:10040000FF7F0000752095029102450066000055AF
:1004100000C0095FA10285030922150125283501C5
:10042000452875089501910209231500250335001B
:1004300045037504950191020958A1020B01000AB8
:10044000000B02000A00750295029102C016F0D856
:1004500026102736F0D846102709607510950191AF
:100460000236F0D8461027096109629502910216FA
:10047000000026102736000046102709630964751E
:100480001095029102096546102795019102C00955
:100490006EA102850409221501252835014528751C
:1004A00008950191020970160000261027360000F9
:1004B000461027751095019102096F16F0D8261085
:1004C0002736F0D8461027950175109102097166FC
:1004D000140055FE1500279F8C00003500479F8CA7
:1004E00000007510950191020972150027FF7F0029
:1004F00000350047FF7F000066031055FD7520950D
:100500000191026600005500C00973A1028505092A
:100510002215012528350145287508950191020904
:100520007016F0D826102736F0D84610277510958B
:10053000019102C00974A10285060922150125282E
:10054000350145287508950191020975097616F05F
:10055000D826102736F0D84610277510950291023C
:10056000C00968A102850709221501252835014522
:1005700028750895019102096C1500261027350091
:1005800046102775109501910209691581257F355F
:100590000046FF007508950C920201C00966A10291
:1005A00085080501093009311581257F350046FF91
:1005B00000750895019102C0050F0977A102850A0F
:1005C0000922150125283501452875089501910254
:1005D0000978A1020979097A097B150125037508B3
:1005E00095019100C0097C150026FF00350046FFEB
:1005F000009102C00990A102850B0922150125284E
:1006000035014528750895019102C00996A102851A
:100610000C099709980999099A099B099C150125C4
:1006200006750895019100C0097DA102850D097E1E
:10063000150026FF00350046102775089501910228
:10064000C0096BA102850E09221501252835014537
:1006500028750895019102096D150026FF003500E7
:1006600046FF00750895019102095166031055FD7A
:10067000150026FF7F350046FF7F7510950191021A
:100680005500660000C009ABA10285050925A1023D
:10069000092609270930093109320933093409408B
:1006A0000941094209430928250C15013501450C6A
:1006B00075089501B100C00501093B150026FF0131
:1006C000350046FF01750A9501B1027506B101C0FA
:1006D000050F0989A1028506092225281501350182
:1006E000452875089501B102098BA102098C098D75
:1006F000098E250315013501450375089501B100E3
:10070000C009AC150027FFFF0000350047FFFF00C0
:100710000075109501B100C0097FA102850709800D
:10072000751095011500350027FFFF000047FFFFFA
:100730000000B102098326FF0046FF0075089501FD
:10074000B10209A909AA7501950215002501350014
:100750004501B10275069501B103C0C0FA15C72560
:1007600011241FBECFEFDAE0DEBFCDBF12E0A0E064
:10077000B1E0E4EDFAE502C005900D92AA36B107AA
:10078000D9F729E0AAE6B2E001C01D92A035B20770
:10079000E1F713E0CFEAD3E004C02197FE010E9405
:1007A0004B2ACE3AD107C9F70E9495180C945D2DBB
:1007B0000C940000CF92DF92EF92FF920F931F9361
:1007C000CF93DF93D901E8016A01F901421753077A
:1007D00014F06901FA01882309F440C0CB016C15BB
:1007E0007D050CF4C6019F018E179F070CF49C0138
:1007F000A417B50734F4CF01821B930B9C012C0D79
:100800003D1D0D2C000CEE08FF08032E000C440BC0
:10081000550B2C193D094E095F09AEEFBFEF0E9441
:10082000B0299F01FF0F440B550B2C193D094E09B0
:100830005F090E949129DA01C9018F5F9F47A109D1
:10084000B1098883998382E090E0DF91CF911F9175
:100850000F91FF90EF90DF90CF90089590E080E0AF
:10086000F4CFE82FF0E0EE0FFF1FE35FFE4F28E22A
:100870003EE0318320838230D9F028F4882341F090
:10088000813071F008958330D9F0843009F10895F2
:10089000809169008C7F816080936900E89A089557
:1008A00080916900837F846080936900E99A08954C
:1008B000809169008F7C806180936900EA9A089535
:1008C000809169008F73806480936900EB9A08952A
:1008D00080916A008F7C806180936A00EE9A08950F
:1008E000CF93DF931F92CDB7DEB76983DC01ED9123
:1008F000FC910280F381E02D41E050E0BE016F5F8A
:100900007F4F09950F90DF91CF91089583E08093F9
:10091000E9008091F200882319F08AE38093E800CF
:10092000089581508F3008F047C0E82FF0E0E55679
:10093000FB4F0C944B2AB804BC04AA04B004B404C2
:10094000DC04DC04DC04BF04C504C904CD04D30406
:10095000DC04D704809180008F7780938000089515
:10096000809180008F7DF9CF80918000877FF5CFC7
:1009700084B58F7784BD089584B58F7DFBCF80913A
:1009800090008F77809390000895809190008F7DE4
:10099000F9CF80919000877FF5CF8091C0008F774D
:1009A0008093C00008958091C0008F7DF9CF809121
:1009B000C200877F8093C2000895CF93DF93282FD2
:1009C00030E0F901EE58FD4F8491F901ED5AFD4FE9
:1009D000D491F901EC5CFD4FC491CC23A1F08111BD
:1009E0000E949104EC2FF0E0EE0FFF1FEA5DFD4F37
:1009F000A591B491EC91ED2381E090E009F480E0C1
:100A0000DF91CF91089580E090E0FACF1F93CF93CC
:100A1000DF93282F30E0F901EE58FD4F8491F90162
:100A2000ED5AFD4FD491F901EC5CFD4FC491CC23FC
:100A3000A9F0162F81110E949104EC2FF0E0EE0F27
:100A4000FF1FE85EFD4FA591B4918FB7F894EC912C
:100A5000111108C0D095DE23DC938FBFDF91CF91B9
:100A60001F910895DE2BF8CF3FB7F8948091410392
:100A700090914203A0914303B091440326B5A89BF3
:100A800005C02F3F19F00196A11DB11D3FBFBA2F20
:100A9000A92F982F8827BC01CD01620F711D811DE0
:100AA000911D42E0660F771F881F991F4A95D1F765
:100AB00008958F929F92AF92BF92CF92DF92EF9262
:100AC000FF924B015C010E9434056B017C010E9486
:100AD00034056C197D098E099F09683E73408105B4
:100AE0009105A8F321E0821A9108A108B10888EEC7
:100AF000C80E83E0D81EE11CF11C81149104A104EE
:100B0000B10429F7FF90EF90DF90CF90BF90AF90A6
:100B10009F908F90089508950895089508954091A5
:100B2000DE025091DF022091DC023091DD0242179B
:100B30005307B4F49091E8009570E1F39091E800C8
:100B400092FD19C08093F1008091DE029091DF0246
:100B500001968F739927892B19F48EEF8093E80003
:100B60008091DE029091DF0201969093DF028093E4
:100B7000DE0281E0089580E00895EF92FF920F93E6
:100B80001F93CF93DF93F82E192FE62E042F81E0C9
:100B9000860F880F0E948F0583E00E948F05CF2D5E
:100BA000D12FEC0EFD2EF11CCE15DF05B9F007FF9D
:100BB00013C0FE0184910E948F05182F80E00E94CF
:100BC0008F05812321968111EFCFDF91CF911F9166
:100BD0000F91FF90EF9008958881EDCF81E0F5CFE0
:100BE000DF92EF92FF920F931F93CF93DF93D82E54
:100BF0008A01EB017B01E40EF51ECE15DF0559F0ED
:100C0000D7FE12C0FE0184910E948F0521968111AA
:100C1000F4CF0FEF1FEFC801DF91CF911F910F911C
:100C2000FF90EF90DF9008958881EECF2FB7F89472
:100C300087708093E9009091E800892F807295FF7A
:100C400004C09091F20080E4891B2FBF089583E0D7
:100C50000E94160690E008957F928F929F92AF9225
:100C6000BF92CF92DF92EF92FF920F931F93CF9399
:100C7000DF93C82E8B017A018091E502811110C0AB
:100C80008FEF9FEFDF91CF911F910F91FF90EF902A
:100C9000DF90CF90BF90AF909F908F907F900895FE
:100CA0008091E30280FF05C08091E0008260809324
:100CB000E000CE2DDF2DD12C8AEFB82E8C2D877041
:100CC000982E8C2D8072882E8C2D8074782E9AE32D
:100CD000A92E209719F4DD2009F452C08C2D0E9412
:100CE000160681110AC0BA94BB2051F261E070E08F
:100CF00080E090E00E945905ECCF8C171D0611F0A2
:100D00000CF08C2F9FB7F8949092E9002091E800A6
:100D100025FD02C09FBFDDCF282F30E0C21BD30BC3
:100D2000882029F08150A0F01092F100FBCFF8014B
:100D3000C7FC0AC0815050F041914093F100FACFB6
:100D400044914093F10031968150D0F7020F131F68
:100D5000DD2021F0A092E800D12CDCCF8091E800CA
:100D600085FD07C0A092E800DD24D394209791F27E
:100D7000F3CF209779F6772069F2A092E800CACFE6
:100D80005D9A84E68093E202C7017CCFCF93DF9324
:100D9000EC0180910C01882331F083E00E942C0645
:100DA0001816190634F081E090E09B838A8380E076
:100DB00090E0DF91CF9108959091E502992319F188
:100DC0003FB7F89487708093E9008091F20090E03B
:100DD000481759070CF4CA01282FFB0154E621508B
:100DE00038F0289A5093E1024091F1004193F7CFF7
:100DF000009739F02091F200211103C02BE62093D7
:100E0000E8003FBF08958FEF9FEF08950F931F9362
:100E1000CF93DF931F92CDB7DEB78C01FC018485A1
:100E2000958597FF0FC041E050E0BE016F5F7F4F97
:100E300082E00E94DC06019771F4898190E0F8015C
:100E400095878487F801848595850F90DF91CF91F0
:100E50001F910F9108958FEF9FEFF1CFCF93DF9305
:100E60001F92CDB7DEB7FC018485958597FD08C03C
:100E70002FEF3FEF358724870F90DF91CF910895B3
:100E800041E050E0BE016F5F7F4F82E00E94DC06D0
:100E9000019719F4898190E0EFCF8FEF9FEFECCFAE
:100EA0009FB7F89487708093E9008091F2009FBF0C
:100EB0000895FC018485958597FD06C082E00E9417
:100EC000500790E00196089582E00E94500790E05C
:100ED0000895615030F02091F100FC0120830196CB
:100EE000F8CF289A84E68093E1020895AF92BF92EA
:100EF000DF92EF92FF920F931F93CF93DF935C01EA
:100F00008B01EB019BEFD92E2097C1F07E01C134FC
:100F1000D1051CF080E4E82EF12C8091E80082FFDE
:100F2000FCCFC8018C1B9D0B6E2D8A0D9B1D0E9452
:100F30006907D092E800CE19DF09E6CFC801DF913A
:100F4000CF911F910F91FF90EF90DF90BF90AF90E6
:100F50000895AF92BF92CF92DF92EF92FF920F93DC
:100F60001F93CF93DF936C017B018B01040F151F3F
:100F7000EB015E01AE18BF08C017D10759F06991A7
:100F8000D601ED91FC910190F081E02DC60109950B
:100F9000892B79F7C501DF91CF911F910F91FF90B8
:100FA000EF90DF90CF90BF90AF9008958091D402E2
:100FB00081110DC082E08093D00284E08093D10241
:100FC0001092D3021092D20281E08093D40280ED7D
:100FD00092E00895CF93DF9382E08093990381E0BC
:100FE00080939A0329E637E030939C0320939B0378
:100FF00010929E0310929D032FE431E030939603EC
:1010000020939503109252071092530710925407A1
:1010100010925507109257071092560710925907D1
:10102000109258072091240130912501409126010A
:1010300020935A0730935B0740935C0780939F038C
:10104000109251071092AC071092AB071092AE07A6
:101050001092AD078093AF078093B00781EC809327
:10106000690780EC80936A070E94D607FC018181A2
:1010700090919903482F490F5527551F4830510526
:101080009CF5A281B381109709F525E933E03383FC
:1010900022832081209397038093980380919A0361
:1010A000820F808320919B03A22FB0919C038A2FF3
:1010B000821B8917C8F481813D91C82FD0E0C95E99
:1010C000DE4F38838F5F8183F2CFD90118962D913F
:1010D0003C91199721153105C1F725E933E019969F
:1010E0003C932E931897D5CFDF91CF9108950F930E
:1010F0001F93CF93DF931F92CDB7DEB782E0898332
:1011000042E450E066EA71E080E80E94F0050E9447
:10111000D607DC0112960D911C910115110589F07D
:10112000D801ED91FC910280F381E02DBE016F5F4B
:101130007F4FC801099597FD04C0F801008511850E
:10114000ECCF89810F90DF91CF911F910F9108957E
:10115000BC0130E020E08FE3DB01AF53BC4F829F46
:10116000F001839FF00D1124E60FF71F91819D7F01
:1011700091834D915C911197415C5F4F11965C9307
:101180004E932F5F3F4F2F30310549F70895FB01F4
:1011900028E4208329E4218324E42283DC01A85E5F
:1011A000BB4F9C919F709F5B93838D919C9124E09A
:1011B000969587952A95E1F78F708F5B848385E0FC
:1011C0000895EF92FF920F931F93CF93DF93DB016C
:1011D0002C91213809F046C013962C911397223296
:1011E00009F040C0FC01428114962D913C914217B8
:1011F0001306C1F58C01EA5EFB4FE080F180D0E080
:10120000C0E0E114F10441F1F701468157816281A8
:10121000738180E00E94F0058F3F980751F4CFEF73
:10122000DFEFCE01DF91CF911F910F91FF90EF90F3
:101230000895C80FD91FF7014085518564817581D4
:1012400080E80E94F0058F3F980749F3C80FD91F27
:10125000F701E080F180D5CFF801E65EFB4F81E039
:101260008083DFCFD0E0C0E0DCCFCF93DF93CDB77A
:10127000DEB7A0970FB6F894DEBF0FBECDBFFC015E
:10128000DB018C918F5F8C939E012D5F3F4F8CE033
:10129000D9011D928A95E9F799E0998384E08A83C0
:1012A00082E08D8383E08E839A8791E29B8791E130
:1012B0009C8791E09D879F8722E2288B57E05B8B7C
:1012C00045E04C8B8E8B20E430E0388F2F8B998F4C
:1012D0005A8F4B8F8D8F3F8F2E8F98A382818B8358
:1012E000DF01A85EBB4F9C9111968C91998B8A8BE4
:1012F0008381982F90689D8B8F5F8C8F40E250E0A8
:10130000BE016F5F7F4F80E00E94F005A0960FB690
:10131000F894DEBF0FBECDBFDF91CF910895089541
:1013200020918B02260F3327331F21323105ECF435
:1013300020911203FC0190E080E0243069F082E00B
:101340000895A0918B022191AC0145595D4FA40FE6
:10135000B52FB11D2C930196861798F380918B02BF
:10136000680F60938B0280E0089581E008951092E9
:10137000120381E08093110310920C0361E082E07C
:101380000E94060561E083E00E940605E9EBF0E0BB
:1013900080818E7F808380818D7F808388E48093AD
:1013A000B80085E48093BC000895CF93DF9391E06B
:1013B00090936A028823B9F0C091B800D091BA0026
:1013C0008091BC008A7B8093BC0060E082E00E9438
:1013D000060560E083E00E9406050E94B709D093ED
:1013E000BA00C093B800DF91CF910895E09119033E
:1013F00080911803E81730F4F0E0E65EFC4F80813E
:1014000090E008958FEF9FEF0895909119038091D8
:1014100018032FEF3FEF981748F4E92FF0E0E65E4E
:10142000FC4F208130E09F5F90931903C90108951C
:101430008091180390911903891B990B0895CF92FD
:10144000DF92EF92FF920F931F93CF93DF937C0174
:10145000CB018A012091AE02222389F0EB016B01BE
:10146000C40ED51ECC15DD0569F06991D701ED914B
:10147000FC910190F081E02DC7010995F3CF642F15
:101480000E949009C801DF91CF911F910F91FF90A9
:10149000EF90DF90CF900895CF93DF931F92CDB759
:1014A000DEB769832091AE022223F9F02091EA028F
:1014B000203258F021E030E0FC013383228390E0B9
:1014C00080E00F90DF91CF9108958091EB02E82F9B
:1014D000F0E0E155FD4F998190838F5F8093EB029F
:1014E0008093EA0281E090E0ECCF61E0CE010196CA
:1014F0000E949009F7CFCF92DF92EF92FF920F9365
:101500001F93CF93DF93FC01C48121E02093AE02AF
:10151000C093CF021092EB021092EA028485682BEE
:101520008EE199E00E944C0AD091EA02D13208F093
:1015300092C00E9434056B017C01809112038111DD
:1015400065C082E08093120381E0809311038FEFE6
:101550008093100310920F03D0930E03AFEAB2E012
:10156000ECEEF2E080E0D81385C010920D0380917C
:101570000D03CC0FC82BC0930D0380910C03813059
:1015800009F07CC010920C030E9434056B017C01B1
:1015900080910D038093BB008091140390911503FB
:1015A000A0911603B0911703892B8A2B8B2B99F0EE
:1015B0000E94340500911403109115032091160325
:1015C000309117036C197D098E099F0906171707BB
:1015D00028073907E0F18091BC0083FDD9CF85EC65
:1015E0008093BC000E9434056B017C018091120342
:1015F000823009F445C0809110038F3F61F18091E2
:101600001003803241F18091100325C080911403B2
:1016100090911503A0911603B0911703892B8A2B83
:101620008B2B09F48ACF0E9434050091140310918A
:10163000150320911603309117036C197D098E094B
:101640009F09061717072807390708F076CF8091FA
:1016500013030E94D5091092EB021092EA02109235
:10166000AE02DF91CF911F910F91FF90EF90DF902D
:10167000CF9008959D9191938F5F75CF85EEB0CFF8
:101680008091140390911503A0911603B091170354
:10169000892B8A2B8B2B09F4A9CF0E94340500914A
:1016A00014031091150320911603309117036C1940
:1016B0007D098E099F09061717072807390708F0C3
:1016C00095CFC5CF90E080E0089523B12095221FEB
:1016D0002227221FFC0126A3822F08958091AF08A4
:1016E0009091B0080E94650B8111F8CF08954F9238
:1016F0005F926F927F92AF92BF92CF92DF92EF9202
:10170000FF920F931F93CF93DF938C01EB01CB8458
:10171000DC84ED84FE84A980BA806D817E816A19A3
:101720007B09072E000C880B990B0E945E282B0169
:101730003C016B817C816A197B09072E000C880BA8
:10174000990B0E945E289B01AC01C301B2010E946B
:10175000BE2A2B013C01A70196016F8578898989F2
:101760009A890E94512A9B01AC01C301B2010E94D7
:10177000BD28A70196010E94522A6F837887898726
:101780009A878CE0FE013796D80101900D928A95D8
:10179000E1F7C801DF91CF911F910F91FF90EF907A
:1017A000DF90CF90BF90AF907F906F905F904F9001
:1017B0000895FC0120917C0090819F70207F922BE6
:1017C00090937C0090917A00906490937A0080913D
:1017D0007A0086FDFCCF8091780090917900968305
:1017E000858308950F931F93CF938C01C62F0E947A
:1017F0007B0A6C2F6460C8010E947B0A6C2F6B7F90
:10180000C8010E947B0A83EC90E00197F1F7CF9129
:101810001F910F9108950F931F93CF93DF938C0126
:10182000D62FC42F607F642B0E94F20B80E1D89FDB
:10183000B00111246C2BC801DF91CF911F910F9142
:101840000C94F20BCF93DF93CDB7DEB728970FB68A
:10185000F894DEBF0FBECDBF28E0E7E2F1E0DE0185
:10186000119601900D922A95E1F7FC01208526172B
:1018700008F46FEF70E0660F771F21E030E02C0F67
:101880003D1F620F731FFB016081606840E0289676
:101890000FB6F894DEBF0FBECDBFDF91CF910C9491
:1018A0000B0CCF93DF93EC0140E061E00E940B0C46
:1018B0008BE39FE10197F1F78985882331F060E0A0
:1018C000CE01DF91CF910C94220CDF91CF9108953E
:1018D00041E00E940B0C81E090E00895AF92BF922E
:1018E000CF92DF92EF92FF920F931F93CF93DF93EC
:1018F000CDB7DEB7ADB6BEB68091A6082DB73EB760
:10190000281B31090FB6F8943EBF0FBE2DBF8DB70F
:101910009EB701966C01E0907508F12C80917108DA
:1019200090917208D601FC019F01281B390B2E15DE
:101930003F051CF421912D93F7CF809176088823E1
:1019400059F180916D0890916E0828E097FD09C0CB
:1019500068E671E00E94372A6DE270E00E94372A43
:10196000262F80916F089091700868E097FD08C05D
:1019700068E671E00E94372A6DE270E00E94372A23
:10198000F601EE0DFF1D90E1699FB0011124262B99
:101990002083F70131967F0186010E0D1F1D2091D6
:1019A0007B0830917C084091790850917A086091C9
:1019B0005708709158088091770881700E94DA0367
:1019C000E80EF91E86010E0D1F1D20917F08309133
:1019D000800840917D0850917E086091590870916F
:1019E0005A0880917708869581700E94DA03E80E84
:1019F000F91E86010E0D1F1D209183083091840869
:101A0000409181085091820860915B0870915C0858
:101A10008091770882FB882780F90E94DA03E80E1C
:101A2000F91E86010E0D1F1D209187083091880830
:101A3000409185085091860860915D0870915E081C
:101A40008091770883FB882780F90E94DA03E80EEB
:101A5000F91E86010E0D1F1D20918B0830918C08F8
:101A60004091890850918A0860915F0870916008E0
:101A700080917708829581700E94DA03E80EF91E42
:101A800086010E0D1F1D20918F0830919008409106
:101A90008D0850918E086091610870916208809164
:101AA000770885FB882780F90E94DA03E80EF91E83
:101AB00086010E0D1F1D20919308309194084091CE
:101AC0009108509192086091650870916608809124
:101AD000780881700E94DA03E80EF91E86010E0D67
:101AE0001F1D2091970830919808409195085091BA
:101AF00096086091630870916408809178088695D3
:101B000081700E94DA03E80EF91E86010E0D1F1D7A
:101B100020919B0830919C084091990850919A0817
:101B200060916708709168088091780882FB882727
:101B300080F90E94DA03E80EF91E86010E0D1F1DC2
:101B400020919F083091A00840919D0850919E08D7
:101B50006091690870916A088091780883FB8827F2
:101B600080F90E94DA038E0D9F1D8601080F191F50
:101B70002091A3083091A4084091A1085091A20897
:101B800060916B0870916C088091780882958170E3
:101B90000E94DA038091B107811105C00E94EA0713
:101BA00081E08093B1074091A6088091A50850E09C
:101BB0007A01FFEFEF1AFF0A2DB73EB72E193F0942
:101BC0000FB6F8943EBF0FBE2DBF0DB71EB70F5F07
:101BD0001F4FEDB7FEB78183B601C80101960E9481
:101BE0004D2D80919803A701B80180640E942C06B6
:101BF0000FB6F894BEBE0FBEADBEDF91CF911F9160
:101C00000F91FF90EF90DF90CF90BF90AF9008952D
:101C1000FB0101900020E9F73197AF01461B570BFC
:101C2000DC01ED91FC910280F381E02D0994CF93CA
:101C3000DF93CDEAD8E0682F888199810E94220C39
:101C40006BE771E088819981DF91CF910C94080E48
:101C50000F931F93809105090E94DD04182F809136
:101C600006090E94DD04880F991F812B90910B09B2
:101C7000981751F1E0910B0900910709109108099B
:101C80002091090930910A0994E0E902F001112438
:101C9000482F082E000C550BE42BF52BE15DFE4F71
:101CA0009081492F990F550B660B770B400F511FF1
:101CB000621F731F40930709509308096093090935
:101CC00070930A0980930B091F910F910895CF9388
:101CD000DF93EC0188819981009711F00E94072C15
:101CE000198218821D821C821B821A82DF91CF9179
:101CF0000895FC0180819181009711F00C94072CCC
:101D0000089585ED8093BC00809114039091150394
:101D1000A0911603B09117030796A11DB11D23E0F2
:101D2000B695A795979587952A95D1F72091BC00F0
:101D300024FD03C0109212030895409114035091A2
:101D400015036091160370911703452B462B472B03
:101D500069F30097A105B10541F02AE22A95F1F750
:101D600000C00197A109B109E1CF809113030C9440
:101D7000D509FF920F931F93CF93DF93EC018B0153
:101D8000FB01F0800E947B29F81621F06F2DCE0117
:101D90000E948329F801F1802196CE010E947B29BF
:101DA000F81621F06F2DCE010E948329C801DF9122
:101DB000CF911F910F91FF9008950F931F93CF9391
:101DC000DF938C01EB010E947B298883C801019677
:101DD0000E947B298983CE01DF91CF911F910F91C2
:101DE00008950F931F93CF93DF93CDB7DEB72A9754
:101DF0000FB6F894DEBF0FBECDBFDC0112964C913A
:101E00001297FB01248135814217130609F03FC068
:101E10008C0191818081813AE1F59130A9F593811E
:101E2000933099F482818630E1F48FEC97E001974A
:101E3000F1F700C0000008531C4F45E050E0B80126
:101E400080E40E94F005D8011C9281E02A960FB62A
:101E5000F894DEBF0FBECDBFDF91CF911F910F91E0
:101E60000895873091F789832FEF3FEF3B832A83D3
:101E70008EE08C839D8345E050E0BE016F5F7F4F15
:101E800080E40E94F005E1CF81E09330F9F280E038
:101E9000DDCF8132E1F79B3031F48281FD01E65ED6
:101EA000FB4F8083D2CF9A3029F48281FD01E55E19
:101EB000FB4FF7CF993059F78381833031F6868114
:101EC0009781892B39F470E060E0CE0101960E9481
:101ED0007607BBCF8281853009F0B7CF64E070E030
:101EE000CE0101960E94760786E0F801E853FC4F88
:101EF0008083F80182858E3069F1828591E0980FA8
:101F000092872FE3D8011A969C91F801299FE00D42
:101F1000F11D11249385992341F0F80192859E309B
:101F200020F492859F5F9287EDCF91E0F8012FE337
:101F3000829FE00DF11D11249387F801E753FC4FB8
:101F400080838081D801A653BC4F811105C082E0F7
:101F50008C937BCF80E0F1CF21E02C9380813FE315
:101F6000839FC0011124F801E80FF91F3B96DF01A0
:101F70001D923A95E9F7800F911FFC012387F80124
:101F8000E553FC4F80819181CF97918380835DCF12
:101F900081E080939F0382E793E0909361078093B1
:101FA000600708950F931F93CF93DF93EC0188810F
:101FB0009981009759F02A813B812617370730F025
:101FC00081E0DF91CF911F910F9108958B016F5F99
:101FD0007F4F0E94902C009759F0998388831B8330
:101FE0000A832C813D81232B59F7FC011082E8CF15
:101FF00080E0E7CFEF92FF920F931F93CF93DF9391
:10200000EC017B018A01BA010E94D20F81110BC041
:10201000CE010E94670ECE01DF91CF911F910F91EB
:10202000FF90EF9008951D830C83B70188819981FB
:102030000E94562DF0CFFB0101900020E9F7319767
:10204000AF01461B570B0C94FA0FEF92FF920F93C0
:102050001F93CF93DF93CDB7DEB7A1970FB6F89458
:10206000DEBF0FBECDBF7C01CB01BA01F7011182EB
:10207000108213821282158214828E010F5F1F4F0D
:1020800022E044E00E94CD25009789F0BC01C70101
:102090000E941B10A1960FB6F894DEBF0FBECDBFF5
:1020A000DF91CF911F910F91FF90EF900895C7019D
:1020B0000E94670EEFCF0F931F93CF93DF93CDB79F
:1020C000DEB762970FB6F894DEBF0FBECDBF8C01AE
:1020D000CB01F801118210821382128215821482C0
:1020E0004AE0BE016F5F7F4F0E94EB25BE016F5F2C
:1020F0007F4FC8010E941B1062960FB6F894DEBF96
:102100000FBECDBFDF91CF911F910F910895FC01BC
:10211000118210821382128215821482FB010190B7
:102120000020E9F73197AF01461B570B0C94FA0FCB
:10213000DF92EF92FF920F931F93CF93DF9300D024
:1021400000D000D0CDB7DEB77B01682F8091AD08FD
:102150009091AE080E94220C6BE871E0CE010196CE
:102160000E948710D70114960D911C91011511053D
:10217000D9F00031110510F000E110E0F7016081A5
:102180007181FB01E00FF11FD0801082CE0101961A
:102190006115710529F10E941B10D7018D919C9149
:1021A000080F191FF801D0824D815E814031510521
:1021B000D0F48A010F5F1F4FB801CE0101960E9433
:1021C000D20F882389F329813A818D819E816AE823
:1021D00071E0820F931F0E94562D1E830D83E4CF62
:1021E0000E94670EDACF8091AD089091AE086981A8
:1021F0007A81DC01ED91FC910280F381E02D09955B
:10220000CE0101960E94790E26960FB6F894DEBF95
:102210000FBECDBFDF91CF911F910F91FF90EF9037
:10222000DF9008951F920F920FB60F9211242F93F3
:102230003F938F939F93AF93BF9380913D03909172
:102240003E03A0913F03B091400330913C0323E053
:10225000230F2D3758F50196A11DB11D20933C0386
:1022600080933D0390933E03A0933F03B0934003BC
:102270008091410390914203A0914303B0914403A4
:102280000196A11DB11D8093410390934203A09339
:102290004303B0934403BF91AF919F918F913F91BE
:1022A0002F910F900FBE0F901F90189526E8230FC7
:1022B0000296A11DB11DD2CF1F920F920FB60F92A1
:1022C00011242F933F934F935F936F937F938F933B
:1022D0009F93AF93BF93EF93FF93E0911501F0911C
:1022E00016010995FF91EF91BF91AF919F918F9149
:1022F0007F916F915F914F913F912F910F900FBE02
:102300000F901F9018951F920F920FB60F921124E5
:102310002F933F934F935F936F937F938F939F93ED
:10232000AF93BF93EF93FF93E0911301F0911401EA
:102330000995FF91EF91BF91AF919F918F917F91FF
:102340006F915F914F913F912F910F900FBE0F9022
:102350001F9018951F920F920FB60F9211242F9372
:102360003F934F935F936F937F938F939F93AF931D
:10237000BF93EF93FF93E0911101F0911201099542
:10238000FF91EF91BF91AF919F918F917F916F914D
:102390005F914F913F912F910F900FBE0F901F9023
:1023A00018951F920F920FB60F9211242F933F93FF
:1023B0004F935F936F937F938F939F93AF93BF934D
:1023C000EF93FF93E0910F01F09110010995FF91B8
:1023D000EF91BF91AF919F918F917F916F915F919D
:1023E0004F913F912F910F900FBE0F901F90189516
:1023F0001F920F920FB60F9211242F933F934F937A
:102400005F936F937F938F939F93AF93BF93EF935C
:10241000FF93E0910D01F0910E010995FF91EF916D
:10242000BF91AF919F918F917F916F915F914F91EC
:102430003F912F910F900FBE0F901F9018951F92F4
:102440000F920FB60F9211248F939F938091E1000A
:102450009091E100937F9093E10083FF0FC0109271
:10246000E90091E09093EB001092EC0092E39093DE
:10247000ED001092E50298E09093F00082FF22C0F8
:1024800093E09093E9009091F200992319F09AE378
:102490009093E8009091E202992341F09091E2023A
:1024A00091509093E202911101C05D989091E102E8
:1024B000992341F09091E10291509093E1029111A2
:1024C00001C0289884FF18C08091E2008E7E816050
:1024D0008093E2008091E1008F7E8093E100809103
:1024E000E3028E7E80618093E3029F918F910F9033
:1024F0000FBE0F901F90189580FFF7CF8091E200DC
:102500008E7E80618093E2008091E1008E7E8093D8
:10251000E1008091E3028E7E8160E5CF1F920F92F1
:102520000FB60F921124CF92DF92EF92FF920F938A
:102530001F932F933F934F935F936F937F938F934B
:102540009F93AF93BF93EF93FF93CF93DF93CDB759
:10255000DEB76C97DEBFCDBF1092E9008091E80036
:1025600083FF25C068E0CE0145960E94690782EF8F
:102570008093E8008D8987FF39C09091E80090FF33
:10258000FCCF982F907609F034C19E894F89588DE1
:102590002F89F88C911131C0803861F58091E40267
:1025A0008093F1001092F1008EEF8093E8006C961A
:1025B0000FB6F894DEBF0FBECDBFDF91CF91FF9174
:1025C000EF91BF91AF919F918F917F916F915F91AB
:1025D0004F913F912F911F910F91FF90EF90DF90BE
:1025E000CF900F900FBE0F901F9018959EEF909375
:1025F000E800C7CF1092F100D5CF913059F4811186
:10260000D3CF4130510581F68091E4028D7F8093D4
:10261000E402CACF933049F48111C6CF413051054D
:1026200019F68091E4028260F2CF953041F48091F6
:10263000E80080FFFCCF20682093E300B5CF963000
:1026400009F0A9C00B8D1C8D22E01092E9001092B8
:10265000DF021092DE02F2122EC01092DD02109202
:10266000DC020E9477081F8299E09983FA8291E048
:102670009E8390EA98879AEF99872091DE023091A5
:10268000DF02275F3F4F3C832B838D831092E9004D
:102690001092DF021092DE021093DD020093DC0242
:1026A00049E050E0BE016F5F7F4F80E00E94F0057F
:1026B0000E94770879CF1093DD020093DC020E941C
:1026C000D607DC0112960D911C910115110509F434
:1026D0004BC1D801ED91FC910480F581E02DBE0144
:1026E0006B5E7F4FC8010995009709F038C1F8016A
:1026F00000851185EACFF3E0FF120EC08F89882391
:1027000009F440C0823061F440E86DE08AE092E074
:102710000E94BD05811148CF81E28093EB0047CF35
:10272000813029F440E86BE08EEF91E0F1CF833007
:1027300099F70E94D607DC011296ED90FC908E016D
:102740000F5F1F4F6801E114F10479F0D701ED919B
:10275000FC910680F781E02DB801C7010995080FAB
:10276000111DF701E084F184EECFD8011C92F6012F
:1027700001900020E9F73197BF016C197D0940E015
:10278000C601C6CF68EE71E0FB01449150E080E8DD
:102790000E94F00509CF973009F4BECF983021F49C
:1027A00081E08093F10000CF993009F0FDCE837075
:1027B00009F0B2CFE8E1F1E081E031E096E3219168
:1027C000222371F08093E9003093EB00DF01119731
:1027D0002C912093EC009093ED008F5F873079F778
:1027E0008EE78093EA001092EA008F898093E502D9
:1027F000DBCE8B8D9C8D1092E9001092DF0210923F
:10280000DE029093DD028093DC02898D81118CC001
:102810008E899D89913A49F4813209F07DCF47E054
:1028200050E065E071E080E0B3CF913209F074CF01
:10283000833269F48F89988DB0E0A0E08093000125
:1028400090930101A0930201B0930301ADCE8032B9
:1028500039F467E070E085E091E00E947607A4CE4D
:10286000823209F0A1CE8F8980930C01EEEFFFE751
:10287000859194918B3F9C4D51F1E0E0F8E080917F
:10288000050190910601A0910701B0910801803BDC
:102890009440A105B105F1F480910C0180FD1AC0AE
:1028A000EE3F8AE0F80789F587E797E79183808311
:1028B000809160008093E00288E19BE00FB6F8947D
:1028C000A895809360000FBE909360006DCEEEEFF0
:1028D000FAE0D5CF808191818737974709F064CEA0
:1028E000A895809160008861809360008091E002EB
:1028F00080936000EE3F2AE0F20789F08091FE0AA3
:102900009091FF0A918380834FCE80819181873798
:10291000980751F29093FF0A8093FE0AC5CF109258
:10292000FF0A1092FE0A40CE0E94D607DC011296E2
:102930000D911C910115110509F4EECED801ED9110
:10294000FC910190F081E02DBE016B5E7F4FC801CC
:102950000995811129CEF80100851185EBCF181654
:1029600019060CF421CED8CEF1E0FF12C4CE6CEEE5
:1029700071E00ACF1F920F920FB60F9211242F937E
:102980003F934F935F936F937F938F939F93AF93F7
:10299000BF93EF93FF938091B900887F803609F44D
:1029A0004AC0F0F5883209F4A7C018F5803109F45F
:1029B0009BC0B8F4882309F4F9C0883009F494C0A6
:1029C000FF91EF91BF91AF919F918F917F916F9107
:1029D0005F914F913F912F910F900FBE0F901F90DD
:1029E0001895883109F488C0803251F7809310031C
:1029F00014C0803409F49DC040F48033B9F38833A7
:102A0000F9F68093100385ECB0C0803509F485C0D9
:102A1000883509F496C0883499F60E94810ED0CF8B
:102A2000883909F48CC038F5883729F050F4883695
:102A300011F0803729F683E0809312031092AD02E3
:102A400057C0883809F47BC0803919F0803809F004
:102A5000B7CF8091AD02803208F071C0E091AD0235
:102A600081E08E0F8093AD028091BB00F0E0E357D0
:102A7000FD4F80833DC0803B39F0E0F4803A09F49B
:102A800079C0883A09F09CCF84E0809312031092B9
:102A90008C0210928B02E091E602F091E702099518
:102AA00080918B0281110FC081E080938B02109284
:102AB0006B0209C0803C09F4A6CF883C09F4A3CF7F
:102AC000883B09F07DCFE0918C0281E08E0F8093EE
:102AD0008C02F0E0E559FD4F80818093BB0090911E
:102AE0008C0280918B0229C080910D038093BB00E2
:102AF00085EC8093BC0064CF90910F0380910E030E
:102B0000981758F5E0910F0381E08E0F80930F0323
:102B1000F0E0E451FD4F8081E9CFE0910F0381E0C7
:102B20008E0F80930F038091BB00F0E0E451FD4FC6
:102B3000808390910F0380910E039817C8F285E867
:102B4000D8CFE0910F0381E08E0F80930F03809127
:102B5000BB00F0E0E451FD4F8083809111038111AF
:102B60005CCF81E080930C0384EA8093BC001092D8
:102B7000120326CF85EC8093BC0010921203809143
:102B8000AD02803230F4E091AD02F0E0E357FD4F4A
:102B900010826091AD0270E0E091E802F091E902EC
:102BA0008DE892E009951092AD020ACF10921003C1
:102BB00034CFFC016083128211828FEF93E0948303
:102BC00083831682158217821086118612861386D9
:102BD00014861586168680E090E0A8ECB2E487871C
:102BE000908BA18BB28B80E480937C0087E88093EC
:102BF0007A000895EF92FF920F931F93CF93109254
:102C000048031092470388EE93E0A0E0B0E0809381
:102C1000490390934A03A0934B03B0934C032BE5D5
:102C200031E030934603209345032FEF3FEF30937D
:102C3000520320935103109221091092200980938E
:102C4000220990932309A0932409B09325098DE6C6
:102C500091E090931F0980931E098EE199E0909373
:102C60004B0980934A0905E019E010920509C1E07B
:102C7000C0930609109207091092080910920909D9
:102C800010920A0910920B09109219091092180952
:102C900080E090E0A0E8BFE380931A0990931B09BD
:102CA000A0931C09B0931D0980E090E0A7E0B4E474
:102CB0008093140990931509A0931609B0931709EE
:102CC00080E090E0A7E0B4EC8093100990931109A4
:102CD000A0931209B093130961E08EED98E00E9471
:102CE000D91560E081EF98E00E94D91567E088EB84
:102CF00098E00E94D91566E08BEC98E00E94D91507
:102D00002EED38E03093B0082093AF0888EB98E0C0
:102D10009093B2088093B1081093B4080093B3085D
:102D20004CEA58E05093B6084093B5081092B708A3
:102D30004AE259E05093500840934F0830935208AC
:102D40002093510890935408809353081093560889
:102D5000009355081092720810927108109275082D
:102D600010927A08109279088FEF93E090937C0884
:102D700080937B0810927E0810927D0890938008C3
:102D800080937F08109282081092810890938408A3
:102D90008093830810928608109285089093880883
:102DA0008093870810928A081092890890938C0863
:102DB00080938B0810928E0810928D089093900843
:102DC00080938F0810929208109291089093940823
:102DD0008093930810929608109295089093980803
:102DE0008093970810929A081092990890939C08E3
:102DF00080939B0810929E0810929D089093A008C3
:102E000080939F081092A2081092A1089093A408A2
:102E10008093A308C093AB08C093A50890E2909359
:102E200074081092760888E1809377088CE180938B
:102E3000780835E03093B907C093BA0789E08093EA
:102E4000BB0728E02093BC0721EA2093BD07C0936D
:102E5000BE078093BF07C093C00745E84093C107F2
:102E6000C093C2072093C3071092C4073093C507CD
:102E70008093C60749E14093C707C093C80749E25A
:102E80004093C9079093CA0745E14093CB0710923E
:102E9000CC0745E24093CD07C093CE0775E770930A
:102EA000CF07C093D00765E96093D1079093D2070D
:102EB00095E59093D3071092D40795E69093D507A4
:102EC0001092D60751E85093D70792E09093D80715
:102ED0003093D907C093DA078093DB07C093DC07F0
:102EE00006E10093DD07C093DE0710E81093DF07CB
:102EF000B6E2B093E007AFEFA093E107FFE7F093EE
:102F0000E2077093E307E0E1E093E4076093E507ED
:102F10009093E6072093E7071092E8078093E9076C
:102F200043E34093EA078093EB0744E34093EC07C5
:102F30005093ED079093EE0740EC4093EF073093EA
:102F4000F0079093F1070093F207C093F3071093F3
:102F5000F407B093F507A093F607F093F707709383
:102F6000F807E093F9076093FA0733E03093FB0723
:102F70002093FC071092FD078093FE0724EC20931A
:102F8000FF078093000825EC209301088093020836
:102F900088EC8093030850930408909305084093AD
:102FA0000608409307088FE490E00E946B2B7C0199
:102FB0008FE4E9EBF7E0D70101900D928A95E1F7F4
:102FC0008BE090E00E946B2B8C01FC01118210823F
:102FD000F382E28281E992E0958384838FE490E03A
:102FE000978386838BEC94E091878087128680910B
:102FF000B107811104C00E94EA07C093B107E091B4
:10300000AB07F091AC07309709F080C01093AC0784
:103010000093AB07F8018681978120853185820F67
:10302000931F2091AD073091AE07820F931F9093AD
:10303000AE078093AD0790917408892F8695869589
:103040008695977009F069C080937508C0917508DE
:103050008C2F90E0009711F481E090E00E946B2BA0
:10306000909372088093710881E090917608911195
:1030700001C080E0C65F8C0F8093A60810925808AC
:103080001092570810925A081092590810925C0832
:1030900010925B0810925E0810925D081092600812
:1030A00010925F08109262081092610810926408F2
:1030B00010926308109266081092650810926808D2
:1030C0001092670810926A081092690810926C08B2
:1030D00010926B088FEF9FEF90936E0880936D08AE
:1030E0009093700880936F0890E080E020917508BD
:1030F00028171906A1F09CF0E0917108F091720870
:10310000E80FF91F10820196F1CFFC0180819181B7
:103110000097D9F7118300837DCF8F5F95CFCF9133
:103120001F910F91FF90EF900895CF93DF93CDB74C
:10313000DEB7C655D1090FB6F894DEBF0FBECDBFBE
:10314000789484B5826084BD84B5816084BD85B582
:10315000826085BD85B5816085BD80916E0081608E
:1031600080936E0010928100809181008260809334
:103170008100809181008160809381008091800036
:1031800081608093800080919100826080939100A3
:103190008091910081608093910080919000816086
:1031A000809390008091C10084608093C1008091E1
:1031B000C10082608093C1008091C10081608093D2
:1031C000C1008091C30081608093C3008091C000E2
:1031D00082608093C0008091C20081608093C200B1
:1031E00080917A00846080937A0080917A00826076
:1031F00080937A0080917A00816080937A00809138
:103200007A00806880937A001092E5021092E402BE
:103210001092E3028091D70081608093D70080EA0A
:103220008093D80089B5806189BD89B5826089BDE8
:1032300009B400FEFDCF61E070E080E090E00E9404
:1032400059058091D8008F7C80618093D80080914F
:10325000E000807F8093E0008091E1008E7E80938B
:10326000E1008DE08093E200559A209A5D982898BD
:1032700080910509882309F45DC4813009F45CC498
:10328000823009F45BC4833009F45AC4873019F4DE
:1032900084E00E94310480910609882309F452C415
:1032A000813009F451C4823009F450C4833009F4E8
:1032B0004FC4873019F484E00E943104BE01675E78
:1032C0007F4F90E080E00E94DD0EE091AF08F0912A
:1032D000B008898D9A8D94838383C12CD12C28ECDE
:1032E000E22E22E4F22EC786D08AE18AF28ABE015B
:1032F000675E7F4F80E190E00E94DD0EE091AF08B5
:10330000F091B008898D9A8D9283818313861486FB
:1033100015861686BE01675E7F4F80E290E00E94B0
:10332000DD0EE091AF08F091B008898D9A8D978BF2
:10333000868BC2A2D3A2E4A2F5A2BE01675E7F4F34
:1033400080E390E00E94DD0EE091AF08F091B008BC
:10335000898D9A8D958B848B168E178E10A211A253
:10336000BE01675E7F4F80E690E00E94DD0EE09137
:10337000B108F091B208898D9A8D94838383C786B2
:10338000D08AE18AF28ABE01675E7F4F80E790E0D3
:103390000E94DD0EE091B108F091B208898D9A8DFE
:1033A000928381831386148615861686BE01675E16
:1033B0007F4F80E890E00E94DD0EE091B108F0912F
:1033C000B208898D9A8D978B868BC2A2D3A2E4A274
:1033D000F5A2BE01675E7F4F80E990E00E94DD0E9E
:1033E000E091B108F091B208898D9A8D958B848B0C
:1033F000168E178E10A211A280E490E00E947B2905
:103400008D8781E490E00E947B298E8782E490E0A2
:103410000E947B298F8783E490E00E947B29888B20
:10342000E091B308F091B4088D859E85AF85B88989
:10343000858B968BA78BB08F8DE090E00E946B2BD5
:103440008C01DC0113961C921E92129783E491E08A
:1034500011969C938E9319961C92199787E2149655
:103460008C93149780E11A968C931A9782E01B969E
:103470008C931B971C961C921093AE080093AD087A
:1034800010921903109218031092EB021092EA02A4
:103490000E94B7098CE895E09093E7028093E602DA
:1034A0008DE895E09093E9028093E802F801158297
:1034B0008385823010F098E09583D80118968C931C
:1034C00062E370E080E090E00E945905F8016485B5
:1034D000C8010E947B0A68EE73E080E090E00E94E1
:1034E000590560E3C8010E94F20B8BE4E82E86E4E4
:1034F000F82EC7010197F1F760E3C8010E94F20BB3
:10350000C7010197F1F760E3C8010E94F20B83E560
:1035100092E00197F1F760E2C8010E94F20BD80136
:1035200015966C91606240E0C8010E940B0C84E02B
:10353000F801868340E06CE0C8010E940B0CC801D2
:103540000E94510C82E0D80117968C9340E066E00F
:10355000C8010E940B0C40E062E0C8010E940B0C05
:103560008BE39FE10197F1F78091AD089091AE0850
:1035700028E0FC01248760E00E947B0A6CE871E08F
:10358000CE0101960E948710BE016F5F7F4F80E0E1
:103590000E949810CE0101960E94790E1092190394
:1035A000109218031092EB021092EA020E94B709DF
:1035B0008CE895E09093E7028093E6028DE895E031
:1035C0009093E9028093E80227982F9A20E030E850
:1035D00030938208209381088FEF9FE790938408AF
:1035E00080938308309386082093850890938808F9
:1035F0008093870830938A082093890890938C08D9
:1036000080938B0830939A082093990890939C0894
:1036100080939B0830939E0820939D089093A00868
:1036200080939F083093A2082093A1089093A40848
:103630008093A308109273080E946E0C812C912C29
:1036400098ECA92E92E4B92E80913A0390913B0315
:103650009C012F5F3F4F67963FAF2EAF6797309328
:103660003B0320933A0320FD26C2609151087091DC
:103670005208CE01CD960E94770BEDACFEAC0FAD9B
:1036800021961FAD219722966FAC229723967FAC8F
:1036900023972496CFAC24972596DFAC25972696C2
:1036A0002FAC269727963FAC279728964FAC2897A4
:1036B00029965FAC29979101A201B701C8010E9428
:1036C000662B18160CF446C29301A601B701C80177
:1036D0000E94572887FD41C29301A601B101C20192
:1036E0000E94512A9B01AC0160E07FEF8FE797E4D5
:1036F0000E94BE2A1B012C019301A601B701C8013B
:103700000E94512A9B01AC01C201B1010E94BD2857
:1037100020E030E040E057E40E94512A0E94302B24
:1037200070935E0860935D088091730881110E9418
:103730006E0C60915108709152086D5E7F4FCE0102
:10374000C1960E94770BE9A8FAA80BA91CA96DA83D
:103750007EA8CFA8D8AC29AC3AAC4BAC5CAC9101FC
:10376000A201B701C8010E94662B18160CF4F8C11B
:103770009701A801B301C6010E94662B18160CF42C
:10378000F2C19301A601B101C2010E94512A9B011D
:10379000AC0160E07FEF8FE797E40E94BE2A1B0137
:1037A0002C019301A601B701C8010E94512A9B0177
:1037B000AC01C201B1010E94BD2820E030E040E030
:1037C00057E40E94512A0E94302B70936008609346
:1037D0005F088091730881110E946E0C80915108DE
:1037E000909152080E94650B909174088111BEC19E
:1037F000E0914F08F091500880818111B7C1992361
:1038000061F0E0917108F091720880818E7F808371
:103810008091730881110E946E0C60915308709121
:103820005408CE0185960E94770BEDA0FEA00FA153
:1038300018A569A47AA4CBA4DCA42DA43EA44FA40B
:1038400058A89701A801B101C2010E94572887FD1D
:1038500097C19701A801B301C6010E94662B1816F3
:103860000CF491C19301A601B101C2010E94512A39
:103870009B01AC0160E07FEF8FE797E40E94BE2AD6
:103880001B012C019301A601B701C8010E94512A16
:103890009B01AC01C201B1010E94BD2820E030E0D3
:1038A00040E057E40E94512A0E94302B7093680830
:1038B000609367088091730881110E946E0C60917B
:1038C0005308709154086D5E7F4FCE0149960E9457
:1038D000770BE98CFA8C0B8D1C8D6D8C7E8CCF8CCC
:1038E000D8A029A03AA04BA05CA09701A801B101E3
:1038F000C2010E94572887FD49C19701A801B30161
:10390000C6010E94662B18160CF443C19301A60150
:10391000B101C2010E94512A9B01AC0160E07FEF1E
:103920008FE797E40E94BE2A1B012C019301A60198
:10393000B701C8010E94512A9B01AC01C201B1012B
:103940000E94BD2820E030E040E057E40E94512A68
:103950000E94302B70936A08609369088091730805
:1039600081110E946E0C01E010E0802F909174088C
:10397000E0914F08F0915008E00FF11F20812111D4
:103980000BC1091708F5E02FE695E695E69520911D
:10399000710830917208E20FF32FF11D877021E05A
:1039A00030E040E050E004C0220F331F441F551F99
:1039B0008A95D2F7922F9095808189238083809178
:1039C000730881110E946E0C0F5F1F4F00321105AA
:1039D00061F60091550810915608D80112966D9124
:1039E0007D918D919C9115970E945E289B01AC0161
:1039F000F801658976898789908D0E94BD28D80154
:103A000017966D937D938D939C931A978CE0F80194
:103A10003796DE011D9601900D928A95E1F7ED84AF
:103A2000FE840F85188969887A88CB88DC882D8880
:103A30003E884F88588C9701A801B101C2010E94AD
:103A4000572887FDC7C09701A801B301C6010E948E
:103A5000662B18160CF4C1C09301A601B101C20176
:103A60000E94512A9B01AC0160E07FEF8FE797E451
:103A70000E94BE2A1B012C019301A601B701C801B7
:103A80000E94512A9B01AC01C201B1010E94BD28D4
:103A900020E030E040E057E40E94512A0E94302BA1
:103AA00070936C0860936B088091730881110E9479
:103AB0006E0C0E946E0C67968EAD9FAD679764E1A9
:103AC00070E00E94232A892B09F0B5C08091B107CC
:103AD000811105C00E94EA0781E08093B1078091BF
:103AE00098038F5F0E945007882309F494C0809147
:103AF000980340E450E06BE677E08F5F0E94DC06BD
:103B000080916C07E0916B07E150ED3008F083C0C5
:103B1000F0E0E357F24E0C944B2AF01D931EB21EB8
:103B2000EB1E0A1F171F0B1E0B1E0B1E2A1FA01FAA
:103B3000C21FE51F82E0ADCB83E0ABCB81E0A9CB18
:103B400080E0A7CB82E0B8CB83E0B6CB81E0B4CBFA
:103B500080E0B2CB71018201BFCD73018601BCCD83
:103B6000710182010ECE730186010BCE992309F4F7
:103B700054CEE0917108F09172088081816047CE47
:103B8000710182016FCE730186016CCE71018201D9
:103B9000BDCE73018601BACE091708F015CFE02F0C
:103BA000E695E695E6952091710830917208E20F4E
:103BB000F32FF11D877021E030E040E050E004C0B9
:103BC000220F331F441F551F8A95D2F7C901208148
:103BD000822BF4CE710182013FCF730186013CCF6D
:103BE00020916E0730916F07BFE38B9FF001112486
:103BF000EB56FC4F37AF26AF80917707838F8091CC
:103C00007807848F80916D078487809174078787F8
:103C100080917607828F8EED98E00E94D90B81EF1C
:103C200098E00E94D90B88EB98E00E94D90B8BECAE
:103C300098E00E94D90B80913A0390913B0368EC85
:103C400070E00E94232A892B09F00BC30E943405DF
:103C50006B017C01809112038111BAC181E08093D4
:103C60001203809311039FEF9093100310920F03A0
:103C700080930E0380930D0380910D0380618093E8
:103C80000D0380910C03813009F030C210920C03B7
:103C90000E9434056B017C0180910D038093BB0071
:103CA0008091140390911503A0911603B09117030E
:103CB000892B8A2B8B2BA1F00E94340500911403D1
:103CC0001091150320911603309117036C197D098B
:103CD0008E099F09061717072807390708F499C1A5
:103CE0008091BC0083FDD8CF85EC8093BC000E94FE
:103CF00034056B017C0180911203813009F4F8C115
:103D000080910F03823008F015C280910F03ECEE12
:103D1000F2E0AAE1B3E090E0981709F47FC12191A5
:103D20002D939F5FF9CF20916D0730916E074FE380
:103D3000849FF0011124EB56FC4F318B208B809136
:103D40006F0790917007938B828B80917107909190
:103D50007207978B868B8091750790917607958B6C
:103D6000848B59CF40916D0720916E0730916F077A
:103D70005FE3859FC0011124FC01ACE04A9FE00D88
:103D8000F11D1124EB56FC4F378F268F20917007C1
:103D90003091710731A320A32091720730917307EE
:103DA00033A322A3209174073091750735A324A370
:103DB000209176073091770737A326A320917807C3
:103DC0003091790731A720A7FC01EB56FC4F858D78
:103DD0008F5F858F20CF20916D0730916E07BFE3F5
:103DE0008B9FF0011124EB56FC4F318F208F809177
:103DF0006F079091700796878587809171079091E2
:103E0000720797AB86AB809173079091740795AF5B
:103E100084AF01CF20916D0730916E074FE3849FEF
:103E2000F0011124EB56FC4F318F208FF4CE2091FE
:103E30006D0730916E075FE3859FF0011124EB560B
:103E4000FC4F31AF20AF80916F079091700793AF17
:103E500082AFE1CE10916D07113009F045C090910D
:103E60006E079923D9F0EFE38E9FD0011124AB5652
:103E7000BC4FDE964D915C91DF97949F9001959F8A
:103E8000300D1124DF963C932E93DE979F3F31F443
:103E90002FEF3FE7DF963C932E93DE978F3008F0AD
:103EA000BACE2FE3829FF0011124EB56FC4F82E043
:103EB0008387DF01A05CBF4F11961C921E928FB7C3
:103EC000F89400913D0310913E0320913F033091FF
:103ED00040038FBFF896028713872487358716869D
:103EE0001786108A118A97CE123089F48FE993E0F1
:103EF0000E94A808E0916C07EF3008F08CCE3FE3F9
:103F0000E39FF0011124EB56FC4F1387D2CF1330FF
:103F100009F081CE8F3008F07ECE4FE3849FF00110
:103F20001124EB56FC4F83858D7F8387809160073A
:103F300090916107CF9690936107809360076BCE55
:103F40008F3F71F481E080939F0381EB93E0A0EABF
:103F5000B3E0FC011D923197E9F782E793E0EBCFE4
:103F60008F3008F058CE2FE3829FF0011124EB56DA
:103F7000FC4F138690919F03891708F04CCE8093D5
:103F80009F0349CE813031F480915B07826080933A
:103F90005B0741CE823021F480915B078D7FF7CFA4
:103FA000833029F48FE993E00E94A80834CE84304E
:103FB00049F2853021F481E0809351072CCE863080
:103FC00009F029CE1092510726CE8093680723CEA0
:103FD0008091140390911503A0911603B0911703DB
:103FE000892B8A2B8B2B09F435CE0E943405009146
:103FF00014031091150320911603309117036C19C7
:104000007D098E099F09061717072807390708F049
:1040100021CE809113030E94D50980E010921903EC
:104020008093180380914A0990914B09DC01ED912E
:10403000FC910084F185E02D09950297E9F58091C6
:104040004A0990914B09DC01ED91FC910284F385C2
:10405000E02D09958C0180914A0990914B09DC0172
:10406000ED91FC910284F385E02D0995EAE2F9E0F7
:1040700030E020E01127A801022E02C05595479597
:104080000A94E2F7417041932F5F3F4F283031058A
:1040900091F7E2E3F9E030E020E09927AC01022E4D
:1040A00002C0559547950A94E2F7417041932F5FFE
:1040B0003F4F2830310591F7D0900401DD2009F4FD
:1040C000E7C4E091B708EB3008F0D1C4F0E0E5595F
:1040D000FF4D0C944B2A9C2002217221F221502288
:1040E000C32229239F230E247224DA2485EEFDCDDA
:1040F0008091140390911503A0911603B0911703BA
:10410000892B8A2B8B2B09F4F6CD0E943405009164
:1041100014031091150320911603309117036C19A5
:104120007D098E099F09061717072807390708F028
:10413000E2CD6FCF82E0EBCD8091AF089091B008D7
:104140000E94650B8823C1F10E946E0BE091B308B9
:10415000F091B40812821382148215826DE971E025
:10416000CE0101960E948710BE016F5F7F4F80E0F5
:104170000E949810CE0101960E94790EE091B3083A
:10418000F091B4086281738184819581CE0101969A
:104190000E945B10BE016F5F7F4F81E00E9498100C
:1041A000CE0101960E94790EBFEFE9E6F8E1B15029
:1041B000E040F040E1F7E9C060E08091AD08909107
:1041C000AE080E94220C6EEA71E08091AD089091D9
:1041D000AE080E94080EE091B308F091B408628125
:1041E000738184819581CE0101960E945B10BE018E
:1041F0006F5F7F4F81E00E949810CE0101960E9470
:10420000790E2DC06AEB71E0CE0101960E948710F5
:10421000BE016F5F7F4F80E00E949810CE01019633
:104220000E94790E61E08091AD089091AE080E94E5
:10423000220C10E18091AF089091B0080E94650BAC
:104240008823B9F00E946E0B80E00E94170E81E077
:104250000E94170E8091B7088F5F8093B708D092A5
:10426000040180E090E0892B09F4EEC90E9400006F
:10427000EBC96BEC71E08091AD089091AE080E94A3
:10428000080E2FEF33EC49E0215030404040E1F779
:1042900000C00000115071F68091AD089091AE08F9
:1042A0000E94510C60E08091AD089091AE080E9490
:1042B000220C6DEC71E08091AD089091AE080E94E7
:1042C000080E5FEF89E698E1515080409040E1F799
:1042D00000C000008091AD089091AE080E94510C82
:1042E000D12CBDCF8091AF089091B0080E94650B92
:1042F000882309F44DC00E946E0B6DE971E0CE0178
:1043000001960E948710BE016F5F7F4F80E00E9480
:104310009810CE0101960E94790E6091AF087091BD
:10432000B008CE0101960E94770B49815A816B81BA
:104330007C81CE01875B9F4F0E942510BE01675B89
:104340007F4F81E00E949810CE01875B9F4F0E94B3
:10435000790EE091AF08F091B00885819681948341
:1043600083838786908AA18AB28A9A838983BE01D1
:104370006F5F7F4F90E080E00E94B90EAFEFB9E62B
:10438000E8E1A150B040E040E1F700C000005CCFA0
:1043900060E08091AD089091AE080E94220C6EED15
:1043A00071E08091AD089091AE080E94080E609176
:1043B000AF087091B008CE0101960E94770B498139
:1043C0005A816B817C81CE01875B9F4F0E942510B3
:1043D000BE01675B7F4F81E00E949810CE01875B32
:1043E0009F4F0DCF8091AF089091B0080E94650B50
:1043F000882309F44BC00E946E0B6DE971E0CE0179
:1044000001960E948710BE016F5F7F4F80E00E947F
:104410009810CE0101960E94790E6091AF087091BC
:10442000B008CE0101960E94770B49815A816B81B9
:104430007C81CE01875B9F4F0E942510BE01675B88
:104440007F4F81E00E949810CE01875B9F4F0E94B2
:10445000790EE091AF08F091B00885819681928342
:10446000818313861486158616869A838983BE01F6
:104470006F5F7F4F80E190E00E94B90EFFEF29E669
:1044800038E1F15020403040E1F77FCF60E080918B
:10449000AD089091AE080E94220C69EE71E081CFC8
:1044A0008091AF089091B0080E94650B882309F4B1
:1044B0004DC00E946E0B6DE971E0CE0101960E9425
:1044C0008710BE016F5F7F4F80E00E949810CE0181
:1044D00001960E94790E6091AF087091B0086D5EF0
:1044E0007F4FCE0101960E94770B49815A816B81E3
:1044F0007C81CE01875B9F4F0E942510BE01675BC8
:104500007F4F81E00E949810CE01875B9F4F0E94F1
:10451000790EE091AF08F091B008808D918D978B66
:10452000868B82A293A2A4A2B5A29A838983BE019C
:104530006F5F7F4F80E290E00E94B90E4FEF59E627
:1045400088E1415050408040E1F71FCF60E080910A
:10455000AD089091AE080E94220C64EF71E080914A
:10456000AD089091AE080E94080E61E08091AD0800
:104570009091AE080E94220C6091AF087091B00833
:104580006D5E7F4F18CF8091AF089091B0080E9468
:10459000650B882309F44DC00E946E0B6DE971E034
:1045A000CE0101960E948710BE016F5F7F4F80E0B1
:1045B0000E949810CE0101960E94790E6091AF087A
:1045C0007091B0086D5E7F4FCE0101960E94770B0F
:1045D00049815A816B817C81CE01875B9F4F0E940C
:1045E0002510BE01675B7F4F81E00E949810CE01CD
:1045F000875B9F4F0E94790EE091AF08F091B00861
:10460000808D918D958B848B168E178E10A211A2A2
:104610009A838983BE016F5F7F4F80E390E00E94A1
:10462000B90E9FEFA9E6B8E19150A040B040E1F784
:10463000ACCE60E08091AD089091AE080E94220C53
:104640006FEF71E08091AD089091AE080E94080E66
:1046500093CF8091AF089091B0080E94650B88239A
:1046600009F463C00E946E0B6DE971E0CE01019602
:104670000E948710BE016F5F7F4F80E00E949810FC
:10468000CE0101960E94790EE091B308F091B40832
:104690006281738184819581CE0101960E945B10B5
:1046A000BE016F5F7F4F81E00E949810CE0101969E
:1046B0000E94790E0091B3081091B408F80182812C
:1046C0009381A481B581948B838BBC01990F880B56
:1046D000990B0E945E289B01AC0160E070E084EBC6
:1046E00093E40E94BE2AD80155966D937D938D93D5
:1046F0009C93589769837A838B839C83FE013196C0
:104700007F0100E410E0D701CD907D01C8010E9437
:104710007B29C81621F06C2DC8010E9483290F5FE8
:104720001F4F0434110579F73FCD60E08091AD084B
:104730009091AE080E94220C6AE072E046CD809112
:10474000AF089091B0080E94650B882309F44BC014
:104750000E946E0B6DE971E0CE0101960E948710F8
:10476000BE016F5F7F4F80E00E949810CE010196DE
:104770000E94790E6091B1087091B208CE01019645
:104780000E94770B49815A816B817C81CE01875BC6
:104790009F4F0E942510BE01675B7F4F81E00E9402
:1047A0009810CE01875B9F4F0E94790EE091B1086F
:1047B000F091B20885819681948383838786908A5D
:1047C000A18AB28A9A838983BE016F5F7F4F80E698
:1047D00090E00E94B90E2FEF39E648E121503040B9
:1047E0004040E1F7D2CD60E08091AD089091AE08F5
:1047F0000E94220C6CE172E08091AD089091AE08AD
:104800000E94080E61E08091AD089091AE080E9470
:10481000220C6091B1087091B208CDCD8091AF08A3
:104820009091B0080E94650B882309F44BC00E9448
:104830006E0B6DE971E0CE0101960E948710BE01FA
:104840006F5F7F4F80E00E949810CE0101960E941A
:10485000790E6091B1087091B208CE0101960E9464
:10486000770B49815A816B817C81CE01875B9F4F99
:104870000E942510BE01675B7F4F81E00E94981067
:10488000CE01875B9F4F0E94790EE091B108F091B5
:10489000B20885819681928381831386148615865A
:1048A00016869A838983BE016F5F7F4F80E790E011
:1048B0000E94B90E5FEF89E698E151508040904028
:1048C000E1F763CD60E08091AD089091AE080E9461
:1048D000220C6CE272E08091AD089091AE080E94CB
:1048E000080E97CF8091AF089091B0080E94650B99
:1048F000882309F444C00E946E0B6DE971E0CE017B
:1049000001960E948710BE016F5F7F4F80E00E947A
:104910009810CE0101960E94790E6091B1087091B5
:10492000B2086D5E7F4FCE0101960E94770B4981E0
:104930005A816B817C81CE01875B9F4F0E9425103D
:10494000BE01675B7F4F81E00E949810CE01875BBC
:104950009F4F0E94790EE091B108F091B208808DCE
:10496000918D978B868B82A293A2A4A2B5A29A83E3
:104970008983BE016F5F7F4F80E890E0FDCC60E0EF
:104980008091AD089091AE080E94220C6DE372E018
:104990008091AD089091AE080E94080E61E0809170
:1049A000AD089091AE080E94220C6091B108709100
:1049B000B208E6CD8091AF089091B0080E94650BD7
:1049C000882309F444C00E946E0B6DE971E0CE01AA
:1049D00001960E948710BE016F5F7F4F80E00E94AA
:1049E0009810CE0101960E94790E6091B1087091E5
:1049F000B2086D5E7F4FCE0101960E94770B498110
:104A00005A816B817C81CE01875B9F4F0E9425106C
:104A1000BE01675B7F4F81E00E949810CE01875BEB
:104A20009F4F0E94790EE091B108F091B208808DFD
:104A3000918D958B848B168E178E10A211A29A835E
:104A40008983BE016F5F7F4F80E990E015CD60E004
:104A50008091AD089091AE080E94220C6BE472E048
:104A60008091AD089091AE080E94080E9ECF69E536
:104A700072E0CE0101960E948710BE016F5F7F4FEA
:104A800080E00E949810CE0101960E94790E28CCF9
:104A90000091B3081091B408D80112966D917D91E0
:104AA0008D919C9115970E945E28F8012589368981
:104AB0004789508D0E94BD28AB01BC01D8011796D3
:104AC0004D935D936D937C931A97CE01875B9F4FB7
:104AD0000E94251068E871E0CE0101960E948710BF
:104AE0002B96EEACFFAC2B97E114F10409F44AC00D
:104AF0002F960EAD1FAD2F9701151105B1F08D81C9
:104B00009E81080F191FB801CE0101960E94D20F95
:104B10008823C1F129813A818D819E81B701820F5D
:104B2000931F0E94562D1E830D8361961FAE1EAEED
:104B3000619763961FAE1EAE639765961FAE1EAE5D
:104B4000659769817A816115710539F04D815E81C2
:104B5000CE01815B9F4F0E94FA0FBE01615B7F4FC8
:104B600081E00E949810CE01815B9F4F0E94790ED8
:104B7000CE0101960E94790ECE01875B9F4F0E9465
:104B8000790E6FCBCE0101960E94670ECECF809139
:104B90004A0990914B090C94072CEF920F931F93A5
:104BA000CF93DF93E80134E047FD34E1042E000C9D
:104BB000550B57FF03C0519541955109E32E022F24
:104BC000242FAE010E941026CE01DF91CF911F91BC
:104BD0000F91EF900895BB274A3031F4992322F4C6
:104BE000BDE2909581959F4F0C94F725BB27FB0163
:104BF0005527AA27880F991FAA1FA41710F0A41BD6
:104C000083955051B9F7A05DAA3308F0A95DA1932F
:104C1000009779F7B111B1931192CB010C94472809
:104C2000A9E0B0E0E6E1F6E20C94C1296A01F22EB7
:104C3000B02E102FFBE3AF2EA01608F41BE31F5F6E
:104C4000012F27E0AE014F5F5F4F0E946F27BC012D
:104C50008981982F9970913009F43FC09BE2E1FC63
:104C600004C09E2D9170E0FC3AC05E2D5071E82F7B
:104C7000E87083FF46C084E0911101C083E0EF2D0E
:104C8000E81B8F1508F0E0E0D6018E2F20E25523B7
:104C900051F1992329F0D6019C93C60101966C012C
:104CA00096012D5F3F4FE2FE24C08EE4D6018C9327
:104CB00091E411969C93119712968C93D9018E2FA3
:104CC00090E281111BC0E20FF32FF11D10828EEFD5
:104CD0009FEF2996ECE00C94DD299DE2C6CF90E28F
:104CE000C4CF2D9381508111FCCFCE0ED11CE0E0BA
:104CF000D0CF8EE6D6018C9391E6DBCF9D93815089
:104D0000E0CF482F447082FF3DC084E0911101C084
:104D100083E08F1510F4EF2DE81BD6018E2F20E2D3
:104D2000552309F1992329F0D6019C93C6010196D8
:104D30006C0196012D5F3F4FE2FE1BC089E4D60156
:104D40008C938EE411968C93119786E412968C9333
:104D5000D9018E2F90E2882309F4B5CF9D9381501D
:104D6000FACF2D9381508111FCCFCE0ED11CE0E003
:104D7000D9CF89E6D6018C938EE611968C93119744
:104D800086E6E4CF9B0177FF02C030E020E0A1E09F
:104D9000B0E0911102C0B0E0A0E0F9013196AE0F91
:104DA000BF1F8B2C912CBB2009F461C05401EFEF85
:104DB000AE1ABE0AAA0DBB1DFA161B0619F014F096
:104DC0004F2D4A1B511188C0E3FC59C07601A42F16
:104DD000B0E2A1114FC0C40ED11C992309F45BC0ED
:104DE00040E0D6011196F60190836D01552309F438
:104DF00048C0012F060F9A81582F507184FF03C0BD
:104E0000913309F4015010160CF047C0093008F036
:104E100008E0EEE2FE2E5B01A01AB1088501919434
:104E2000819491082F3F320729F4D601FC92F601B4
:104E300031966F016217730794F1021713077CF51F
:104E4000DB01A21BB30BAA24A394B12CAC0EBD1E94
:104E5000AA0DBB1D11968C9121503109D6011196D6
:104E600028153905F4F0F60180836D01DBCFB12CF4
:104E7000A12CA0CFF701B1937F01A150AACF91112E
:104E8000B0CFD601942F50E302C05D9391509111A1
:104E9000FCCFC40ED11C40E0ACCF01E0BACF80E320
:104EA000DBCF6217730731F4963388F4953311F42E
:104EB000552369F0F6018083FD01842F90E2811172
:104EC00008C0A40FB11D1C9290E080E002CF81E3E6
:104ED000F1CF91938150F3CF911183CF8ACF2830B6
:104EE00008F027E03327DA01990F311D87FD916023
:104EF00000966105710539F432602E5F3D9330E311
:104F00002A95E1F708959F3F30F0803871056105DB
:104F100009F03C5F3C5F3D93913008F08068911D43
:104F2000DF93CF931F930F93FF92EF92192F987FE8
:104F30009695E92F96959695E90FFF27EA5FFE4F24
:104F400099273327EE24FF24A701E7010590089451
:104F5000079428F4360FE71EF81E491F511D660FEF
:104F6000771F881F991F0694A1F70590079428F4CE
:104F7000E70EF81E491F561FC11D770F881F991F86
:104F8000661F0694A1F70590079428F4F80E491FB0
:104F9000561FC71FD11D880F991F661F771F0694C4
:104FA000A1F70590079420F4490F561FC71FD81F7B
:104FB000990F661F771F881F0694A9F78491109593
:104FC000177041F0D695C79557954795F794E79494
:104FD0001A95C1F7ECEAF0E06894159015913591B7
:104FE0006591959105907FE27395E118F10A430B65
:104FF000560BC90BD009C0F7E10CF11E431F561F19
:10500000C91FD01D7EF4703311F48A95E6CFE89461
:10501000015030F0080F0AF40027021708F4202F7F
:105020002395022F7A3328F079E37D932A95E9F7C7
:1050300010C07D932A9589F60694979567953795C4
:1050400017951794E118F10A430B560BC90BD009B9
:1050500098F023957E9173957A3308F070E37C93F2
:105060002013B8F77E9170617D9330F0839571E3E2
:105070007D9370E32A95E1F71124EF90FF900F9153
:105080001F91CF91DF91992787FD90950895DC01BD
:10509000FC01672F71917723E1F7329704C07C916F
:1050A0006D9370836291AE17BF07C8F308950E9495
:1050B000992808F481E00895E89409C097FB3EF42C
:1050C00090958095709561957F4F8F4F9F4F992355
:1050D000A9F0F92F96E9BB279395F69587957795D3
:1050E0006795B795F111F8CFFAF4BB0F11F460FF93
:1050F0001BC06F5F7F4F8F4F9F4F16C0882311F0EB
:1051000096E911C0772321F09EE8872F762F05C0FE
:10511000662371F096E8862F70E060E02AF09A9599
:10512000660F771F881FDAF7880F9695879597F98E
:105130000895990F0008550FAA0BE0E8FEEF161628
:105140001706E807F907C0F012161306E407F5077B
:1051500098F0621B730B840B950B39F40A2661F0EF
:10516000232B242B252B21F408950A2609F4A14092
:10517000A6958FEF811D811D08950E94D0280C9463
:1051800041290E94332938F00E943A2920F09523C2
:1051900011F00C942A290C94302911240C947529AF
:1051A0000E94522970F3959FC1F3950F50E0551F4F
:1051B000629FF001729FBB27F00DB11D639FAA276C
:1051C000F00DB11DAA1F649F6627B00DA11D661FBB
:1051D000829F2227B00DA11D621F739FB00DA11DDC
:1051E000621F839FA00D611D221F749F3327A00D96
:1051F000611D231F849F600D211D822F762F6A2F32
:1052000011249F5750409AF0F1F088234AF0EE0F96
:10521000FF1FBB1F661F771F881F91505040A9F7C3
:105220009E3F510580F00C942A290C9475295F3F0C
:10523000E4F3983ED4F3869577956795B795F795FF
:10524000E7959F5FC1F7FE2B880F911D9695879577
:1052500097F9089597F99F6780E870E060E00895F6
:105260009FEF80EC089500240A941616170618067E
:105270000906089500240A9412161306140605065A
:105280000895092E0394000C11F4882352F0BB0FEB
:1052900040F4BF2B11F460FF04C06F5F7F4F8F4F4E
:1052A0009F4F089557FD9058440F551F59F05F3F89
:1052B00071F04795880F97FB991F61F09F3F79F038
:1052C00087950895121613061406551FF2CF4695BA
:1052D000F1DF08C0161617061806991FF1CF86953C
:1052E0007105610508940895E894BB276627772720
:1052F000CB0197F90895F999FECF92BD81BDF89A37
:10530000992780B50895262FF999FECF1FBA92BD2F
:1053100081BD20BD0FB6F894FA9AF99A0FBE019696
:105320000895052E97FB1EF400940E94A82957FDAE
:1053300007D00E94F22907FC03D04EF40C94A82950
:1053400050954095309521953F4F4F4F5F4F0895B1
:1053500090958095709561957F4F8F4F9F4F0895E1
:105360000E94142AA59F900DB49F900DA49F800DBC
:10537000911D112408952F923F924F925F926F9248
:105380007F928F929F92AF92BF92CF92DF92EF92D5
:10539000FF920F931F93CF93DF93CDB7DEB7CA1B56
:1053A000DB0B0FB6F894DEBF0FBECDBF09942A8881
:1053B000398848885F846E847D848C849B84AA8429
:1053C000B984C884DF80EE80FD800C811B81AA81B6
:1053D000B981CE0FD11D0FB6F894DEBF0FBECDBF81
:1053E000ED010895A1E21A2EAA1BBB1BFD010DC001
:1053F000AA1FBB1FEE1FFF1FA217B307E407F50785
:1054000020F0A21BB30BE40BF50B661F771F881F60
:10541000991F1A9469F760957095809590959B01F6
:10542000AC01BD01CF010895A29FB001B39FC0019F
:10543000A39F700D811D1124911DB29F700D811DC0
:105440001124911D0895AA1BBB1B51E107C0AA1F7F
:10545000BB1FA617B70710F0A61BB70B881F991F15
:105460005A95A9F780959095BC01CD01089597FBB9
:10547000072E16F4009407D077FD09D00E94232A46
:1054800007FC05D03EF4909581959F4F0895709547
:1054900061957F4F0895EE0FFF1F0590F491E02D69
:1054A00009945058BB27AA270E94692A0C944129C5
:1054B0000E94332938F00E943A2920F039F49F3FA6
:1054C00019F426F40C9430290EF4E095E7FB0C94C3
:1054D0002A29E92F0E94522958F3BA176207730745
:1054E0008407950720F079F4A6F50C9474290EF43E
:1054F000E0950B2EBA2FA02D0B01B90190010C01E4
:10550000CA01A0011124FF27591B99F0593F50F4FB
:10551000503E68F11A16F040A22F232F342F442753
:10552000585FF3CF469537952795A795F04053954B
:10553000C9F77EF41F16BA0B620B730B840BBAF01B
:105540009150A1F0FF0FBB1F661F771F881FC2F786
:105550000EC0BA0F621F731F841F48F4879577959A
:105560006795B795F7959E3F08F0B0CF9395880F54
:1055700008F09927EE0F9795879508950E94D22AF3
:105580000C9441290E943A2958F00E94332940F096
:1055900029F45F3F29F00C942A2951110C947529A4
:1055A0000C9430290E94522968F39923B1F35523B2
:1055B00091F3951B550BBB27AA2762177307840726
:1055C00038F09F5F5F4F220F331F441FAA1FA9F3BC
:1055D00035D00E2E3AF0E0E832D091505040E695AA
:1055E000001CCAF72BD0FE2F29D0660F771F881F0B
:1055F000BB1F261737074807AB07B0E809F0BB0BFE
:10560000802DBF01FF2793585F4F3AF09E3F510511
:1056100078F00C942A290C9475295F3FE4F3983EA6
:10562000D4F3869577956795B795F7959F5FC9F7FA
:10563000880F911D9695879597F90895E1E0660F7B
:10564000771F881FBB1F621773078407BA0720F0F4
:10565000621B730B840BBA0BEE1F88F7E09508955D
:105660000E94372B6894B1110C94752908950E94FB
:105670005A2988F09F5798F0B92F9927B751B0F061
:10568000E1F0660F771F881F991F1AF0BA95C9F7C6
:1056900014C0B13091F00E947429B1E008950C94C7
:1056A0007429672F782F8827B85F39F0B93FCCF37A
:1056B000869577956795B395D9F73EF49095809543
:1056C000709561957F4F8F4F9F4F08950E94992845
:1056D00008F48FEF08950F931F93CF93DF938230D9
:1056E000910510F482E090E0E0914E09F0914F09AD
:1056F00030E020E0B0E0A0E0309799F421153105CA
:1057000009F44AC0281B390B24303105D8F58A81A9
:105710009B816115710589F1FB0193838283FE01F1
:1057200011C0408151810281138148175907E0F06F
:105730004817590799F4109761F012960C93129735
:1057400013961C933296CF01DF91CF911F910F9149
:10575000089500934E0910934F09F4CF2115310598
:1057600051F04217530738F0A901DB019A01BD013E
:10577000DF01F801C1CFEF01F9CF90934F0980937A
:105780004E09CDCFFE01E20FF31F8193919322507A
:10579000310939832883D7CF20914C0930914D09A5
:1057A000232B41F4209120013091210130934D09A8
:1057B00020934C0920911E0130911F0121153105C4
:1057C00041F42DB73EB74091220150912301241B93
:1057D000350BE0914C09F0914D09E217F307A0F465
:1057E0002E1B3F0B2817390778F0AC014E5F5F4F37
:1057F0002417350748F04E0F5F1F50934D09409313
:105800004C09819391939FCFF0E0E0E09CCFCF9340
:10581000DF930097E9F0FC01329713821282A09186
:105820004E09B0914F09ED0130E020E01097A1F44E
:1058300020813181820F931F20914C0930914D09B5
:105840002817390709F061C0F0934D09E0934C091E
:10585000DF91CF910895EA01CE17DF07E8F54A817D
:105860005B819E0141155105B1F7E901FB83EA8394
:1058700049915991C40FD51FEC17FD0761F4808140
:1058800091810296840F951FE90199838883828113
:1058900093819B838A83F0E0E0E012968D919C9146
:1058A00013970097B9F52D913C911197CD01029670
:1058B000820F931F20914C0930914D092817390709
:1058C00039F6309751F510924F0910924E09B09366
:1058D0004D09A0934C09BCCFD383C2834081518131
:1058E000840F951FC817D90761F44E5F5F4F8881F9
:1058F0009981480F591F518340838A819B819383EB
:1059000082832115310509F0B0CFF0934F09E09360
:105910004E099ECFFD01DC01C0CF13821282D7CF8A
:10592000B0E0A0E0E6E9FCE20C94BD298C01009710
:1059300051F4CB010E946B2B8C01C801CDB7DEB7AF
:10594000E0E10C94D929FC01E60FF71F9C012250DD
:105950003109E217F30708F49DC0D901CD91DC911C
:105960001197C617D70798F0C530D10530F3CE018F
:1059700004978617970708F3C61BD70B2297C19386
:10598000D1936D937C93CF010E94072CD6CF5B01FE
:10599000AC1ABD0A4C018C0E9D1EA0914E09B0910F
:1059A0004F09512C412CF12CE12C109731F58091AD
:1059B0004C0990914D098815990509F05CC046166F
:1059C000570608F058C080911E0190911F01009762
:1059D00041F48DB79EB74091220150912301841B61
:1059E000950BE817F90708F055C0F0934D09E093BF
:1059F0004C09F90171836083A0CF8D919C9111971F
:105A000012966C90129713967C901397A815B9056F
:105A100059F56C0142E0C40ED11CCA14DB0420F11C
:105A2000AC014A195B09DA011296159780F062827F
:105A3000738251834083D9016D937C93E114F10407
:105A400071F0D7011396FC93EE93129776CF2296BE
:105A50008C0F9D1FF90191838083F301EFCFF093A9
:105A60004F09E0934E0969CF4816590608F42C01F6
:105A70007D01D3019ACFCB010E946B2B7C01009753
:105A800049F0AE01B8010E944D2DC8010E94072CBB
:105A9000870153CF10E000E050CFFB01DC0102C0D2
:105AA00001900D9241505040D8F70895FB01DC0160
:105AB00001900D920020E1F7089513E0CFEAD3E0C2
:105AC00004C0FE010E944B2A2196C03BD107C9F7B2
:045AD000F894FFCF78
:105AD400FFFFFFFF0100E10000000000008E058EC3
