:100000000C9432030C94DB0E0C94B40E0C948D0EF5
:100010000C94660E0C945A030C945A030C943F0EE5
:100020000C945A030C945A030C94020F0C94710F05
:100030000C945A030C945A030C945A030C945A03CC
:100040000C945A030C945A030C945A030C945A03BC
:100050000C945A030C945A030C945A030C94F50D07
:100060000C945A030C945A030C945A030C945A039C
:100070000C945A030C945A030C945A030C945A038C
:100080000C94BC120C945A030C945A030C945A030B
:100090000C949D110C945A030C945A030C945A031B
:1000A0000C945A030C945A030C945A03080B000244
:1000B0000202000009040000010202000005240001
:1000C0001001052401010104240206052406000193
:1000D0000705810310004009040100020A00000026
:1000E00007050202400000070583024000000403E8
:1000F000090412010002EF02014041233780000190
:100100000102030141726475696E6F204C4C43001B
:1001100041726475696E6F204D6963726F000000F3
:100120000000250028002B002E00310000000000F8
:100130002300260029002C002F00040404040403DB
:100140000405020202020403020202020606060677
:10015000060604040202020404040802011040809E
:10016000401020408040800802040180402010029E
:1001700001108010204040200000000200090F0004
:1001800000030401000C000000000000000000005B
:1001900000000000000000050F0992A1028502097D
:1001A0009F09A009A409A509A61500250135004548
:1001B00001750195058102950381030994150025B8
:1001C00001350045017501950181020922150125BE
:1001D0002835014528750795018102C00921A10232
:1001E0008501092215012528350145287508950145
:1001F00091020925A102092609270930093109328E
:1002000009330934094009410942094309280928E9
:100210001501250C3501450C750895019100C009A3
:100220005009540951150026FF7F350046FF7F66AF
:10023000031055FD751095039102550066000009E5
:1002400052150026FF0035004610277508950191CC
:1002500002095315012508350145087508950191D6
:10026000020955A102050109300931150025017562
:100270000195029102C0050F09569501910295055D
:1002800091030957A1020B01000A000B02000A00AA
:1002900066140055FE150026FF00350047A08C00AF
:1002A000006600007508950291025500660000C0C6
:1002B000050F0958A1020B01000A000B02000A00F9
:1002C00026FD7F751095029102C0C0095AA10285D2
:1002D0000209221501252835014528750895019147
:1002E00002095B095D160000261027360000461043
:1002F00027751095029102095C095E66031055FD91
:1003000027FF7F000047FF7F0000752095029102C4
:1003100045006600005500C0095FA102850309225F
:1003200015012528350145287508950191020923F5
:100330001500250335004503750495019102095800
:10034000A1020B01000A000B02000A0075029502CF
:100350009102C016F0D826102736F0D8461027098B
:100360006075109501910236F0D846102709610991
:1003700062950291021600002610273600004610F2
:1003800027096309647510950291020965461027D3
:1003900095019102C0096EA102850409221501256B
:1003A000283501452875089501910209701600004D
:1003B0002610273600004610277510950191020976
:1003C0006F16F0D826102736F0D8461027950175FD
:1003D000109102097166140055FE1500279F8C00CC
:1003E000003500479F8C000075109501910209723D
:1003F000150027FF7F0000350047FF7F00006603E0
:100400001055FD7520950191026600005500C00948
:1004100073A1028505092215012528350145287596
:100420000895019102097016F0D826102736F0D8E9
:10043000461027751095019102C00974A102850626
:1004400009221501252835014528750895019102D5
:100450000975097616F0D826102736F0D8461027E9
:10046000751095029102C00968A10285070922153D
:1004700001252835014528750895019102096C155B
:1004800000261027350046102775109501910209A6
:10049000691581257F350046FF007508950C92028D
:1004A00001C00966A10285080501093009311581DD
:1004B000257F350046FF00750895019102C0050FA4
:1004C0000977A102850A0922150125283501452849
:1004D0007508950191020978A1020979097A097BC9
:1004E00015012503750895019100C0097C150026AA
:1004F000FF00350046FF009102C00990A102850B64
:100500000922150125283501452875089501910214
:10051000C00996A102850C099709980999099A09B9
:100520009B099C15012506750895019100C0097D60
:10053000A102850D097E150026FF00350046102713
:10054000750895019102C0096BA102850E0922155B
:1005500001252835014528750895019102096D1579
:100560000026FF00350046FF00750895019102093D
:100570005166031055FD150026FF7F350046FF7FAD
:100580007510950191025500660000C009ABA102EB
:1005900085050925A10209260927093009310932F3
:1005A0000933093409400941094209430928250C46
:1005B00015013501450C75089501B100C00501090B
:1005C0003B150026FF01350046FF01750A9501B174
:1005D000027506B101C0050F0989A102850609222D
:1005E000252815013501452875089501B102098BAB
:1005F000A102098C098D098E2503150135014503DA
:1006000075089501B100C009AC150027FFFF000077
:10061000350047FFFF000075109501B100C0097F4C
:10062000A10285070980751095011500350027FF87
:10063000FF000047FFFF0000B102098326FF0046CC
:10064000FF0075089501B10209A909AA7501950273
:100650001500250135004501B10275069501B1036C
:10066000C0C0C61411241FBECFEFDAE0DEBFCDBF7D
:1006700011E0A0E0B1E0ECE2F8E402C005900D92D8
:10068000A636B107D9F728E0A6E6B1E001C01D9271
:10069000A735B207E1F713E0C2E3D3E004C0219726
:1006A000FE010E948E20C133D107C9F70E940318B2
:1006B0000C9414240C940000CF92DF92EF92FF92DE
:1006C0000F931F93CF93DF93D901E8016A01F901DA
:1006D0004217530714F06901FA01882309F440C056
:1006E000CB016C157D050CF4C6019F018E179F0789
:1006F0000CF49C01A417B50734F4CF01821B930BB3
:100700009C012C0D3D1D0D2C000CEE08FF08032E46
:10071000000C440B550B2C193D094E095F09AEEF37
:10072000BFEF0E943E209F01FF0F440B550B2C1979
:100730003D094E095F090E941F20DA01C9018F5F40
:100740009F47A109B1098883998382E090E0DF91F6
:10075000CF911F910F91FF90EF90DF90CF90089570
:1007600090E080E0F4CFE82FF0E0EE0FFF1FE45FB1
:10077000FE4F25E63CE0318320838230D9F028F417
:10078000882341F0813071F008958330D9F08430AE
:1007900009F10895809169008C7F816080936900E0
:1007A000E89A089580916900837F8460809369004E
:1007B000E99A0895809169008F7C80618093690037
:1007C000EA9A0895809169008F738064809369002C
:1007D000EB9A089580916A008F7C806180936A0013
:1007E000EE9A0895CF93DF931F92CDB7DEB769835A
:1007F000DC01ED91FC910280F381E02D41E050E0BD
:10080000BE016F5F7F4F09950F90DF91CF910895E3
:1008100083E08093E9008091F200882319F08AE355
:100820008093E800089581508F3008F047C0E82F8A
:10083000F0E0E35EFB4F0C948E203A043E042C045F
:10084000320436045E045E045E04410447044B0433
:100850004F0455045E045904809180008F77809383
:1008600080000895809180008F7DF9CF8091800075
:10087000877FF5CF84B58F7784BD089584B58F7D4C
:10088000FBCF809190008F778093900008958091A6
:1008900090008F7DF9CF80919000877FF5CF809178
:1008A000C0008F778093C00008958091C0008F7D35
:1008B000F9CF8091C200877F8093C2000895CF93C3
:1008C000DF93282F30E0F901E858FE4F8491F901B9
:1008D000E75AFE4FD491F901E65CFE4FC491CC2358
:1008E000A1F081110E941304EC2FF0E0EE0FFF1F26
:1008F000E45DFE4FA591B491EC91ED2381E090E091
:1009000009F480E0DF91CF91089580E090E0FACF84
:100910001F93CF93DF93282F30E0F901E858FE4F63
:100920008491F901E75AFE4FD491F901E65CFE4F3C
:10093000C491CC23A9F0162F81110E941304EC2F2F
:10094000F0E0EE0FFF1FE25EFE4FA591B4918FB76E
:10095000F894EC91111108C0D095DE23DC938FBF81
:10096000DF91CF911F910895DE2BF8CF3FB7F89418
:100970008091F1019091F201A091F301B091F40105
:1009800026B5A89B05C02F3F19F00196A11DB11DEA
:100990003FBFBA2FA92F982F8827BC01CD01620F26
:1009A000711D811D911D42E0660F771F881F991FE1
:1009B0004A95D1F70895CF92DF92EF92FF920E946D
:1009C000B6046B017C010E94B6046C197D098E0986
:1009D0009F09683E734081059105A8F3FF90EF9051
:1009E000DF90CF9008950895089508954091B8013B
:1009F0005091B9012091B6013091B70142175307C8
:100A0000B4F49091E8009570E1F39091E80092FDC4
:100A100019C08093F1008091B8019091B9010196BD
:100A20008F739927892B19F48EEF8093E8008091BA
:100A3000B8019091B90101969093B9018093B801E2
:100A400081E0089580E00895DF92EF92FF920F9386
:100A50001F93CF93DF93D82E8A01EB017B01E40E25
:100A6000F51ECE15DF0559F0D7FE12C0FE018491A8
:100A70000E94F60421968111F4CF0FEF1FEFC801F9
:100A8000DF91CF911F910F91FF90EF90DF9008952C
:100A90008881EECF2FB7F89487708093E90090910A
:100AA000E800892F807295FF04C09091F20080E4E5
:100AB000891B2FBF089583E00E944A0590E00895A6
:100AC0007F928F929F92AF92BF92CF92DF92EF92DE
:100AD000FF920F931F93CF93DF93C82E8B017A0160
:100AE0008091BF01811110C08FEF9FEFDF91CF91F7
:100AF0001F910F91FF90EF90DF90CF90BF90AF903C
:100B00009F908F907F9008958091BD0180FF05C0D8
:100B10008091E00082608093E000CE2DDF2DD12C0B
:100B20008AEFB82E8C2D8770982E8C2D8072882E8F
:100B30008C2D8074782E9AE3A92E209719F4DD204D
:100B400009F44EC08C2D0E944A05811106C0BA944A
:100B5000BB2051F20E94DB04F0CF8C171D0611F070
:100B60000CF08C2F9FB7F8949092E9002091E80048
:100B700025FD02C09FBFE1CF282F30E0C21BD30B61
:100B8000882029F08150A0F01092F100FBCFF801ED
:100B9000C7FC0AC0815050F041914093F100FACF58
:100BA00044914093F10031968150D0F7020F131F0A
:100BB000DD2021F0A092E800D12CDCCF8091E8006C
:100BC00085FD07C0A092E800DD24D394209791F220
:100BD000F3CF209779F6772069F2A092E800CACF88
:100BE0005D9A84E68093BC01C70180CFCF93DF93E9
:100BF000EC0180910B01882331F083E00E946005B5
:100C00001816190634F081E090E09B838A8380E017
:100C100090E0DF91CF9108959091BF01992319F150
:100C20003FB7F89487708093E9008091F20090E0DC
:100C3000481759070CF4CA01282FFB0154E621502C
:100C400038F0289A5093BB014091F1004193F7CFBF
:100C5000009739F02091F200211103C02BE6209378
:100C6000E8003FBF08958FEF9FEF08950F931F9304
:100C7000CF93DF931F92CDB7DEB78C01FC01848543
:100C8000958597FF0FC041E050E0BE016F5F7F4F39
:100C900082E00E940C06019771F4898190E0F801CE
:100CA00095878487F801848595850F90DF91CF9192
:100CB0001F910F9108958FEF9FEFF1CFCF93DF93A7
:100CC0001F92CDB7DEB7FC018485958597FD08C0DE
:100CD0002FEF3FEF358724870F90DF91CF91089555
:100CE00041E050E0BE016F5F7F4F82E00E940C0642
:100CF000019719F4898190E0EFCF8FEF9FEFECCF50
:100D00009FB7F89487708093E9008091F2009FBFAD
:100D10000895FC018485958597FD06C082E00E94B8
:100D2000800690E00196089582E00E94800690E09F
:100D30000895615030F02091F100FC01208301966C
:100D4000F8CF289A84E68093BB010895AF92BF92B2
:100D5000DF92EF92FF920F931F93CF93DF935C018B
:100D60008B01EB019BEFD92E2097C1F07E01C1349E
:100D7000D1051CF080E4E82EF12C8091E80082FF80
:100D8000FCCFC8018C1B9D0B6E2D8A0D9B1D0E94F4
:100D90009906D092E800CE19DF09E6CFC801DF91AD
:100DA000CF911F910F91FF90EF90DF90BF90AF9088
:100DB00008958091AE0181110DC082E08093AA0157
:100DC00084E08093AB011092AD011092AC0181E000
:100DD0008093AE018AEA91E00895CF93DF9382E099
:100DE0008093950281E08093960225E636E0309369
:100DF00098022093970210929A02109299022AE385
:100E000031E0309392022093910210924E0610929C
:100E10004F061092500610925106109253061092EF
:100E200052061092550610925406209123013091DB
:100E30002401409125012093560630935706409394
:100E4000580680939B0210924D061092A8061092AD
:100E5000A7061092AA061092A9068093AB0680936B
:100E6000AC0681EC8093650680EC809366060E9458
:100E7000D906FC01818190919502482F490F552791
:100E8000551F483051059CF5A281B381109709F593
:100E900021E932E0338322832081209393028093DF
:100EA000940280919602820F808320919702A22F54
:100EB000B09198028A2F821B8917C8F481813D91D5
:100EC000C82FD0E0CA5EDE4F38838F5F8183F2CFB8
:100ED000D90118962D913C91199721153105C1F72B
:100EE00021E932E019963C932E931897D5CFDF91E4
:100EF000CF9108950F931F93CF93DF931F92CDB798
:100F0000DEB782E0898342E450E06CEA70E080E87A
:100F10000E9424050E94D906DC0112960D911C91B5
:100F20000115110589F0D801ED91FC910280F38142
:100F3000E02DBE016F5F7F4FC801099597FD04C08A
:100F4000F80100851185ECCF89810F90DF91CF9159
:100F50001F910F910895BC0130E020E08FE3DB0189
:100F6000AF53BC4F829FF001839FF00D1124E60F19
:100F7000F71F91819D7F91834D915C911197415C09
:100F80005F4F11965C934E932F5F3F4F2F3031058B
:100F900049F70895FB0128E4208329E4218324E410
:100FA0002283DC01A85EBB4F9C919F709F5B938363
:100FB0008D919C9124E0969587952A95E1F78F7005
:100FC0008F5B848385E00895EF92FF920F931F93C8
:100FD000CF93DF93DB012C91213809F046C01396A3
:100FE0002C911397223209F040C0FC0142811496E3
:100FF0002D913C9142171306C1F58C01EA5EFB4F1F
:10100000E080F180D0E0C0E0E114F10441F1F701AB
:10101000468157816281738180E00E9424058F3F61
:10102000980751F4CFEFDFEFCE01DF91CF911F9101
:101030000F91FF90EF900895C80FD91FF7014085D9
:1010400051856481758180E80E9424058F3F98074F
:1010500049F3C80FD91FF701E080F180D5CFF8011F
:10106000E65EFB4F81E08083DFCFD0E0C0E0DCCFE5
:10107000CF93DF93CDB7DEB7A0970FB6F894DEBF5E
:101080000FBECDBFFC01DB018C918F5F8C939E0165
:101090002D5F3F4F8CE0D9011D928A95E9F799E0C9
:1010A000998384E08A8382E08D8383E08E839A87AC
:1010B00091E29B8791E19C8791E09D879F8722E247
:1010C000288B57E05B8B45E04C8B8E8B20E430E027
:1010D000388F2F8B998F5A8F4B8F8D8F3F8F2E8FFD
:1010E00098A382818B83DF01A85EBB4F9C911196F0
:1010F0008C91998B8A8B8381982F90689D8B8F5FC1
:101100008C8F40E250E0BE016F5F7F4F80E00E9415
:101110002405A0960FB6F894DEBF0FBECDBFDF91B9
:10112000CF91089520918701260F3327331F213255
:101130003105ECF420913B02FC0190E080E024308A
:1011400069F082E00895A09187012191AC0149598D
:101150005E4FA40FB52FB11D2C930196861798F3FF
:1011600080918701680F6093870180E0089581E096
:10117000089510923B0281E080931A0210921502AA
:1011800061E082E00E94880461E083E00E948804BC
:10119000E9EBF0E080818E7F808380818D7F80838A
:1011A00088E48093B80085E48093BC000895CF93D1
:1011B000DF9391E0909366018823B9F0C091B80065
:1011C000D091BA008091BC008A7B8093BC0060E023
:1011D00082E00E94880460E083E00E9488040E940C
:1011E000B908D093BA00C093B800DF91CF910895A9
:1011F000CF92DF92EF92FF920F931F93CF93DF93E3
:10120000D82FC62F613208F098C00E94B6046B0137
:101210007C0180913B0281116BC081E080933B0295
:1012200080931A029FEF90931902109218029C0F5C
:10123000909317028093160280911602DD0FD82B2F
:10124000D093160280911502813009F078C0109277
:1012500015020E94B6046B017C01809116028093F6
:10126000BB0080913D0290913E02A0913F02B0915F
:101270004002892B8A2B8B2BA1F00E94B60400918F
:101280003D0210913E0220913F02309140026C19C4
:101290007D098E099F09061717072807390708F4E3
:1012A00048C08091BC0083FDD8CF85EC8093BC0002
:1012B0000E94B6046B017C0180913B02813009F4ED
:1012C00040C0809118028C1710F4C0911802E5EF0D
:1012D000F1E0ABE1B2E080E08C1355C08C2FDF91E0
:1012E000CF911F910F91FF90EF90DF90CF900895D5
:1012F00080913D0290913E02A0913F02B091400248
:10130000892B8A2B8B2B09F484CF0E94B604009181
:101310003D0210913E0220913F02309140026C1933
:101320007D098E099F09061717072807390708F056
:1013300070CF80913C020E94D708C0E0CFCF85EEED
:10134000B5CF80913D0290913E02A0913F02B091B5
:101350004002892B8A2B8B2B09F4AECF0E94B60456
:1013600000913D0210913E0220913F0230914002D7
:101370006C197D098E099F09061717072807390779
:1013800008F09ACFD6CF91919D938F5FA5CF089506
:10139000E091C5018091C401E81730F4F0E0E55E0A
:1013A000FD4F808190E008958FEF9FEF0895909119
:1013B000C5018091C4012FEF3FEF981748F4E92F42
:1013C000F0E0E55EFD4F208130E09F5F9093C50126
:1013D000C90108958091C4019091C501891B990BA1
:1013E0000895CF92DF92EF92FF920F931F93CF93C6
:1013F000DF937C01CB018A012091E901222389F04E
:10140000EB016B01C40ED51ECC15DD0569F06991A9
:10141000D701ED91FC910190F081E02DC701099574
:10142000F3CF642F0E949208C801DF91CF911F91E2
:101430000F91FF90EF90DF90CF900895CF93DF93BF
:101440001F92CDB7DEB769832091E9012223F9F01D
:101450002091E601203258F021E030E0FC01338396
:10146000228390E080E00F90DF91CF9108958091EA
:10147000E701E82FF0E0EA53FE4F998190838F5FF8
:101480008093E7018093E60181E090E0ECCF61E09A
:10149000CE0101960E949208F7CF90E080E0089577
:1014A0004F925F926F927F92AF92BF92CF92DF92F4
:1014B000EF92FF920F931F93CF93DF938C01EB0179
:1014C000CB84DC84ED84FE84A980BA806D817E812A
:1014D0006A197B09072E000C880B990B0E94C42106
:1014E0002B013C016B817C816A197B09072E000C62
:1014F000880B990B0E94C4219B01AC01C301B2016E
:101500000E941A212B013C01A70196016F85788961
:1015100089899A890E94A8209B01AC01C301B2016C
:101520000E947922A70196010E94A9206F837887E3
:1015300089879A878CE0FE013796D80101900D9239
:101540008A95E1F7C801DF91CF911F910F91FF902C
:10155000EF90DF90CF90BF90AF907F906F905F90B3
:101560004F900895FC0120917C0090819F70207F16
:10157000922B90937C0090917A00906490937A00E3
:1015800080917A0086FDFCCF80917800909179005F
:10159000968385830895AF92BF92CF92DF92EF92A8
:1015A000FF920F931F93CF93DF93CDB7DEB7ADB606
:1015B000BEB68091A2072DB73EB7281B31090FB6E2
:1015C000F8943EBF0FBE2DBF8DB79EB701966C013C
:1015D000E0907107F12C80916D0790916E07D60114
:1015E000FC019F01281B390B2E153F051CF421918E
:1015F0002D93F7CF80917207882359F18091690765
:1016000090916A0728E097FD09C068E671E00E94A2
:101610007A206DE270E00E947A20262F80916B077D
:1016200090916C0768E097FD08C068E671E00E9441
:101630007A206DE270E00E947A20F601EE0DFF1D27
:1016400090E1699FB0011124262B2083F701319688
:101650007F0186010E0D1F1D2091770730917807BD
:101660004091750750917607609153077091540728
:101670008091730781700E945C03E80EF91E860159
:101680000E0D1F1D20917B0730917C07409179073B
:1016900050917A07609155077091560780917307B2
:1016A000869581700E945C03E80EF91E86010E0D7E
:1016B0001F1D20917F073091800740917D07509139
:1016C0007E0760915707709158078091730782FBDE
:1016D000882780F90E945C03E80EF91E86010E0D32
:1016E0001F1D2091830730918407409181075091FD
:1016F00082076091590770915A078091730783FBA5
:10170000882780F90E945C03E80EF91E86010E0D01
:101710001F1D2091870730918807409185075091C0
:10172000860760915B0770915C07809173078295D3
:1017300081700E945C03E80EF91E86010E0D1F1DCC
:1017400020918B0730918C074091890750918A072F
:1017500060915D0770915E078091730785FB882714
:1017600080F90E945C03E80EF91E86010E0D1F1D14
:1017700020918F073091900740918D0750918E07EF
:1017800060916107709162078091740781700E9477
:101790005C03E80EF91E86010E0D1F1D20919307B4
:1017A00030919407409191075091920760915F07A3
:1017B0007091600780917407869581700E945C0328
:1017C000E80EF91E86010E0D1F1D2091970730911E
:1017D0009807409195075091960760916307709123
:1017E00064078091740782FB882780F90E945C035C
:1017F000E80EF91E86010E0D1F1D20919B073091EA
:101800009C074091990750919A07609165077091E4
:1018100066078091740783FB882780F90E945C0328
:101820008E0D9F1D8601080F191F20919F07309173
:10183000A00740919D0750919E07609167077091A6
:10184000680780917407829581700E945C03809183
:10185000AD06811105C00E94ED0681E08093AD06C2
:101860004091A2078091A10750E07A01FFEFEF1AA3
:10187000FF0A2DB73EB72E193F090FB6F8943EBFA9
:101880000FBE2DBF0DB71EB70F5F1F4FEDB7FEB7D1
:101890008183B601C80101960E940B2480919402B5
:1018A000A701B80180640E9460050FB6F894BEBE1F
:1018B0000FBEADBEDF91CF911F910F91FF90EF90C2
:1018C000DF90CF90BF90AF9008950F931F938091BA
:1018D0000C080E945F04182F80910D080E945F047D
:1018E000880F991F812B90911208981751F1E09160
:1018F000120800910E0810910F08209110083091E5
:10190000110894E0E902F0011124482F082E000C80
:10191000550BE42BF52BEA5DFE4F9081492F990F73
:10192000550B660B770B400F511F621F731F4093BF
:101930000E0850930F08609310087093110880935D
:1019400012081F910F91089585ED8093BC0080913E
:101950003D0290913E02A0913F02B0914002079655
:10196000A11DB11D23E0B695A795979587952A955A
:10197000D1F72091BC0024FD03C010923B020895D2
:1019800040913D0250913E0260913F0270914002B1
:10199000452B462B472B69F30097A105B10541F074
:1019A0002AE22A95F1F700C00197A109B109E1CF18
:1019B00080913C020C94D708FF920F931F93CF9312
:1019C000DF93EC018B01FB01F0800E940920F816E7
:1019D00021F06F2DCE010E941120F801F180219697
:1019E000CE010E940920F81621F06F2DCE010E9431
:1019F0001120C801DF91CF911F910F91FF900895A1
:101A00000F931F93CF93DF938C01EB010E9409206A
:101A10008883C80101960E9409208983CE01DF9145
:101A2000CF911F910F9108950F931F93CF93DF9341
:101A3000CDB7DEB72A970FB6F894DEBF0FBECDBF85
:101A4000DC0112964C911297FB01248135814217DB
:101A5000130609F03FC08C0191818081813AE1F544
:101A60009130A9F59381933099F482818630E1F425
:101A70008FEC97E00197F1F700C0000008531C4F6E
:101A800045E050E0B80180E40E942405D8011C9292
:101A900081E02A960FB6F894DEBF0FBECDBFDF916E
:101AA000CF911F910F910895873091F789832FEF80
:101AB0003FEF3B832A838EE08C839D8345E050E09B
:101AC000BE016F5F7F4F80E40E942405E1CF81E07B
:101AD0009330F9F280E0DDCF8132E1F79B3031F4D1
:101AE0008281FD01E65EFB4F8083D2CF9A3029F4DC
:101AF0008281FD01E55EFB4FF7CF993059F7838175
:101B0000833031F686819781892B39F470E060E06B
:101B1000CE0101960E94A606BBCF8281853009F0D6
:101B2000B7CF64E070E0CE0101960E94A60686E081
:101B3000F801E853FC4F8083F80182858E3069F10B
:101B4000828591E0980F92872FE3D8011A969C9195
:101B5000F801299FE00DF11D11249385992341F08F
:101B6000F80192859E3020F492859F5F9287EDCF99
:101B700091E0F8012FE3829FE00DF11D112493877E
:101B8000F801E753FC4F80838081D801A653BC4FF6
:101B9000811105C082E08C937BCF80E0F1CF21E002
:101BA0002C9380813FE3839FC0011124F801E80F4B
:101BB000F91F3B96DF011D923A95E9F7800F911FBF
:101BC000FC012387F801E553FC4F80819181CF9779
:101BD000918380835DCF81E080939B0282E793E0D5
:101BE00090935D0680935C0608951F920F920FB646
:101BF0000F9211242F933F938F939F93AF93BF9393
:101C00008091ED019091EE01A091EF01B091F00172
:101C10003091EC0123E0230F2D3758F50196A11DDB
:101C2000B11D2093EC018093ED019093EE01A09300
:101C3000EF01B093F0018091F1019091F201A09138
:101C4000F301B091F4010196A11DB11D8093F10142
:101C50009093F201A093F301B093F401BF91AF917F
:101C60009F918F913F912F910F900FBE0F901F90DA
:101C7000189526E8230F0296A11DB11DD2CF1F9201
:101C80000F920FB60F9211242F933F934F935F93B0
:101C90006F937F938F939F93AF93BF93EF93FF9334
:101CA000E0911401F09115010995FF91EF91BF9119
:101CB000AF919F918F917F916F915F914F913F91E4
:101CC0002F910F900FBE0F901F9018951F920F929B
:101CD0000FB60F9211242F933F934F935F936F93FF
:101CE0007F938F939F93AF93BF93EF93FF93E09175
:101CF0001201F09113010995FF91EF91BF91AF91FE
:101D00009F918F917F916F915F914F913F912F9113
:101D10000F900FBE0F901F9018951F920F920FB645
:101D20000F9211242F933F934F935F936F937F9361
:101D30008F939F93AF93BF93EF93FF93E091100125
:101D4000F09111010995FF91EF91BF91AF919F9192
:101D50008F917F916F915F914F913F912F910F9054
:101D60000FBE0F901F9018951F920F920FB60F92F3
:101D700011242F933F934F935F936F937F938F9390
:101D80009F93AF93BF93EF93FF93E0910E01F09178
:101D90000F010995FF91EF91BF91AF919F918F91A5
:101DA0007F916F915F914F913F912F910F900FBE57
:101DB0000F901F9018951F920F920FB60F9211243B
:101DC0002F933F934F935F936F937F938F939F9343
:101DD000AF93BF93EF93FF93E0910C01F0910D014E
:101DE0000995FF91EF91BF91AF919F918F917F9155
:101DF0006F915F914F913F912F910F900FBE0F9078
:101E00001F9018951F920F920FB60F9211248F9367
:101E10009F938091E1009091E100937F9093E10086
:101E200083FF0FC01092E90091E09093EB001092B5
:101E3000EC0092E39093ED001092BF0198E0909334
:101E4000F00082FF22C093E09093E9009091F200AD
:101E5000992319F09AE39093E8009091BC0199239B
:101E600041F09091BC0191509093BC01911101C03F
:101E70005D989091BB01992341F09091BB019150E5
:101E80009093BB01911101C0289884FF18C08091E4
:101E9000E2008E7E81608093E2008091E1008F7E7F
:101EA0008093E1008091BD018E7E80618093BD01B1
:101EB0009F918F910F900FBE0F901F90189580FFEC
:101EC000F7CF8091E2008E7E80618093E200809166
:101ED000E1008E7E8093E1008091BD018E7E816065
:101EE000E5CF1F920F920FB60F921124CF92DF927F
:101EF000EF92FF920F931F932F933F934F935F9314
:101F00006F937F938F939F93AF93BF93EF93FF93C1
:101F1000CF93DF93CDB7DEB76C97DEBFCDBF109206
:101F2000E9008091E80083FF25C068E0CE01459676
:101F30000E94990682EF8093E8008D8987FF39C05F
:101F40009091E80090FFFCCF982F907609F034C173
:101F50009E894F89588D2F89F88C911131C0803816
:101F600061F58091BE018093F1001092F1008EEF37
:101F70008093E8006C960FB6F894DEBF0FBECDBF1D
:101F8000DF91CF91FF91EF91BF91AF919F918F9191
:101F90007F916F915F914F913F912F911F910F9181
:101FA000FF90EF90DF90CF900F900FBE0F901F909B
:101FB00018959EEF9093E800C7CF1092F100D5CF0F
:101FC000913059F48111D3CF4130510581F6809180
:101FD000BE018D7F8093BE01CACF933049F4811139
:101FE000C6CF4130510519F68091BE018260F2CF13
:101FF000953041F48091E80080FFFCCF2068209369
:10200000E300B5CF963009F0A9C00B8D1C8D22E0FE
:102010001092E9001092B9011092B801F2122EC08C
:102020001092B7011092B6010E947A071F8299E0C0
:102030009983FA8291E09E8390EA98879AEF998734
:102040002091B8013091B901275F3F4F3C832B832A
:102050008D831092E9001092B9011092B80110938B
:10206000B7010093B60149E050E0BE016F5F7F4FBA
:1020700080E00E9424050E947A0779CF1093B7016F
:102080000093B6010E94D906DC0112960D911C91B5
:102090000115110509F44BC1D801ED91FC910480A3
:1020A000F581E02DBE016B5E7F4FC8010995009759
:1020B00009F038C1F80100851185EACFF3E0FF127D
:1020C0000EC08F89882309F440C0823061F440E853
:1020D0006DE080E191E00E949314811148CF81E28C
:1020E0008093EB0047CF813029F440E86BE084E037
:1020F00091E0F1CF833099F70E94D906DC01129666
:10210000ED90FC908E010F5F1F4F6801E114F10408
:1021100079F0D701ED91FC910680F781E02DB801AF
:10212000C7010995080F111DF701E084F184EECF76
:10213000D8011C92F60101900020E9F73197BF0108
:102140006C197D0940E0C601C6CF6EEE70E0FB0160
:10215000449150E080E80E94240509CF973009F4AB
:10216000BECF983021F481E08093F10000CF993008
:1021700009F0FDCE837009F0B2CFE7E1F1E081E034
:1021800031E096E32191222371F08093E9003093AE
:10219000EB00DF0111972C912093EC009093ED0060
:1021A0008F5F873079F78EE78093EA001092EA001C
:1021B0008F898093BF01DBCE8B8D9C8D1092E900BF
:1021C0001092B9011092B8019093B7018093B601B3
:1021D000898D81118CC08E899D89913A49F4813213
:1021E00009F07DCF47E050E064E071E080E0B3CFDC
:1021F000913209F074CF833269F48F89988DB0E001
:10220000A0E08093000190930101A0930201B0939C
:102210000301ADCE803239F467E070E084E091E0F4
:102220000E94A606A4CE823209F0A1CE8F898093A7
:102230000B01EEEFFFE7859194918B3F9C4D51F19F
:10224000E0E0F8E08091040190910501A091060181
:10225000B0910701803B9440A105B105F1F4809154
:102260000B0180FD1AC0EE3F8AE0F80789F587E789
:1022700097E791838083809160008093BA0188E121
:102280009BE00FB6F894A895809360000FBE9093E2
:1022900060006DCEEEEFFAE0D5CF80819181873777
:1022A000974709F064CEA89580916000886180937B
:1022B00060008091BA0180936000EE3F2AE0F2074F
:1022C00089F08091FE0A9091FF0A918380834FCE1E
:1022D000808191818737980751F29093FF0A80930C
:1022E000FE0AC5CF1092FF0A1092FE0A40CE0E944D
:1022F000D906DC0112960D911C910115110509F406
:10230000EECED801ED91FC910190F081E02DBE015F
:102310006B5E7F4FC8010995811129CEF8010085B8
:102320001185EBCF181619060CF421CED8CEF1E0AA
:10233000FF12C4CE62EF70E00ACF1F920F920FB669
:102340000F9211242F933F934F935F936F937F933B
:102350008F939F93AF93BF93EF93FF938091B900B7
:10236000887F803609F44AC0F0F5883209F4A7C0A6
:1023700018F5803109F49BC0B8F4882309F4F9C03A
:10238000883009F494C0FF91EF91BF91AF919F9174
:102390008F917F916F915F914F913F912F910F900E
:1023A0000FBE0F901F901895883109F488C08032B5
:1023B00051F78093190214C0803409F49DC040F491
:1023C0008033B9F38833F9F68093190285ECB0C0F5
:1023D000803509F485C0883509F496C0883499F6AB
:1023E0000E94A40CD0CF883909F48CC038F5883706
:1023F00029F050F4883611F0803729F683E0809375
:102400003B021092A90157C0883809F47BC080397B
:1024100019F0803809F0B7CF8091A901803208F017
:1024200071C0E091A90181E08E0F8093A901809194
:10243000BB00F0E0E757FE4F80833DC0803B39F0A2
:10244000E0F4803A09F479C0883A09F09CCF84E03E
:1024500080933B021092880110928701E091C201A3
:10246000F091C30109958091870181110FC081E02E
:10247000809387011092670109C0803C09F4A6CFC0
:10248000883C09F4A3CF883B09F07DCFE091880117
:1024900081E08E0F80938801F0E0E959FE4F808142
:1024A0008093BB00909188018091870129C0809121
:1024B00016028093BB0085EC8093BC0064CF9091A2
:1024C000180280911702981758F5E091180281E0E0
:1024D0008E0F80931802F0E0EB50FE4F8081E9CF21
:1024E000E091180281E08E0F809318028091BB006A
:1024F000F0E0EB50FE4F808390911802809117021C
:102500009817C8F285E8D8CFE091180281E08E0FC5
:10251000809318028091BB00F0E0EB50FE4F808367
:1025200080911A0281115CCF81E08093150284EAC8
:102530008093BC0010923B0226CF85EC8093BC00B8
:1025400010923B028091A901803230F4E091A90100
:10255000F0E0E757FE4F10826091A90170E0E09132
:10256000C001F091C10189E891E009951092A9019B
:102570000ACF1092190234CF1F920F920FB60F920A
:1025800011240F931F932F933F934F935F936F9358
:102590007F938F939F93AF93BF93EF93FF9380911C
:1025A000AD06811105C00E94ED0681E08093AD0665
:1025B000809194028F5F0E948006882309F43DC0B9
:1025C0008091940240E450E067E676E08F5F0E94DD
:1025D0000C0690916806E0916706E150ED3068F5D1
:1025E000F0E0EB50FD4E0C948E20021330134F138D
:1025F0009313B213BF131D131D131D13D2134814CD
:102600006D14901420916A0630916B064FE3949FED
:10261000F0011124EF56FD4F37AF26AF80917306BE
:10262000838F80917406848F80916906848780915E
:102630007006878780917206828FFF91EF91BF911C
:10264000AF919F918F917F916F915F914F913F914A
:102650002F911F910F910F900FBE0F901F90189503
:102660002091690630916A068FE3989FF00111244A
:10267000EF56FD4F318B208B80916B0690916C064D
:10268000938B828B80916D0690916E06978B868BD3
:102690008091710690917206958B848BCECF80913C
:1026A000690620916A0630916B06AFE39A9FF001AC
:1026B0001124DF014CE0849FA00DB11D1124AF5601
:1026C000BD4F5F963C932E935E9780916C069091E0
:1026D0006D0691969C938E93909780916E06909143
:1026E0006F0693969C938E9392978091700690912B
:1026F000710695969C938E93949780917206909113
:10270000730697969C938E939697809174069091FA
:10271000750699969C938E939897EF56FD4F858DED
:102720008F5F858F8ACF2091690630916A068FE38B
:10273000989FF0011124EF56FD4F318F208F80912B
:102740006B0690916C069687858780916D069091B7
:102750006E0697AB86AB80916F069091700695AF31
:1027600084AF6BCF2091690630916A06AFE39A9FE0
:10277000F0011124EF56FD4F318F208F5ECF209155
:10278000690630916A06BFE39B9FF0011124EF5662
:10279000FD4F31AF20AF80916B0690916C0693AFE7
:1027A00082AF4BCF10916906113009F045C080917E
:1027B0006A068823D9F02FE3929FD0011124AF56E7
:1027C000BD4FDE964D915C91DF97849F9001859F70
:1027D000300D1124DF963C932E93DE978F3F31F41A
:1027E0002FEF3FE7DF963C932E93DE979F3008F064
:1027F00024CF3FE3939FF0011124EF56FD4F82E079
:102800008387DF01A05CBF4F11961C921E928FB789
:10281000F8940091ED011091EE012091EF013091BB
:10282000F0018FBFF89602871387248735871686B5
:102830001786108A118A01CF123089F48BE992E051
:102840000E94AB07E0916806EF3008F0F6CE4FE348
:10285000E49FF0011124EF56FD4F1387D2CF1330C0
:1028600009F0EBCE9F3008F0E8CE8FE3989FF0019F
:102870001124EF56FD4F83858D7F838780915C0601
:1028800090915D06CF9690935D0680935C06D5CEC1
:102890009F3F81F481E080939B02ECE9F2E081EBC1
:1028A00093E0DF019C011D9221503040E1F782E767
:1028B00093E0E9CF9F3008F0C0CE3FE3939FD00173
:1028C0001124AF56BD4F1B961C9280919B02981706
:1028D00008F0B3CE90939B02B0CE913031F480914A
:1028E0005706826080935706A8CE923021F48091DB
:1028F00057068D7FF7CF933029F48BE992E00E9441
:10290000AB079BCE943031F2953021F481E0809377
:102910004D0693CE963009F090CE10924D068DCE96
:10292000909364068ACEEF92FF920F931F93CF93FA
:10293000DF93F82E192FE62E042F81E0860F880FE3
:102940000E94F60483E00E94F604CF2DD12FEC0EF6
:10295000FD2EF11CCE15DF05B9F007FF13C0FE01F7
:1029600084910E94F604182F80E00E94F6048123CF
:1029700021968111EFCFDF91CF911F910F91FF90A1
:10298000EF9008958881EDCF81E0F5CFEF92FF922F
:102990000F931F93CF93DF93109244021092430240
:1029A00088EE93E0A0E0B0E0809345029093460269
:1029B000A0934702B093480226E431E030934202EC
:1029C000209341022FEF3FEF30934E0220934D02B0
:1029D00005E218E010922808109227088093290831
:1029E00090932A08A0932B08B0932C0888E591E0D7
:1029F000909326088093250810935208009351085D
:102A00002CE038E010920C08C1E0C0930D08109241
:102A10000E0810920F0810921008109211081092D0
:102A200012081092200810921F0880E090E0A0E8A1
:102A3000BFE38093210890932208A0932308B093CA
:102A4000240880E090E0A7E0B4E480931B08909312
:102A50001C08A0931D08B0931E0880E090E0A7E03A
:102A6000B4EC8093170890931808A0931908B093BA
:102A70001A08ADEDB7E0C093DD071092DF071092A2
:102A8000DE078FEF93E09093E1078093E0071092C9
:102A9000E3071092E2071092E4071092E507109204
:102AA000E6071092E7071092E8071092E9071092E4
:102AB000EA071092EB0740E050E068EC72E44093C4
:102AC000EC075093ED076093EE077093EF071092B9
:102AD000F0071092F2071092F1079093F407809399
:102AE000F3071092F6071092F5071092F70710926D
:102AF000F8071092F9071092FA071092FB0710924C
:102B0000FC071092FD071092FE074093FF075093B9
:102B10000008609301087093020810920408109254
:102B200005081092060810920708109208081092E3
:102B3000090810920A0810920B08E7EBF7E0D7E0BB
:102B4000D093B7071092B9071092B8079093BB07BC
:102B50008093BA071092BD071092BC071092BE076F
:102B60001092BF071092C0071092C1071092C207BF
:102B70001092C3071092C4071092C5074093C6076E
:102B80005093C7076093C8077093C907D6E0D093E6
:102B9000CA071092CC071092CB079093CE07809370
:102BA000CD071092D0071092CF071092D107109244
:102BB000D2071092D3071092D4071092D507109223
:102BC000D6071092D7071092D8074093D907509391
:102BD000DA076093DB077093DC07B093AA07A09332
:102BE000A907F093AC07E093AB073093AE072093AF
:102BF000AD0748EA57E05093B0074093AF071093F2
:102C0000B2070093B1071092B3071092B60741E3E1
:102C100058E050934C0740934B07B0934E07A09356
:102C20004D07F0935007E0934F07309352072093DE
:102C3000510710926E0710926D0710927107109253
:102C40007607109275079093780780937707109214
:102C50007A071092790790937C0780937B071092F4
:102C60007E0710927D079093800780937F071092D4
:102C700082071092810790938407809383071092B4
:102C80008607109285079093880780938707109294
:102C90008A071092890790938C0780938B07109274
:102CA0008E0710928D079093900780938F07109254
:102CB0009207109291079093940780939307109234
:102CC0009607109295079093980780939707109214
:102CD0009A071092990790939C0780939B071092F4
:102CE0009E0710929D079093A00780939F07C09323
:102CF000A707C093A10790E2909370071092720704
:102D000088E1809373078CE18093740735E03093FA
:102D1000B506C093B60689E08093B70624E02093F9
:102D2000B80621EA2093B906C093BA068093BB0681
:102D3000C093BC0645E84093BD06C093BE062093F1
:102D4000BF061092C0063093C1068093C20649E1C7
:102D50004093C306C093C40649E24093C5069093CE
:102D6000C60645E14093C7061092C80645E2409367
:102D7000C906C093CA0675E77093CB06C093CC060C
:102D800065E96093CD069093CE0695E59093CF06C6
:102D90001092D00695E69093D1061092D20651E893
:102DA0005093D30692E09093D4063093D506C09307
:102DB000D6068093D706C093D80606E10093D906BD
:102DC000C093DA0610E81093DB06B6E2B093DC0697
:102DD000AFEFA093DD06FFE7F093DE067093DF060A
:102DE000E0E1E093E0066093E1069093E206209331
:102DF000E3061092E4068093E50643E34093E6067B
:102E00008093E70644E34093E8065093E9069093E5
:102E1000EA0640EC4093EB063093EC069093ED0607
:102E20000093EE06C093EF061093F006B093F10600
:102E3000A093F206F093F3067093F406E093F50680
:102E40006093F60633E03093F7062093F80610926D
:102E5000F9068093FA0624EC2093FB068093FC0687
:102E600025EC2093FD068093FE0688EC8093FF06F8
:102E70005093000790930107409302074093030784
:102E80008FE490E00E94E6227C018FE4E5EBF6E01F
:102E9000D70101900D928A95E1F78BE090E00E94B6
:102EA000E6228C01FC0111821082F382E28287E922
:102EB00091E0958384838FE490E0978386838BEC05
:102EC00094E09187808712868091AD06811104C0BD
:102ED0000E94ED06C093AD06E091A706F091A8060A
:102EE000309709F080C01093A8060093A706F80158
:102EF0008681978120853185820F931F2091A906B5
:102F00003091AA06820F931F9093AA068093A90678
:102F100090917007892F869586958695977009F010
:102F200069C080937107C09171078C2F90E0009762
:102F300011F481E090E00E94E62290936E07809366
:102F40006D0781E090917207911101C080E0C65F2A
:102F50008C0F8093A207109254071092530710927F
:102F60005607109255071092580710925707109263
:102F70005A071092590710925C0710925B07109243
:102F80005E0710925D071092600710925F07109223
:102F90006207109261071092640710926307109203
:102FA00066071092650710926807109267078FEF07
:102FB0009FEF90936A078093690790936C078093C3
:102FC0006B0790E080E02091710728171906A1F0A7
:102FD0009CF0E0916D07F0916E07E80FF91F1082E9
:102FE0000196F1CFFC01808191810097D9F711837F
:102FF00000837DCF8F5F95CFDF91CF911F910F9190
:10300000FF90EF900895CF93DF93CDB7DEB7C05414
:10301000D1090FB6F894DEBF0FBECDBF789484B54A
:10302000826084BD84B5816084BD85B5826085BDC4
:1030300085B5816085BD80916E00816080936E0052
:103040001092810080918100826080938100809144
:1030500081008160809381008091800081608093F5
:103060008000809191008260809391008091910016
:1030700081608093910080919000816080939000A6
:103080008091C10084608093C1008091C100826002
:103090008093C1008091C10081608093C1008091C4
:1030A000C30081608093C3008091C00082608093E0
:1030B000C0008091C20081608093C20080917A003C
:1030C000846080937A0080917A00826080937A0095
:1030D00080917A00816080937A0080917A00806884
:1030E00080937A001092BF011092BE011092BD0130
:1030F0008091D70081608093D70080EA8093D800C8
:1031000089B5806189BD89B5826089BD09B400FE39
:10311000FDCF0E94DB048091D8008F7C806180937A
:10312000D8008091E000807F8093E0008091E100F2
:103130008E7E8093E1008DE08093E200559A209A84
:103140005D98289880910C08882309F47DC481300B
:1031500009F47CC4823009F47BC4833009F47AC456
:10316000873019F484E00E94B30380910D0888230E
:1031700009F472C4813009F471C4823009F470C456
:10318000833009F46FC4873019F484E00E94B303DC
:103190001092C5011092C4011092E7011092E6014D
:1031A0000E94B90883EF94E09093C3018093C20119
:1031B00084EF94E09093C1018093C001BE01635FEE
:1031C0007F4F90E080E00E94000DE091A907F09110
:1031D000AA078D859E8594838383C12CD12C88EC8E
:1031E000E82E82E4F82EC786D08AE18AF28ABE01F0
:1031F000635F7F4F80E190E00E94000DE091A9079E
:10320000F091AA078D859E8592838183138614860B
:1032100015861686BE01635F7F4F80EA90E00E94AC
:10322000000D0091A9071091AA076D857E85072ED4
:10323000000C880B990B0E94C421D80197966D93BE
:103240007D938D939C939A97BE01635F7F4F80E23D
:1032500090E00E94000DE091A907F091AA078D85EA
:103260009E85978B868BC2A2D3A2E4A2F5A2BE0153
:10327000635F7F4F80E390E00E94000DE091A9071B
:10328000F091AA078D859E85958B848B168E178E5F
:1032900010A211A2BE01635F7F4F80EB90E00E94FD
:1032A000000D0091A9071091AA076D857E85072E54
:1032B000000C880B990B0E94C421F80163A774A726
:1032C00085A796A7BE01635F7F4F80E690E00E94CE
:1032D000000DE091AB07F091AC078D859E8594833E
:1032E0008383C786D08AE18AF28ABE01635F7F4FFB
:1032F00080E790E00E94000DE091AB07F091AC07F1
:103300008D859E8592838183138614861586168605
:10331000BE01635F7F4F80E890E00E94000DE09166
:10332000AB07F091AC078D859E85978B868BC2A2EB
:10333000D3A2E4A2F5A2BE01635F7F4F80E990E0D3
:103340000E94000DE091AB07F091AC078D859E8542
:10335000958B848B168E178E10A211A280E490E0BC
:103360000E940920898381E490E00E9409208A83D9
:1033700082E490E00E9409208B8383E490E00E9425
:1033800009208C83E091AD07F091AE0789819A8185
:10339000AB81BC81858B968BA78BB08F27982F9A9A
:1033A00090E490937C0087E880937A0090937C006F
:1033B00080937A0090937C0080937A0090937C00B5
:1033C00080937A0020E030E830937E0720937D07D9
:1033D0008FEF9FE79093800780937F07309382075A
:1033E0002093810790938407809383073093860707
:1033F00020938507909388078093870730939607DB
:1034000020939507909398078093970730939A0796
:103410002093990790939C0780939B0730939E0776
:1034200020939D079093A00780939F07F894109294
:1034300090001092910010929500109294008FE8E5
:1034400091E090939900809398008091910088601A
:10345000809391008091910082608093910080918F
:103460007100826080937100789410926F070E94BF
:10347000CB0A2090EA013090EB01FFEF2F1A3F0AB0
:103480003092EB012092EA0120FC0FC287EB97E01B
:103490000E94B20A8AEC97E00E94B20AA0904D07FF
:1034A000B0904E07B501CE01C1960E94500AE9A81E
:1034B000FAA80BA91CA989AC9AACCBACDCACD501A1
:1034C00097964D905D906D907C909A9720E030E0BB
:1034D00040E050E4C301B2010E94A8209701A80176
:1034E0000E94152187FF1CC020E030E040E050E43E
:1034F000C301B2010E94A9209701A8010E94742271
:10350000181674F49401A601B401C6010E94A82003
:1035100020E030E040E05FE30E9479227B018C01F3
:103520006DA87EA8AFA8B8AC9701A801B401C601E8
:103530000E94152187FD98C29301A501B701C8011A
:103540000E94152187FD93C29301A501B401C60114
:103550000E94A8209B01AC0160E07FEF8FE797E419
:103560000E941A2121966CAF7DAF8EAF9FAF21973D
:103570009301A501B701C8010E94A8209B01AC01DD
:1035800021966CAD7DAD8EAD9FAD21970E947922C5
:1035900020E030E040E057E40E94A8200E948C2107
:1035A00070935A076093590780916F0781110E94A9
:1035B000CB0A10925C0710925B0780916F07811114
:1035C0000E94CB0A93B1E0914D07F0914E07892FED
:1035D0008095881F8827881F86A38091700797FF92
:1035E00049C2E0914B07F0914C079081911142C282
:1035F000882361F0E0916D07F0916E0780818E7FE6
:10360000808380916F0781110E94CB0A60914F07E0
:1036100070915007CE0185960E94500AEDA0FEA041
:103620000FA118A5A9A4BAA4CBA4DCA46DA47EA460
:103630008FA498A89701A801B301C4010E94152185
:1036400087FD22C29701A801B501C6010E9474221C
:1036500018160CF41CC29501A601B301C4010E9406
:10366000A8209B01AC0160E07FEF8FE797E40E9408
:103670001A212B013C019501A601B701C8010E9446
:10368000A8209B01AC01C301B2010E94792220E075
:1036900030E040E057E40E94A8200E948C21709303
:1036A00064076093630780916F0781110E94CB0AC2
:1036B00060914F07709150076D5E7F4FCE01499624
:1036C0000E94500AE98CFA8C0B8D1C8DAD8CBE8C3F
:1036D000CF8CD8A069A07AA08BA09CA09301A40154
:1036E000B701C8010E94742218160CF4D3C19701C7
:1036F000A801B501C6010E94742218160CF4CDC1B0
:103700009501A601B301C4010E94A8209B01AC0150
:1037100060E07FEF8FE797E40E941A212B013C01C4
:103720009501A601B701C8010E94A8209B01AC0128
:10373000C301B2010E94792220E030E040E057E46A
:103740000E94A8200E948C217093660760936507F1
:1037500080916F0781110E94CB0A01E010E0802F59
:1037600090917007E0914B07F0914C07E00FF11F2B
:103770002081211195C1091708F5E02FE695E695FE
:10378000E69520916D0730916E07E20FF32FF11D42
:10379000877021E030E040E050E004C0220F331F8A
:1037A000441F551F8A95D2F7922F909580818923C7
:1037B000808380916F0781110E94CB0A0F5F1F4F9A
:1037C0000032110561F60091510710915207D8019E
:1037D00012966D917D918D919C9115970E94C421B7
:1037E0009B01AC01F801658976898789908D0E94DB
:1037F0007922D80117966D937D938D939C931A9798
:103800008CE0F8013796DE011D9601900D928A95A5
:10381000E1F7ED84FE840F851889A988BA88CB88E2
:10382000DC886D887E888F88988C9301A401B7010D
:10383000C8010E94742218160CF450C19501A6010B
:10384000B701C8010E94152187FD4BC19501A60152
:10385000B301C4010E94A8209B01AC0160E07FEF8E
:103860008FE797E40E941A212B013C019501A601E4
:10387000B701C8010E94A8209B01AC01C301B2019D
:103880000E94792220E030E040E057E40E94A82026
:103890000E948C21709368076093670780916F077F
:1038A00081110E94CB0A0E94CB0AC101877099271F
:1038B000892B41F48DED97E00E94B20A80EF97E0EA
:1038C0000E94B20AC1018F779927892B09F06FC333
:1038D00062E088E00E94F8081092C5018093C4015C
:1038E0008091510890915208DC01ED91FC91008487
:1038F000F185E02D09950297E1F5809151089091AD
:103900005208DC01ED91FC910284F385E02D0995CC
:10391000E1E3F8E030E020E09927AC01022E02C09C
:10392000559547950A94E2F7417041932F5F3F4FB9
:103930002830310591F78091510890915208DC01AF
:10394000ED91FC910284F385E02D0995E9E3F8E01F
:1039500030E020E09927AC01022E02C05595479532
:103960000A94E2F7417041932F5F3F4F28303105B1
:1039700091F762E089E00E94F8081092C5018093F7
:10398000C4018091510890915208DC01ED91FC91A5
:103990000084F185E02D09950297E1F580915108A9
:1039A00090915208DC01ED91FC910284F385E02DA9
:1039B0000995E1E4F8E030E020E09927AC01022E1F
:1039C00002C0559547950A94E2F7417041932F5FE5
:1039D0003F4F2830310591F780915108909152085E
:1039E000DC01ED91FC910284F385E02D0995E9E479
:1039F000F8E030E020E09927AC01022E02C0559596
:103A000047950A94E2F7417041932F5F3F4F28306A
:103A1000310591F78091B307853009F4F0C008F0C3
:103A200070C0823009F4D8C008F05EC0882309F461
:103A30007DC0813009F483C01092B5071092B4079D
:103A40003FEF3093B30796C082E08DCB83E08BCB02
:103A500081E089CB80E087CB82E098CB83E096CB76
:103A600081E094CB80E092CB740186016DCD73012F
:103A700085016ACD882309F4C9CDE0916D07F091E5
:103A80006E0780818160BCCD73018401E4CD750136
:103A90008601E1CD7301840133CE7501860130CEFC
:103AA000091708F08BCEE02FE695E695E695209174
:103AB0006D0730916E07E20FF32FF11D877021E043
:103AC00030E040E050E004C0220F331F441F551F78
:103AD0008A95D2F7C9012081822B6ACE73018401B5
:103AE000B5CE75018601B2CE6091A9077091AA0783
:103AF000833009F475C0843009F09ECF6D5E7F4F2E
:103B00006FC0883031F050F4863081F0873009F092
:103B100093CF6091AB077091AC0762C08A3009F413
:103B200073C008F471C08F3F09F086CFE091AD07F4
:103B3000F091AE0782819381A481B58117C08091F5
:103B4000B607853618F0BFEFB093B307EFEFF9EF84
:103B500020E0E150F0402040E1F700C000008091FB
:103B6000B60791E0980F9093B60790E09093B50751
:103B70008093B407A091A907B091AA0793B1892FA8
:103B80008095881F8827881F96968C93969797FD17
:103B90004DC0E091B307EF3F09F448C093B1892FBE
:103BA0008095881F8827881F96968C93969797FFF5
:103BB000F5CFEB3008F035C0F0E0EF51F24E0C9449
:103BC0008E20091E111EB31ECF1EE51EFF1E151FDF
:103BD000501F691F7E1F971F6091A9077091AA0748
:103BE000CE0101960E94500A69817A818B819C8165
:103BF0000E948C217093B5076093B407BBCF60918E
:103C0000A9077091AA077ACF6091AB077091AC07B2
:103C100075CFE091AD07F091AE0712821382148246
:103C200015828091B3078F5F8093B3078091B107AE
:103C30009091B20731E03093E9014AE04093E80106
:103C40001092E7011092E601DC01ED91FC910190E8
:103C5000F081E02D6091B30709958091B1079091B3
:103C6000B207DC01ED91FC910280F381E02D42E08E
:103C700050E064EB77E009950091E601013208F02D
:103C800090C11091E8010E94B6046B017C01809103
:103C90003B02811161C182E080933B02B1E0B093AD
:103CA0001A02EFEFE0931902109218020093170224
:103CB000E6ECF1E0A5EFB1E080E0081380C11092DE
:103CC000160280911602110F182B10931602809184
:103CD0001502813009F077C1109215020E94B604D6
:103CE0006B017C01809116028093BB0080913D02A4
:103CF00090913E02A0913F02B0914002892B8A2B05
:103D00008B2BA1F00E94B60400913D0210913E025F
:103D100020913F02309140026C197D098E099F0964
:103D2000061717072807390708F437C18091BC0028
:103D300083FDD8CF85EC8093BC000E94B6046B0154
:103D40007C0180913B02823009F441C180911902CB
:103D50008F3F09F426C180911902803209F421C1F4
:103D6000809119021EC115968D919C9116971496FB
:103D70009C938E93139720E030E048EC52E41F961A
:103D80002D933D934D935C9352979A838983BE0103
:103D90006F5F7F4F90E080E00E94DC0C42CF159671
:103DA0008D919C91169712969C938E9311971B96CA
:103DB0001D921D921D921C921E979A838983BE01AB
:103DC0006F5F7F4F80E190E0E7CF58968D919C9197
:103DD000599757969C938E93569720E030E048EC85
:103DE00052E492962D933D934D935C9395979A83CD
:103DF0008983BE016F5F7F4F80E290E0CDCF589600
:103E00008D919C91599757969C938E935697929625
:103E10001D921D921D921C9295979A838983BE01D3
:103E20006F5F7F4F80E390E0B7CF0091AD071091B7
:103E3000AE07F80182819381A481B581948B838B35
:103E4000BC01990F880B990B0E94C4219B01AC0106
:103E500060E070E084EB93E40E941A21D80155964B
:103E60006D937D938D939C93589769837A838B830D
:103E70009C83FE0131967F0100E410E0D701DD90C4
:103E80007D01C8010E940920D81621F06D2DC801BE
:103E90000E9411200F5F1F4F0434110579F7C1CE26
:103EA000E091AB07F091AC078581968108979483E8
:103EB000838320E030E048EC52E42787308B418B4D
:103EC000528B9A838983BE016F5F7F4F80E690E0BB
:103ED00063CFE091AB07F091AC07858196810496A2
:103EE0009283818313861486158616869A83898326
:103EF000BE016F5F7F4F80E790E04ECFE091AB0750
:103F0000F091AC07808D918D0497978B868B20E084
:103F100030E048EC52E422A333A344A355A39A8390
:103F20008983BE016F5F7F4F80E890E035CFE091DD
:103F3000AB07F091AC07808D918D0896958B848BA3
:103F4000168E178E10A211A29A838983BE016F5F0D
:103F50007F4F80E990E020CF80913D0290913E021A
:103F6000A0913F02B0914002892B8A2B8B2B09F440
:103F70008ECE0E94B60480903D0290903E02A090AA
:103F80003F02B09040026C197D098E099F09861688
:103F90009706A806B90608F07ACE80913C020E94E6
:103FA000D7081092E7011092E6011092E90120E093
:103FB00030E0232B09F45DCA0E9400005ACA919197
:103FC0009D938F5F7ACEF5EEF093BC00B6CE8091D4
:103FD0003D0290913E02A0913F02B0914002892B98
:103FE0008A2B8B2B09F4ADCE0E94B60400913D02C2
:103FF00010913E0220913F02309140026C197D09E0
:104000008E099F09061717072807390708F099CE68
:10401000C4CFF999FECF92BD81BDF89A992780B59A
:104020000895262FF999FECF1FBA92BD81BD20BDFC
:104030000FB6F894FA9AF99A0FBE01960895052ED4
:1040400097FB1EF400940E94362057FD07D00E9473
:10405000492007FC03D04EF40C943620509540952F
:10406000309521953F4F4F4F5F4F08959095809524
:10407000709561957F4F8F4F9F4F08950E946B20E1
:10408000A59F900DB49F900DA49F800D911D1124AC
:104090000895A1E21A2EAA1BBB1BFD010DC0AA1F89
:1040A000BB1FEE1FFF1FA217B307E407F50720F0A1
:1040B000A21BB30BE40BF50B661F771F881F991F1C
:1040C0001A9469F760957095809590959B01AC0165
:1040D000BD01CF010895A29FB001B39FC001A39F6E
:1040E000700D811D1124911DB29F700D811D112431
:1040F000911D089597FB072E16F4009407D077FDC5
:1041000009D00E94942007FC05D03EF4909581953B
:104110009F4F0895709561957F4F0895EE0FFF1F93
:104120000590F491E02D0994AA1BBB1B51E107C037
:10413000AA1FBB1FA617B70710F0A61BB70B881F37
:10414000991F5A95A9F780959095BC01CD010895C6
:104150005058BB27AA270E94C0200C943A220E94E4
:104160002C2238F00E94332220F039F49F3F19F4BA
:1041700026F40C9429220EF4E095E7FB0C942322FC
:10418000E92F0E944B2258F3BA176207730784077E
:10419000950720F079F4A6F50C946D220EF4E095C5
:1041A0000B2EBA2FA02D0B01B90190010C01CA01F1
:1041B000A0011124FF27591B99F0593F50F4503E9C
:1041C00068F11A16F040A22F232F342F4427585F8E
:1041D000F3CF469537952795A795F0405395C9F7A6
:1041E0007EF41F16BA0B620B730B840BBAF091505E
:1041F000A1F0FF0FBB1F661F771F881FC2F70EC0FD
:10420000BA0F621F731F841F48F4879577956795CF
:10421000B795F7959E3F08F0B0CF9395880F08F0BB
:104220009927EE0F9795879508950E94FF2108F42E
:1042300081E008950E942E210C943A220E9433229C
:1042400058F00E942C2240F029F45F3F29F00C9492
:10425000232251110C946E220C9429220E944B228D
:1042600068F39923B1F3552391F3951B550BBB27A5
:10427000AA2762177307840738F09F5F5F4F220FEA
:10428000331F441FAA1FA9F335D00E2E3AF0E0E8E1
:1042900032D091505040E695001CCAF72BD0FE2F2B
:1042A00029D0660F771F881FBB1F261737074807BF
:1042B000AB07B0E809F0BB0B802DBF01FF27935877
:1042C0005F4F3AF09E3F510578F00C9423220C94F6
:1042D0006E225F3FE4F3983ED4F386957795679519
:1042E000B795F7959F5FC9F7880F911D96958795AC
:1042F00097F90895E1E0660F771F881FBB1F6217CB
:1043000073078407BA0720F0621B730B840BBA0B88
:10431000EE1F88F7E09508950E9493216894B111EB
:104320000C946E2208950E94532288F09F5798F0B3
:10433000B92F9927B751B0F0E1F0660F771F881FAA
:10434000991F1AF0BA95C9F714C0B13091F00E94C4
:104350006D22B1E008950C946D22672F782F882785
:10436000B85F39F0B93FCCF3869577956795B395EB
:10437000D9F73EF490958095709561957F4F8F4F5A
:104380009F4F0895E89409C097FB3EF4909580955F
:10439000709561957F4F8F4F9F4F9923A9F0F92F0B
:1043A00096E9BB279395F695879577956795B79589
:1043B000F111F8CFFAF4BB0F11F460FF1BC06F5F6F
:1043C0007F4F8F4F9F4F16C0882311F096E911C081
:1043D000772321F09EE8872F762F05C0662371F0A2
:1043E00096E8862F70E060E02AF09A95660F771FB6
:1043F000881FDAF7880F9695879597F90895990F92
:104400000008550FAA0BE0E8FEEF16161706E8079E
:10441000F907C0F012161306E407F50798F0621BBF
:10442000730B840B950B39F40A2661F0232B242B94
:10443000252B21F408950A2609F4A140A6958FEFB3
:10444000811D811D089597F99F6780E870E060E005
:1044500008959FEF80EC089500240A94161617061D
:1044600018060906089500240A9412161306140665
:1044700005060895092E0394000C11F4882352F0C8
:10448000BB0F40F4BF2B11F460FF04C06F5F7F4F80
:104490008F4F9F4F089557FD9058440F551F59F067
:1044A0005F3F71F04795880F97FB991F61F09F3F21
:1044B00079F087950895121613061406551FF2CF4A
:1044C0004695F1DF08C0161617061806991FF1CF9A
:1044D00086957105610508940895E894BB276627C1
:1044E0007727CB0197F908950E94FF2108F48FEFF9
:1044F00008950E948C220C943A220E942C2238F0BB
:104500000E94332220F0952311F00C9423220C9466
:10451000292211240C946E220E944B2270F3959F45
:10452000C1F3950F50E0551F629FF001729FBB27AA
:10453000F00DB11D639FAA27F00DB11DAA1F649F46
:104540006627B00DA11D661F829F2227B00DA11DF9
:10455000621F739FB00DA11D621F839FA00D611D7F
:10456000221F749F3327A00D611D231F849F600DA0
:10457000211D822F762F6A2F11249F5750409AF0C9
:10458000F1F088234AF0EE0FFF1FBB1F661F771F55
:10459000881F91505040A9F79E3F510580F00C9420
:1045A00023220C946E225F3FE4F3983ED4F3869569
:1045B00077956795B795F795E7959F5FC1F7FE2BC0
:1045C000880F911D9695879597F908950F931F93DE
:1045D000CF93DF938230910510F482E090E0E09178
:1045E0005508F091560830E020E0B0E0A0E03097A8
:1045F00099F42115310509F44AC0281B390B2430E0
:104600003105D8F58A819B816115710589F1FB011E
:1046100093838283FE0111C0408151810281138105
:1046200048175907E0F04817590799F4109761F0B7
:1046300012960C93129713961C933296CF01DF912A
:10464000CF911F910F91089500935508109356082C
:10465000F4CF2115310551F04217530738F0A90165
:10466000DB019A01BD01DF01F801C1CFEF01F9CFF4
:104670009093560880935508CDCFFE01E20FF31FAB
:10468000819391932250310939832883D7CF209188
:10469000530830915408232B41F420911F0130918D
:1046A0002001309354082093530820911D0130912C
:1046B0001E012115310541F42DB73EB7409121016E
:1046C00050912201241B350BE0915308F0915408BE
:1046D000E217F307A0F42E1B3F0B2817390778F0D9
:1046E000AC014E5F5F4F2417350748F04E0F5F1F38
:1046F0005093540840935308819391939FCFF0E0D7
:10470000E0E09CCFCF93DF930097E9F0FC01329774
:1047100013821282A0915508B0915608ED0130E045
:1047200020E01097A1F420813181820F931F209106
:104730005308309154082817390709F061C0F093E5
:104740005408E0935308DF91CF910895EA01CE1702
:10475000DF07E8F54A815B819E0141155105B1F7FC
:10476000E901FB83EA8349915991C40FD51FEC17E6
:10477000FD0761F4808191810296840F951FE90104
:1047800099838883828193819B838A83F0E0E0E030
:1047900012968D919C9113970097B9F52D913C91AC
:1047A0001197CD010296820F931F209153083091EB
:1047B00054082817390739F6309751F510925608E2
:1047C00010925508B0935408A0935308BCCFD383DC
:1047D000C28340815181840F951FC817D90761F4A6
:1047E0004E5F5F4F88819981480F591F51834083E5
:1047F0008A819B81938382832115310509F0B0CF93
:10480000F0935608E09355089ECFFD01DC01C0CF20
:1048100013821282D7CFFB01DC0102C001900D92FE
:0C48200041505040D8F70895F894FFCFA5
:10482C00FFFFFFFF00E1000000000000F504F504AD
:10483C00F504F504F50400C1808100000000005768
:10484C00088000021E000001FF00FF0000010100B3
:10485C0000FF00FF010000000000140D3808E40701
:10486C00CA0700000000F203F6055B050804890680
:10487C005E063606000000001E0AF1094D0AC70943
:06488C00EA09D709C80982
:00000001FF
